{
    "contractName": "CarInsuranceClaimSystem",
    "abi": [
        {
            "inputs": [
                {
                    "internalType": "address",
                    "name": "_roleManagementAddress",
                    "type": "address"
                },
                {
                    "internalType": "address",
                    "name": "_policyManagementAddress",
                    "type": "address"
                }
            ],
            "stateMutability": "nonpayable",
            "type": "constructor"
        },
        {
            "anonymous": false,
            "inputs": [
                {
                    "indexed": false,
                    "internalType": "uint256",
                    "name": "claimId",
                    "type": "uint256"
                }
            ],
            "name": "ClaimApproved",
            "type": "event"
        },
        {
            "anonymous": false,
            "inputs": [
                {
                    "indexed": false,
                    "internalType": "uint256",
                    "name": "claimId",
                    "type": "uint256"
                }
            ],
            "name": "ClaimRejected",
            "type": "event"
        },
        {
            "anonymous": false,
            "inputs": [
                {
                    "indexed": false,
                    "internalType": "uint256",
                    "name": "claimId",
                    "type": "uint256"
                },
                {
                    "indexed": true,
                    "internalType": "address",
                    "name": "claimant",
                    "type": "address"
                },
                {
                    "indexed": false,
                    "internalType": "string",
                    "name": "name",
                    "type": "string"
                },
                {
                    "indexed": false,
                    "internalType": "string",
                    "name": "policy",
                    "type": "string"
                }
            ],
            "name": "ClaimSubmitted",
            "type": "event"
        },
        {
            "inputs": [],
            "name": "claimCount",
            "outputs": [
                {
                    "internalType": "uint256",
                    "name": "",
                    "type": "uint256"
                }
            ],
            "stateMutability": "view",
            "type": "function"
        },
        {
            "inputs": [
                {
                    "internalType": "uint256",
                    "name": "",
                    "type": "uint256"
                }
            ],
            "name": "claims",
            "outputs": [
                {
                    "internalType": "uint256",
                    "name": "id",
                    "type": "uint256"
                },
                {
                    "internalType": "address",
                    "name": "claimant",
                    "type": "address"
                },
                {
                    "internalType": "string",
                    "name": "name",
                    "type": "string"
                },
                {
                    "internalType": "string",
                    "name": "policy",
                    "type": "string"
                },
                {
                    "internalType": "string",
                    "name": "incidentDate",
                    "type": "string"
                },
                {
                    "internalType": "string",
                    "name": "details",
                    "type": "string"
                },
                {
                    "internalType": "enum CarInsuranceClaimSystem.ClaimStatus",
                    "name": "status",
                    "type": "uint8"
                },
                {
                    "internalType": "uint256",
                    "name": "timestamp",
                    "type": "uint256"
                }
            ],
            "stateMutability": "view",
            "type": "function"
        },
        {
            "inputs": [
                {
                    "internalType": "uint256",
                    "name": "_claimId",
                    "type": "uint256"
                },
                {
                    "internalType": "bool",
                    "name": "_approvedStatus",
                    "type": "bool"
                }
            ],
            "name": "reviewClaim",
            "outputs": [],
            "stateMutability": "nonpayable",
            "type": "function"
        },
        {
            "inputs": [
                {
                    "internalType": "string",
                    "name": "_name",
                    "type": "string"
                },
                {
                    "internalType": "string",
                    "name": "_policy",
                    "type": "string"
                },
                {
                    "internalType": "string",
                    "name": "_incidentDate",
                    "type": "string"
                },
                {
                    "internalType": "string",
                    "name": "_details",
                    "type": "string"
                },
                {
                    "internalType": "string[]",
                    "name": "_cover",
                    "type": "string[]"
                },
                {
                    "internalType": "string[]",
                    "name": "_ipfsHashes",
                    "type": "string[]"
                }
            ],
            "name": "submitClaim",
            "outputs": [],
            "stateMutability": "nonpayable",
            "type": "function"
        },
        {
            "inputs": [
                {
                    "internalType": "string",
                    "name": "",
                    "type": "string"
                }
            ],
            "name": "uploadedHashes",
            "outputs": [
                {
                    "internalType": "bool",
                    "name": "",
                    "type": "bool"
                }
            ],
            "stateMutability": "view",
            "type": "function"
        },
        {
            "inputs": [
                {
                    "internalType": "uint256",
                    "name": "_claimId",
                    "type": "uint256"
                }
            ],
            "name": "viewClaimStatus",
            "outputs": [
                {
                    "internalType": "address",
                    "name": "claimant",
                    "type": "address"
                },
                {
                    "internalType": "string",
                    "name": "name",
                    "type": "string"
                },
                {
                    "internalType": "string",
                    "name": "policy",
                    "type": "string"
                },
                {
                    "internalType": "string",
                    "name": "incidentDate",
                    "type": "string"
                },
                {
                    "internalType": "string",
                    "name": "details",
                    "type": "string"
                },
                {
                    "internalType": "enum CarInsuranceClaimSystem.ClaimStatus",
                    "name": "status",
                    "type": "uint8"
                },
                {
                    "internalType": "string[]",
                    "name": "cover",
                    "type": "string[]"
                },
                {
                    "internalType": "string[]",
                    "name": "ipfsHashes",
                    "type": "string[]"
                },
                {
                    "internalType": "uint256",
                    "name": "timestamp",
                    "type": "uint256"
                }
            ],
            "stateMutability": "view",
            "type": "function"
        }
    ],
    "bytecode": "608034608557601f611dce38819003918201601f19168301916001600160401b038311848410176089578084926040948552833981010312608557604b6020604583609d565b9201609d565b5f80546001600160a01b039384166001600160a01b03199182161790915560018054929093169116179055604051611d1d90816100b18239f35b5f80fd5b634e487b7160e01b5f52604160045260245ffd5b51906001600160a01b038216820360855756fe6080806040526004361015610012575f80fd5b5f3560e01c9081631ef5852014610434575080635cea3661146103da5780636312fd9d14610301578063655178321461015a5780638da4d3c91461013d5763a888c2cd1461005e575f80fd5b34610139576020366003190112610139576004355f52600260205260405f20805460018060a01b036001830154169161009960028201610808565b6101306101256100ab60038501610808565b6101176100ba60048701610808565b6101096100c960058901610808565b936100fb600960ff60068c0154169a0154986040519c8d9c8d5260208d015261010060408d01526101008c0190610747565b908a820360608c0152610747565b9088820360808a0152610747565b9086820360a0880152610747565b9260c085019061076b565b60e08301520390f35b5f80fd5b34610139575f366003190112610139576020600354604051908152f35b34610139576020366003190112610139576004355f52600260205260405f20604051610185816105ed565b8154815260018201546001600160a01b0316602082019081526101aa60028401610808565b91604081019283526101be60038501610808565b93606082019485526101d260048201610808565b92608083019384526101e660058301610808565b60a0840190815260ff6006840154169061020460c086019283610922565b61021060078501611c92565b9260e08601938452610120600961022960088801611c92565b6101008901908152960154960195865251965197519551905191516001600160a01b03909716969260038410156102ed575193519451956040519889988952602089016101209052610120890161027f91610747565b88810360408a015261029091610747565b87810360608901526102a191610747565b86810360808801526102b291610747565b9060a086016102c09161076b565b84810360c08601526102d191610778565b83810360e08501526102e291610778565b906101008301520390f35b634e487b7160e01b5f52602160045260245ffd5b346101395760c0366003190112610139576004356001600160401b0381116101395761033190369060040161063e565b6024356001600160401b0381116101395761035090369060040161063e565b906044356001600160401b0381116101395761037090369060040161063e565b6064356001600160401b0381116101395761038f90369060040161063e565b6084356001600160401b038111610139576103ae9036906004016106c9565b9160a435946001600160401b038611610139576103d26103d89636906004016106c9565b94610944565b005b34610139576020366003190112610139576004356001600160401b0381116101395760ff6020806104108194369060040161063e565b604051928184925191829101835e8101600481520301902054166040519015158152f35b346101395760403660031901126101395760043590602435908115158203610139575f54631ca82da560e21b8252336004830152602090829060249082906001600160a01b03165afa9081156105e2575f916105b3575b501561056f57815f526002602052600660405f20019060ff82541660038110156102ed5761052a57156104f157805460ff191660011790556040519081527fd2d0ed0cccc8615643ade1eff3929a29ed8df75ebca85a3996e311c9b69e228990602090a1005b805460ff191660021790556040519081527f2aa44a1bb19392ef6a2fd220d2b1649a6dc1bebbfa2a6f2c496e2d39a3339d0e90602090a1005b60405162461bcd60e51b815260206004820152601d60248201527f436c61696d206973206e6f7420696e2070656e64696e672073746174650000006044820152606490fd5b606460405162461bcd60e51b815260206004820152602060248201527f4163636573732064656e6965643a20596f7520617265206e6f742041646d696e6044820152fd5b6105d5915060203d6020116105db575b6105cd818361061d565b8101906108a8565b8361048b565b503d6105c3565b6040513d5f823e3d90fd5b61014081019081106001600160401b0382111761060957604052565b634e487b7160e01b5f52604160045260245ffd5b90601f801991011681019081106001600160401b0382111761060957604052565b81601f82011215610139578035906001600160401b0382116106095760405192610672601f8401601f19166020018561061d565b8284526020838301011161013957815f926020809301838601378301015290565b60208091604051928184925191829101835e8101600481520301902090565b6001600160401b0381116106095760051b60200190565b9080601f830112156101395781356106e0816106b2565b926106ee604051948561061d565b81845260208085019260051b820101918383116101395760208201905b83821061071a57505050505090565b81356001600160401b0381116101395760209161073c8784809488010161063e565b81520191019061070b565b805180835260209291819084018484015e5f828201840152601f01601f1916010190565b9060038210156102ed5752565b9080602083519182815201916020808360051b8301019401925f915b8383106107a357505050505090565b90919293946020806107c1600193601f198682030187528951610747565b97019301930191939290610794565b90600182811c921680156107fe575b60208310146107ea57565b634e487b7160e01b5f52602260045260245ffd5b91607f16916107df565b9060405191825f82549261081b846107d0565b80845293600181169081156108865750600114610842575b506108409250038361061d565b565b90505f9291925260205f20905f915b81831061086a575050906020610840928201015f610833565b6020919350806001915483858901015201910190918492610851565b90506020925061084094915060ff191682840152151560051b8201015f610833565b90816020910312610139575180151581036101395790565b9060038110156102ed5760ff80198354169116179055565b80518210156108ec5760209160051b010190565b634e487b7160e01b5f52603260045260245ffd5b5f19811461090e5760010190565b634e487b7160e01b5f52601160045260245ffd5b60038210156102ed5752565b818110610939575050565b5f815560010161092e565b5f54604051635ed721f760e01b815233600482015294969295939492939290602090829060249082906001600160a01b03165afa9081156105e2575f91611c73575b5015611c2f57805115611bf357845115611bb557815115611b7857825115611b33575f5b83518110156111ff5760ff6109c86109c283876108d8565b51610693565b54166109d6576001016109aa565b5090919293946109e7600354610900565b9485600355604051966109f9886105ed565b868852602088019333855260408901908152606089019182526080890192835260a0890193845260c08901946002865260e08a019687526101008a019788526101208a0198428a525f52600260205260405f2099518a5560018a019060018060a01b039051166bffffffffffffffffffffffff60a01b8254161790556002890190518051906001600160401b03821161060957610a9683546107d0565b601f81116111cf575b50602090601f831160011461116c57610acf92915f9183610d11575b50508160011b915f199060031b1c19161790565b90555b51805160038901916001600160401b03821161060957610af283546107d0565b601f811161113c575b50602090601f83116001146110d957610b2a92915f9183610d115750508160011b915f199060031b1c19161790565b90555b51805160048801916001600160401b03821161060957610b4d83546107d0565b601f81116110a9575b50602090601f831160011461104657610b8592915f9183610d115750508160011b915f199060031b1c19161790565b90555b51805160058701916001600160401b03821161060957610ba883546107d0565b601f8111611016575b50602090601f8311600114610fb357610be092915f9183610d115750508160011b915f199060031b1c19161790565b90555b5160038110156102ed57610bfa90600686016108c0565b5180516007850191600160401b8211610609578254828455808310610f3c575b50602001915f5260205f20915f905b828210610e375750505050600883019051805190600160401b8211610609578254828455808310610dc0575b50602001915f5260205f20915f905b828210610ca55750505050600990519101557f2aa44a1bb19392ef6a2fd220d2b1649a6dc1bebbfa2a6f2c496e2d39a3339d0e6020600354604051908152a1565b80518051906001600160401b03821161060957610cc286546107d0565b601f8111610d85575b50602090601f8311600114610d1c5792610d02836001959460209487965f92610d115750508160011b915f199060031b1c19161790565b87555b01940191019092610c64565b015190505f80610abb565b90601f19831691875f52815f20925f5b818110610d6d5750936020936001969387969383889510610d55575b505050811b018755610d05565b01515f1960f88460031b161c191690555f8080610d48565b92936020600181928786015181550195019301610d2c565b610db090875f5260205f20601f850160051c81019160208610610db6575b601f0160051c019061092e565b5f610ccb565b9091508190610da3565b835f528260205f2091820191015b818110610ddb5750610c55565b80610de8600192546107d0565b80610df5575b5001610dce565b601f81118314610e0a57505f81555b5f610dee565b610e2690825f5283601f60205f20920160051c8201910161092e565b805f525f6020812081835555610e04565b80518051906001600160401b03821161060957610e5486546107d0565b601f8111610f0c575b50602090601f8311600114610ea35792610e94836001959460209487965f92610d115750508160011b915f199060031b1c19161790565b87555b01940191019092610c29565b90601f19831691875f52815f20925f5b818110610ef45750936020936001969387969383889510610edc575b505050811b018755610e97565b01515f1960f88460031b161c191690555f8080610ecf565b92936020600181928786015181550195019301610eb3565b610f3690875f5260205f20601f850160051c81019160208610610db657601f0160051c019061092e565b5f610e5d565b835f528260205f2091820191015b818110610f575750610c1a565b80610f64600192546107d0565b80610f71575b5001610f4a565b601f81118314610f8657505f81555b5f610f6a565b610fa290825f5283601f60205f20920160051c8201910161092e565b805f525f6020812081835555610f80565b90601f19831691845f52815f20925f5b818110610ffe5750908460019594939210610fe6575b505050811b019055610be3565b01515f1960f88460031b161c191690555f8080610fd9565b92936020600181928786015181550195019301610fc3565b61104090845f5260205f20601f850160051c81019160208610610db657601f0160051c019061092e565b5f610bb1565b90601f19831691845f52815f20925f5b8181106110915750908460019594939210611079575b505050811b019055610b88565b01515f1960f88460031b161c191690555f808061106c565b92936020600181928786015181550195019301611056565b6110d390845f5260205f20601f850160051c81019160208610610db657601f0160051c019061092e565b5f610b56565b90601f19831691845f52815f20925f5b818110611124575090846001959493921061110c575b505050811b019055610b2d565b01515f1960f88460031b161c191690555f80806110ff565b929360206001819287860151815501950193016110e9565b61116690845f5260205f20601f850160051c81019160208610610db657601f0160051c019061092e565b5f610afb565b90601f19831691845f52815f20925f5b8181106111b7575090846001959493921061119f575b505050811b019055610ad2565b01515f1960f88460031b161c191690555f8080611192565b9293602060018192878601518155019501930161117c565b6111f990845f5260205f20601f850160051c81019160208610610db657601f0160051c019061092e565b5f610a9f565b5093919592949094611212600354610900565b90816003555f965f5b8151811015611b265761122e81836108d8565b5160405161125b6020828180820195805191829101875e81015f838201520301601f19810183528261061d565b5190206040516020810190694f776e2044616d61676560b01b8252600a8152611285602a8261061d565b519020146112955760010161121b565b50909192939495965060017fd2d0ed0cccc8615643ade1eff3929a29ed8df75ebca85a3996e311c9b69e22896020604051868152a15b604051946112d8866105ed565b8486526020860193338552604087018a815260608801908982526080890192835260a0890193845261130e60c08a019586610922565b60e089019586526101008901968d88526101208a0198428a525f52600260205260405f2099518a5560018a019060018060a01b039051166bffffffffffffffffffffffff60a01b8254161790556002890190518051906001600160401b0382116106095761137c83546107d0565b601f8111611af6575b50602090601f8311600114611a93576113b492915f9183610d115750508160011b915f199060031b1c19161790565b90555b51805160038901916001600160401b038211610609576113d783546107d0565b601f8111611a63575b50602090601f8311600114611a005761140f92915f9183610d115750508160011b915f199060031b1c19161790565b90555b51805160048801916001600160401b0382116106095761143283546107d0565b601f81116119d0575b50602090601f831160011461196d5761146a92915f9183610d115750508160011b915f199060031b1c19161790565b90555b51805160058701916001600160401b0382116106095761148d83546107d0565b601f811161193d575b50602090601f83116001146118da576114c592915f9183610d115750508160011b915f199060031b1c19161790565b90555b5160038110156102ed576114df90600686016108c0565b5180516007850191600160401b8211610609578254828455808310611863575b50602001915f5260205f20915f905b82821061175e5750505050600883019051805190600160401b82116106095782548284558083106116e7575b50602001915f5260205f20915f905b8282106115e25750505050600990519101555f5b845181101561158657806115766109c2600193886108d8565b805460ff1916831790550161155d565b50917f94b7db94c344c8d6ab916144332c1b921c5e2f06b533a11deb549a3637687ba79193506003546115dd6115ce6040519384938452606060208501526060840190610747565b82810360408401523395610747565b0390a2565b80518051906001600160401b038211610609576115ff86546107d0565b601f81116116b7575b50602090601f831160011461164e579261163f836001959460209487965f92610d115750508160011b915f199060031b1c19161790565b87555b01940191019092611549565b90601f19831691875f52815f20925f5b81811061169f5750936020936001969387969383889510611687575b505050811b018755611642565b01515f1960f88460031b161c191690555f808061167a565b9293602060018192878601518155019501930161165e565b6116e190875f5260205f20601f850160051c81019160208610610db657601f0160051c019061092e565b5f611608565b835f528260205f2091820191015b818110611702575061153a565b8061170f600192546107d0565b8061171c575b50016116f5565b601f8111831461173157505f81555b5f611715565b61174d90825f5283601f60205f20920160051c8201910161092e565b805f525f602081208183555561172b565b80518051906001600160401b0382116106095761177b86546107d0565b601f8111611833575b50602090601f83116001146117ca57926117bb836001959460209487965f92610d115750508160011b915f199060031b1c19161790565b87555b0194019101909261150e565b90601f19831691875f52815f20925f5b81811061181b5750936020936001969387969383889510611803575b505050811b0187556117be565b01515f1960f88460031b161c191690555f80806117f6565b929360206001819287860151815501950193016117da565b61185d90875f5260205f20601f850160051c81019160208610610db657601f0160051c019061092e565b5f611784565b835f528260205f2091820191015b81811061187e57506114ff565b8061188b600192546107d0565b80611898575b5001611871565b601f811183146118ad57505f81555b5f611891565b6118c990825f5283601f60205f20920160051c8201910161092e565b805f525f60208120818355556118a7565b90601f19831691845f52815f20925f5b818110611925575090846001959493921061190d575b505050811b0190556114c8565b01515f1960f88460031b161c191690555f8080611900565b929360206001819287860151815501950193016118ea565b61196790845f5260205f20601f850160051c81019160208610610db657601f0160051c019061092e565b5f611496565b90601f19831691845f52815f20925f5b8181106119b857509084600195949392106119a0575b505050811b01905561146d565b01515f1960f88460031b161c191690555f8080611993565b9293602060018192878601518155019501930161197d565b6119fa90845f5260205f20601f850160051c81019160208610610db657601f0160051c019061092e565b5f61143b565b90601f19831691845f52815f20925f5b818110611a4b5750908460019594939210611a33575b505050811b019055611412565b01515f1960f88460031b161c191690555f8080611a26565b92936020600181928786015181550195019301611a10565b611a8d90845f5260205f20601f850160051c81019160208610610db657601f0160051c019061092e565b5f6113e0565b90601f19831691845f52815f20925f5b818110611ade5750908460019594939210611ac6575b505050811b0190556113b7565b01515f1960f88460031b161c191690555f8080611ab9565b92936020600181928786015181550195019301611aa3565b611b2090845f5260205f20601f850160051c81019160208610610db657601f0160051c019061092e565b5f611385565b50909192939495966112cb565b60405162461bcd60e51b815260206004820152601760248201527f4e6f2049504653206861736865732070726f76696465640000000000000000006044820152606490fd5b60405162461bcd60e51b8152602060048201526015602482015274436f7665722063616e6e6f7420626520656d70747960581b6044820152606490fd5b60405162461bcd60e51b8152602060048201526016602482015275506f6c6963792063616e6e6f7420626520656d70747960501b6044820152606490fd5b60405162461bcd60e51b81526020600482015260146024820152734e616d652063616e6e6f7420626520656d70747960601b6044820152606490fd5b606460405162461bcd60e51b815260206004820152602060248201527f4163636573732064656e6965643a20596f7520617265206e6f742055736572736044820152fd5b611c8c915060203d6020116105db576105cd818361061d565b5f610986565b908154611c9e816106b2565b92611cac604051948561061d565b81845260208401905f5260205f205f915b838310611cca5750505050565b600160208192611cd985610808565b815201920192019190611cbd56fea2646970667358221220b29e16ad0086e22186aff63b19ea8537e5e5f46bbb09c1875d4ebf6f51e9ad9864736f6c634300081c0033",
    "sourcePath": "/Users/doodee/CarInsuranceProject/contracts/claims.sol",
    "compiler": {
        "name": "solc",
        "version": "0.8.28+commit.7893614a"
    },
    "functionHashes": {
        "claimCount()": "8da4d3c9",
        "claims(uint256)": "a888c2cd",
        "reviewClaim(uint256,bool)": "1ef58520",
        "submitClaim(string,string,string,string,string[],string[])": "6312fd9d",
        "uploadedHashes(string)": "5cea3661",
        "viewClaimStatus(uint256)": "65517832"
    },
    "gasEstimates": {
        "creation": {
            "codeDepositCost": "1490600",
            "executionCost": "infinite",
            "totalCost": "infinite"
        },
        "external": {
            "claimCount()": "2344",
            "claims(uint256)": "infinite",
            "reviewClaim(uint256,bool)": "infinite",
            "submitClaim(string,string,string,string,string[],string[])": "infinite",
            "uploadedHashes(string)": "infinite",
            "viewClaimStatus(uint256)": "infinite"
        }
    }
}