{
  "contractName": "CarInsurancePayoutDistribution",
  "abi": [
    {
      "inputs": [
        {
          "internalType": "address",
          "name": "_claimProcessingAddress",
          "type": "address"
        }
      ],
      "stateMutability": "nonpayable",
      "type": "constructor"
    },
    {
      "inputs": [
        {
          "internalType": "uint256",
          "name": "_claimId",
          "type": "uint256"
        },
        {
          "internalType": "address payable",
          "name": "_claimant",
          "type": "address"
        }
      ],
      "name": "distributePayout",
      "outputs": [],
      "stateMutability": "nonpayable",
      "type": "function"
    },
    {
      "inputs": [
        {
          "internalType": "uint256",
          "name": "",
          "type": "uint256"
        }
      ],
      "name": "checkPayoutStatus",
      "outputs": [
        {
          "internalType": "bool",
          "name": "",
          "type": "bool"
        }
      ],
      "stateMutability": "pure",
      "type": "function",
      "constant": true
    },
    {
      "inputs": [],
      "name": "getTotalPayouts",
      "outputs": [
        {
          "internalType": "uint256",
          "name": "",
          "type": "uint256"
        }
      ],
      "stateMutability": "view",
      "type": "function",
      "constant": true
    }
  ],
  "bytecode": "0x608060405234801561001057600080fd5b506040516107b93803806107b98339818101604052810190610032919061008d565b806000806101000a81548173ffffffffffffffffffffffffffffffffffffffff021916908373ffffffffffffffffffffffffffffffffffffffff160217905550506100ff565b600081519050610087816100e8565b92915050565b60006020828403121561009f57600080fd5b60006100ad84828501610078565b91505092915050565b60006100c1826100c8565b9050919050565b600073ffffffffffffffffffffffffffffffffffffffff82169050919050565b6100f1816100b6565b81146100fc57600080fd5b50565b6106ab8061010e6000396000f3fe608060405234801561001057600080fd5b50600436106100415760003560e01c8063195f48071461004657806326e9141414610064578063971bdb1c14610080575b600080fd5b61004e6100b0565b60405161005b91906104f9565b60405180910390f35b61007e600480360381019061007991906103c4565b6100b8565b005b61009a6004803603810190610095919061039b565b61024f565b6040516100a7919061049e565b60405180910390f35b600047905090565b60008060008060009054906101000a900473ffffffffffffffffffffffffffffffffffffffff1673ffffffffffffffffffffffffffffffffffffffff166365517832866040518263ffffffff1660e01b815260040161011791906104f9565b60006040518083038186803b15801561012f57600080fd5b505afa158015610143573d6000803e3d6000fd5b505050506040513d6000823e3d601f19601f8201168201806040525081019061016c9190610320565b93505092509250826101b3576040517f08c379a00000000000000000000000000000000000000000000000000000000081526004016101aa906104b9565b60405180910390fd5b816101f3576040517f08c379a00000000000000000000000000000000000000000000000000000000081526004016101ea906104d9565b60405180910390fd5b60006101fe8261025a565b90508473ffffffffffffffffffffffffffffffffffffffff166108fc829081150290604051600060405180830381858888f19350505050158015610246573d6000803e3d6000fd5b50505050505050565b600060019050919050565b6000819050919050565b600061027761027284610545565b610514565b90508281526020810184848401111561028f57600080fd5b61029a8482856105ce565b509392505050565b6000813590506102b181610630565b92915050565b6000815190506102c681610647565b92915050565b600082601f8301126102dd57600080fd5b81516102ed848260208601610264565b91505092915050565b6000813590506103058161065e565b92915050565b60008151905061031a8161065e565b92915050565b6000806000806080858703121561033657600080fd5b6000610344878288016102b7565b9450506020610355878288016102b7565b935050604085015167ffffffffffffffff81111561037257600080fd5b61037e878288016102cc565b925050606061038f8782880161030b565b91505092959194509250565b6000602082840312156103ad57600080fd5b60006103bb848285016102f6565b91505092915050565b600080604083850312156103d757600080fd5b60006103e5858286016102f6565b92505060206103f6858286016102a2565b9150509250929050565b61040981610598565b82525050565b600061041c601383610575565b91507f436c61696d206e6f742070726f636573736564000000000000000000000000006000830152602082019050919050565b600061045c601283610575565b91507f436c61696d206e6f7420617070726f76656400000000000000000000000000006000830152602082019050919050565b610498816105c4565b82525050565b60006020820190506104b36000830184610400565b92915050565b600060208201905081810360008301526104d28161040f565b9050919050565b600060208201905081810360008301526104f28161044f565b9050919050565b600060208201905061050e600083018461048f565b92915050565b6000604051905081810181811067ffffffffffffffff8211171561053b5761053a610601565b5b8060405250919050565b600067ffffffffffffffff8211156105605761055f610601565b5b601f19601f8301169050602081019050919050565b600082825260208201905092915050565b6000610591826105a4565b9050919050565b60008115159050919050565b600073ffffffffffffffffffffffffffffffffffffffff82169050919050565b6000819050919050565b60005b838110156105ec5780820151818401526020810190506105d1565b838111156105fb576000848401525b50505050565b7f4e487b7100000000000000000000000000000000000000000000000000000000600052604160045260246000fd5b61063981610586565b811461064457600080fd5b50565b61065081610598565b811461065b57600080fd5b50565b610667816105c4565b811461067257600080fd5b5056fea2646970667358221220ea2d63ba2877b3ac633441f5fb644348c83ab2a0f18e9cb1e5a297c0e5ef8aa464736f6c63430008000033",
  "immutableReferences": {},
  "source": "// SPDX-License-Identifier: MIT\npragma solidity ^0.8.0;\n\nimport \"./claims.sol\";\n\ncontract CarInsurancePayoutDistribution {\n    CarInsuranceClaimProcessing claimProcessing;\n\n    constructor(address _claimProcessingAddress) {\n        claimProcessing = CarInsuranceClaimProcessing(_claimProcessingAddress);\n    }\n\n    function distributePayout(uint _claimId, address payable _claimant) public {\n        (bool processed, bool approved, , uint damageAmount) = claimProcessing.viewClaimStatus(_claimId);\n\n        require(processed, \"Claim not processed\");\n        require(approved, \"Claim not approved\");\n\n        uint payoutAmount = calculatePayout(damageAmount);\n        _claimant.transfer(payoutAmount);\n    }\n\n    function calculatePayout(uint damageAmount) internal pure returns (uint) {\n        return damageAmount; // Use the damage amount as the payout\n    }\n\n    function checkPayoutStatus(uint /* _claimId */) public pure returns (bool) {\n        // Placeholder logic for checking payout status\n        return true; // You might implement a proper logic later\n    }\n\n    function getTotalPayouts() public view returns (uint) {\n        return address(this).balance; // Placeholder for total payouts\n    }\n}",
  "sourcePath": "/Users/doodee/CarInsuranceProject/contracts/payout.sol",
  "compiler": {
    "name": "solc",
    "version": "0.8.0+commit.c7dfd78e.Emscripten.clang"
  },
  "schemaVersion": "3.4.16",
  "updatedAt": "2024-11-09T19:04:19.205Z",
  "networkType": "ethereum",
  "devdoc": {
    "kind": "dev",
    "methods": {},
    "version": 1
  },
  "userdoc": {
    "kind": "user",
    "methods": {},
    "version": 1
  }
}