{
  "contractName": "CarInsurancePayoutSystem",
  "abi": [
    {
      "inputs": [
        {
          "internalType": "address",
          "name": "_premiumCollectionAddress",
          "type": "address"
        },
        {
          "internalType": "address",
          "name": "_carInsuranceClaimSystemAddress",
          "type": "address"
        },
        {
          "internalType": "address",
          "name": "_roleManagementAddress",
          "type": "address"
        }
      ],
      "stateMutability": "nonpayable",
      "type": "constructor"
    },
    {
      "anonymous": false,
      "inputs": [
        {
          "indexed": false,
          "internalType": "uint256",
          "name": "claimId",
          "type": "uint256"
        },
        {
          "indexed": true,
          "internalType": "address",
          "name": "claimant",
          "type": "address"
        },
        {
          "indexed": false,
          "internalType": "uint256",
          "name": "amount",
          "type": "uint256"
        }
      ],
      "name": "PayoutIssued",
      "type": "event"
    },
    {
      "inputs": [
        {
          "internalType": "uint256",
          "name": "_claimId",
          "type": "uint256"
        },
        {
          "internalType": "address",
          "name": "claimant",
          "type": "address"
        }
      ],
      "name": "triggerPayout",
      "outputs": [],
      "stateMutability": "nonpayable",
      "type": "function"
    },
    {
      "inputs": [
        {
          "internalType": "address",
          "name": "user",
          "type": "address"
        },
        {
          "internalType": "uint256",
          "name": "_claimId",
          "type": "uint256"
        }
      ],
      "name": "calculatePayout",
      "outputs": [
        {
          "internalType": "uint256",
          "name": "",
          "type": "uint256"
        }
      ],
      "stateMutability": "view",
      "type": "function",
      "constant": true
    }
  ],
  "bytecode": "0x60806040523480156200001157600080fd5b50604051620013983803806200139883398181016040528101906200003791906200016c565b826000806101000a81548173ffffffffffffffffffffffffffffffffffffffff021916908373ffffffffffffffffffffffffffffffffffffffff16021790555081600160006101000a81548173ffffffffffffffffffffffffffffffffffffffff021916908373ffffffffffffffffffffffffffffffffffffffff16021790555080600260006101000a81548173ffffffffffffffffffffffffffffffffffffffff021916908373ffffffffffffffffffffffffffffffffffffffff160217905550505050620001c8565b600080fd5b600073ffffffffffffffffffffffffffffffffffffffff82169050919050565b6000620001348262000107565b9050919050565b620001468162000127565b81146200015257600080fd5b50565b60008151905062000166816200013b565b92915050565b60008060006060848603121562000188576200018762000102565b5b6000620001988682870162000155565b9350506020620001ab8682870162000155565b9250506040620001be8682870162000155565b9150509250925092565b6111c080620001d86000396000f3fe608060405234801561001057600080fd5b50600436106100365760003560e01c806328e31d341461003b578063319de5e11461006b575b600080fd5b6100556004803603810190610050919061078a565b610087565b60405161006291906107d9565b60405180910390f35b610085600480360381019061008091906107f4565b6102a8565b005b60008060008054906101000a900473ffffffffffffffffffffffffffffffffffffffff1673ffffffffffffffffffffffffffffffffffffffff16631f9327a7856040518263ffffffff1660e01b81526004016100e39190610843565b602060405180830381865afa158015610100573d6000803e3d6000fd5b505050506040513d601f19601f820116820180604052508101906101249190610873565b905060008111610169576040517f08c379a000000000000000000000000000000000000000000000000000000000815260040161016090610923565b60405180910390fd5b6000600160009054906101000a900473ffffffffffffffffffffffffffffffffffffffff1673ffffffffffffffffffffffffffffffffffffffff166365517832856040518263ffffffff1660e01b81526004016101c691906107d9565b600060405180830381865afa1580156101e3573d6000803e3d6000fd5b505050506040513d6000823e3d601f19601f8201168201806040525081019061020c9190610bc4565b985050505050505050506000600a836102259190610d65565b905060006002846102369190610d65565b90508183101580156102485750808311155b610287576040517f08c379a000000000000000000000000000000000000000000000000000000000815260040161027e90610e08565b60405180910390fd5b60008484116102965783610298565b845b9050809550505050505092915050565b600260009054906101000a900473ffffffffffffffffffffffffffffffffffffffff1673ffffffffffffffffffffffffffffffffffffffff166372a0b694336040518263ffffffff1660e01b81526004016103039190610843565b602060405180830381865afa158015610320573d6000803e3d6000fd5b505050506040513d601f19601f820116820180604052508101906103449190610e60565b8061039c5750600160009054906101000a900473ffffffffffffffffffffffffffffffffffffffff1673ffffffffffffffffffffffffffffffffffffffff163373ffffffffffffffffffffffffffffffffffffffff16145b6103db576040517f08c379a00000000000000000000000000000000000000000000000000000000081526004016103d290610eff565b60405180910390fd5b6103e581836103e9565b5050565b60008060009054906101000a900473ffffffffffffffffffffffffffffffffffffffff1673ffffffffffffffffffffffffffffffffffffffff1663abd70aa26040518163ffffffff1660e01b8152600401602060405180830381865afa158015610457573d6000803e3d6000fd5b505050506040513d601f19601f8201168201806040525081019061047b9190610873565b9050600081116104c0576040517f08c379a00000000000000000000000000000000000000000000000000000000081526004016104b790610f6b565b60405180910390fd5b60006104cc8484610087565b905060008111610511576040517f08c379a000000000000000000000000000000000000000000000000000000000815260040161050890610ffd565b60405180910390fd5b80821015610554576040517f08c379a000000000000000000000000000000000000000000000000000000000815260040161054b9061108f565b60405180910390fd5b60008473ffffffffffffffffffffffffffffffffffffffff168260405161057a906110e0565b60006040518083038185875af1925050503d80600081146105b7576040519150601f19603f3d011682016040523d82523d6000602084013e6105bc565b606091505b5050905080610600576040517f08c379a00000000000000000000000000000000000000000000000000000000081526004016105f790611141565b60405180910390fd5b60008054906101000a900473ffffffffffffffffffffffffffffffffffffffff1673ffffffffffffffffffffffffffffffffffffffff1663c2a44949836040518263ffffffff1660e01b815260040161065991906107d9565b600060405180830381600087803b15801561067357600080fd5b505af1158015610687573d6000803e3d6000fd5b505050508473ffffffffffffffffffffffffffffffffffffffff167f4c028a29bef0a15b89081608496decbbc962362ee3795fb80dd5e5f537fbe44685846040516106d3929190611161565b60405180910390a25050505050565b6000604051905090565b600080fd5b600080fd5b600073ffffffffffffffffffffffffffffffffffffffff82169050919050565b6000610721826106f6565b9050919050565b61073181610716565b811461073c57600080fd5b50565b60008135905061074e81610728565b92915050565b6000819050919050565b61076781610754565b811461077257600080fd5b50565b6000813590506107848161075e565b92915050565b600080604083850312156107a1576107a06106ec565b5b60006107af8582860161073f565b92505060206107c085828601610775565b9150509250929050565b6107d381610754565b82525050565b60006020820190506107ee60008301846107ca565b92915050565b6000806040838503121561080b5761080a6106ec565b5b600061081985828601610775565b925050602061082a8582860161073f565b9150509250929050565b61083d81610716565b82525050565b60006020820190506108586000830184610834565b92915050565b60008151905061086d8161075e565b92915050565b600060208284031215610889576108886106ec565b5b60006108978482850161085e565b91505092915050565b600082825260208201905092915050565b7f436f766572616765206c696d6974206d7573742062652067726561746572207460008201527f68616e207a65726f000000000000000000000000000000000000000000000000602082015250565b600061090d6028836108a0565b9150610918826108b1565b604082019050919050565b6000602082019050818103600083015261093c81610900565b9050919050565b60008151905061095281610728565b92915050565b600080fd5b600080fd5b6000601f19601f8301169050919050565b7f4e487b7100000000000000000000000000000000000000000000000000000000600052604160045260246000fd5b6109ab82610962565b810181811067ffffffffffffffff821117156109ca576109c9610973565b5b80604052505050565b60006109dd6106e2565b90506109e982826109a2565b919050565b600067ffffffffffffffff821115610a0957610a08610973565b5b610a1282610962565b9050602081019050919050565b60005b83811015610a3d578082015181840152602081019050610a22565b60008484015250505050565b6000610a5c610a57846109ee565b6109d3565b905082815260208101848484011115610a7857610a7761095d565b5b610a83848285610a1f565b509392505050565b600082601f830112610aa057610a9f610958565b5b8151610ab0848260208601610a49565b91505092915050565b60038110610ac657600080fd5b50565b600081519050610ad881610ab9565b92915050565b600067ffffffffffffffff821115610af957610af8610973565b5b602082029050602081019050919050565b600080fd5b6000610b22610b1d84610ade565b6109d3565b90508083825260208201905060208402830185811115610b4557610b44610b0a565b5b835b81811015610b8c57805167ffffffffffffffff811115610b6a57610b69610958565b5b808601610b778982610a8b565b85526020850194505050602081019050610b47565b5050509392505050565b600082601f830112610bab57610baa610958565b5b8151610bbb848260208601610b0f565b91505092915050565b60008060008060008060008060006101208a8c031215610be757610be66106ec565b5b6000610bf58c828d01610943565b99505060208a015167ffffffffffffffff811115610c1657610c156106f1565b5b610c228c828d01610a8b565b98505060408a015167ffffffffffffffff811115610c4357610c426106f1565b5b610c4f8c828d01610a8b565b97505060608a015167ffffffffffffffff811115610c7057610c6f6106f1565b5b610c7c8c828d01610a8b565b96505060808a015167ffffffffffffffff811115610c9d57610c9c6106f1565b5b610ca98c828d01610a8b565b95505060a0610cba8c828d01610ac9565b94505060c08a015167ffffffffffffffff811115610cdb57610cda6106f1565b5b610ce78c828d01610b96565b93505060e08a015167ffffffffffffffff811115610d0857610d076106f1565b5b610d148c828d01610b96565b925050610100610d268c828d0161085e565b9150509295985092959850929598565b7f4e487b7100000000000000000000000000000000000000000000000000000000600052601260045260246000fd5b6000610d7082610754565b9150610d7b83610754565b925082610d8b57610d8a610d36565b5b828204905092915050565b7f436c61696d20616d6f756e74206973206f75747369646520746865207072652d60008201527f617070726f7665642072616e6765000000000000000000000000000000000000602082015250565b6000610df2602e836108a0565b9150610dfd82610d96565b604082019050919050565b60006020820190508181036000830152610e2181610de5565b9050919050565b60008115159050919050565b610e3d81610e28565b8114610e4857600080fd5b50565b600081519050610e5a81610e34565b92915050565b600060208284031215610e7657610e756106ec565b5b6000610e8484828501610e4b565b91505092915050565b7f4163636573732064656e6965643a20556e617574686f72697a656420736f757260008201527f6365000000000000000000000000000000000000000000000000000000000000602082015250565b6000610ee96022836108a0565b9150610ef482610e8d565b604082019050919050565b60006020820190508181036000830152610f1881610edc565b9050919050565b7f496e73756666696369656e7420706f6f6c2062616c616e636500000000000000600082015250565b6000610f556019836108a0565b9150610f6082610f1f565b602082019050919050565b60006020820190508181036000830152610f8481610f48565b9050919050565b7f5061796f757420616d6f756e74206d757374206265206772656174657220746860008201527f616e207a65726f00000000000000000000000000000000000000000000000000602082015250565b6000610fe76027836108a0565b9150610ff282610f8b565b604082019050919050565b6000602082019050818103600083015261101681610fda565b9050919050565b7f496e73756666696369656e742066756e647320696e2074686520706f6f6c206660008201527f6f72207061796f75740000000000000000000000000000000000000000000000602082015250565b60006110796029836108a0565b91506110848261101d565b604082019050919050565b600060208201905081810360008301526110a88161106c565b9050919050565b600081905092915050565b50565b60006110ca6000836110af565b91506110d5826110ba565b600082019050919050565b60006110eb826110bd565b9150819050919050565b7f5061796f7574207472616e73666572206661696c656400000000000000000000600082015250565b600061112b6016836108a0565b9150611136826110f5565b602082019050919050565b6000602082019050818103600083015261115a8161111e565b9050919050565b600060408201905061117660008301856107ca565b61118360208301846107ca565b939250505056fea264697066735822122005284516f87e68a5cbe68c9cc5f9c5cc593f032bb82742715bb21b80e5ebd05c64736f6c63430008130033",
  "immutableReferences": {},
  "source": "// SPDX-License-Identifier: MIT\npragma solidity ^0.8.19;\n\nimport \"./PremiumCollection.sol\";\nimport \"./claims.sol\";\nimport \"./RoleManagement.sol\";\n\ncontract CarInsurancePayoutSystem {\n\n    PremiumCollection private premiumCollection;\n    CarInsuranceClaimSystem private carInsuranceClaimSystem;\n    RoleManagement private roleManagement;\n\n    event PayoutIssued(uint claimId, address indexed claimant, uint256 amount);\n\n    constructor(address _premiumCollectionAddress, address _carInsuranceClaimSystemAddress, address _roleManagementAddress) {\n        premiumCollection = PremiumCollection(_premiumCollectionAddress);\n        carInsuranceClaimSystem = CarInsuranceClaimSystem(_carInsuranceClaimSystemAddress);\n        roleManagement = RoleManagement(_roleManagementAddress);\n    }\n\n    modifier onlyAdmin() {\n        require(roleManagement._isInAdmins(msg.sender), \"Access denied: You are not an Admin\");\n        _;\n    }\n\n    function triggerPayout(uint _claimId, address claimant) external {\n        require(\n            roleManagement._isInAdmins(msg.sender) || msg.sender == address(carInsuranceClaimSystem), \n            \"Access denied: Unauthorized source\"\n        );\n        _payoutToUser(claimant, _claimId);\n    }\n\n    function _payoutToUser(address user, uint _claimId) internal {\n        uint256 poolBalance = premiumCollection.getPoolBalance();\n        require(poolBalance > 0, \"Insufficient pool balance\");\n\n        uint256 payoutAmount = calculatePayout(user, _claimId);\n        require(payoutAmount > 0, \"Payout amount must be greater than zero\");\n\n        require(poolBalance >= payoutAmount, \"Insufficient funds in the pool for payout\");\n        \n        (bool success, ) = payable(user).call{value: payoutAmount}(\"\");\n        require(success, \"Payout transfer failed\");\n\n        premiumCollection.decreasePoolBalance(payoutAmount);\n        \n        emit PayoutIssued(_claimId, user, payoutAmount);\n    }\n\n    function calculatePayout(address user, uint _claimId) public view returns (uint256) {\n        // Call to premiumCollection to get the coverage limit of the user\n        uint256 coverageLimit = premiumCollection.getUserCoverageLimit(user);\n        require(coverageLimit > 0, \"Coverage limit must be greater than zero\");\n        \n        // Extract claim details from CarInsuranceClaimSystem\n        (\n            , // Skip claimant\n            , // Skip name\n            , // Skip policy\n            , // Skip incidentDate\n            , // Skip details\n            , // Skip claim status\n            , // Skip cover\n            , // Skip ipfsHashes\n            uint256 claimAmount // Extract the claim amount (assuming it's returned as part of the data)\n        ) = carInsuranceClaimSystem.viewClaimStatus(_claimId);\n        \n        // Calculate the pre-approved payout range\n        uint256 minRange = coverageLimit / 10; // 10% of coverage limit\n        uint256 maxRange = coverageLimit / 2;  // 50% of coverage limit\n\n        // Check if the claim amount is within the range\n        require(claimAmount >= minRange && claimAmount <= maxRange, \"Claim amount is outside the pre-approved range\");\n        \n        // Calculate the payout amount\n        uint256 payoutAmount = claimAmount > coverageLimit ? coverageLimit : claimAmount; // Pay lesser of claim amount or coverage limit\n        return payoutAmount;\n    }\n}\n",
  "sourcePath": "/Users/doodee/CarInsuranceProject/contracts/payout.sol",
  "compiler": {
    "name": "solc",
    "version": "0.8.19+commit.7dd6d404.Emscripten.clang"
  },
  "schemaVersion": "3.4.16",
  "updatedAt": "2024-12-12T11:17:09.167Z",
  "networkType": "ethereum",
  "devdoc": {
    "kind": "dev",
    "methods": {},
    "version": 1
  },
  "userdoc": {
    "kind": "user",
    "methods": {},
    "version": 1
  }
}