{
  "contractName": "CarInsuranceClaimSystem",
  "abi": [
    {
      "inputs": [
        {
          "internalType": "address",
          "name": "_roleManagementAddress",
          "type": "address"
        },
        {
          "internalType": "address",
          "name": "_policyManagementAddress",
          "type": "address"
        }
      ],
      "stateMutability": "nonpayable",
      "type": "constructor"
    },
    {
      "anonymous": false,
      "inputs": [
        {
          "indexed": false,
          "internalType": "uint256",
          "name": "claimId",
          "type": "uint256"
        }
      ],
      "name": "ClaimApproved",
      "type": "event"
    },
    {
      "anonymous": false,
      "inputs": [
        {
          "indexed": false,
          "internalType": "uint256",
          "name": "claimId",
          "type": "uint256"
        }
      ],
      "name": "ClaimRejected",
      "type": "event"
    },
    {
      "anonymous": false,
      "inputs": [
        {
          "indexed": false,
          "internalType": "uint256",
          "name": "claimId",
          "type": "uint256"
        },
        {
          "indexed": true,
          "internalType": "address",
          "name": "claimant",
          "type": "address"
        },
        {
          "indexed": false,
          "internalType": "string",
          "name": "name",
          "type": "string"
        },
        {
          "indexed": false,
          "internalType": "string",
          "name": "policy",
          "type": "string"
        }
      ],
      "name": "ClaimSubmitted",
      "type": "event"
    },
    {
      "inputs": [],
      "name": "claimCount",
      "outputs": [
        {
          "internalType": "uint256",
          "name": "",
          "type": "uint256"
        }
      ],
      "stateMutability": "view",
      "type": "function",
      "constant": true
    },
    {
      "inputs": [
        {
          "internalType": "uint256",
          "name": "",
          "type": "uint256"
        }
      ],
      "name": "claims",
      "outputs": [
        {
          "internalType": "uint256",
          "name": "id",
          "type": "uint256"
        },
        {
          "internalType": "address",
          "name": "claimant",
          "type": "address"
        },
        {
          "internalType": "string",
          "name": "name",
          "type": "string"
        },
        {
          "internalType": "string",
          "name": "policy",
          "type": "string"
        },
        {
          "internalType": "string",
          "name": "incidentDate",
          "type": "string"
        },
        {
          "internalType": "string",
          "name": "details",
          "type": "string"
        },
        {
          "internalType": "enum CarInsuranceClaimSystem.ClaimStatus",
          "name": "status",
          "type": "uint8"
        },
        {
          "internalType": "uint256",
          "name": "timestamp",
          "type": "uint256"
        }
      ],
      "stateMutability": "view",
      "type": "function",
      "constant": true
    },
    {
      "inputs": [
        {
          "internalType": "string",
          "name": "",
          "type": "string"
        }
      ],
      "name": "uploadedHashes",
      "outputs": [
        {
          "internalType": "bool",
          "name": "",
          "type": "bool"
        }
      ],
      "stateMutability": "view",
      "type": "function",
      "constant": true
    },
    {
      "inputs": [
        {
          "internalType": "string",
          "name": "_name",
          "type": "string"
        },
        {
          "internalType": "string",
          "name": "_policy",
          "type": "string"
        },
        {
          "internalType": "string",
          "name": "_incidentDate",
          "type": "string"
        },
        {
          "internalType": "string",
          "name": "_details",
          "type": "string"
        },
        {
          "internalType": "string[]",
          "name": "_cover",
          "type": "string[]"
        },
        {
          "internalType": "string[]",
          "name": "_ipfsHashes",
          "type": "string[]"
        }
      ],
      "name": "submitClaim",
      "outputs": [],
      "stateMutability": "nonpayable",
      "type": "function"
    },
    {
      "inputs": [
        {
          "internalType": "uint256",
          "name": "_claimId",
          "type": "uint256"
        },
        {
          "internalType": "bool",
          "name": "_approvedStatus",
          "type": "bool"
        }
      ],
      "name": "reviewClaim",
      "outputs": [],
      "stateMutability": "nonpayable",
      "type": "function"
    },
    {
      "inputs": [
        {
          "internalType": "uint256",
          "name": "_claimId",
          "type": "uint256"
        }
      ],
      "name": "viewClaimStatus",
      "outputs": [
        {
          "internalType": "address",
          "name": "claimant",
          "type": "address"
        },
        {
          "internalType": "string",
          "name": "name",
          "type": "string"
        },
        {
          "internalType": "string",
          "name": "policy",
          "type": "string"
        },
        {
          "internalType": "string",
          "name": "incidentDate",
          "type": "string"
        },
        {
          "internalType": "string",
          "name": "details",
          "type": "string"
        },
        {
          "internalType": "enum CarInsuranceClaimSystem.ClaimStatus",
          "name": "status",
          "type": "uint8"
        },
        {
          "internalType": "string[]",
          "name": "cover",
          "type": "string[]"
        },
        {
          "internalType": "string[]",
          "name": "ipfsHashes",
          "type": "string[]"
        },
        {
          "internalType": "uint256",
          "name": "timestamp",
          "type": "uint256"
        }
      ],
      "stateMutability": "view",
      "type": "function",
      "constant": true
    }
  ],
  "bytecode": "0x60806040523480156200001157600080fd5b506040516200261b3803806200261b83398181016040528101906200003791906200012a565b816000806101000a81548173ffffffffffffffffffffffffffffffffffffffff021916908373ffffffffffffffffffffffffffffffffffffffff16021790555080600160006101000a81548173ffffffffffffffffffffffffffffffffffffffff021916908373ffffffffffffffffffffffffffffffffffffffff160217905550505062000171565b600080fd5b600073ffffffffffffffffffffffffffffffffffffffff82169050919050565b6000620000f282620000c5565b9050919050565b6200010481620000e5565b81146200011057600080fd5b50565b6000815190506200012481620000f9565b92915050565b60008060408385031215620001445762000143620000c0565b5b6000620001548582860162000113565b9250506020620001678582860162000113565b9150509250929050565b61249a80620001816000396000f3fe608060405234801561001057600080fd5b50600436106100625760003560e01c80631ef58520146100675780635cea3661146100835780636312fd9d146100b357806365517832146100cf5780638da4d3c914610107578063a888c2cd14610125575b600080fd5b610081600480360381019061007c9190611497565b61015c565b005b61009d6004803603810190610098919061161d565b61039d565b6040516100aa9190611675565b60405180910390f35b6100cd60048036038101906100c89190611776565b6103d3565b005b6100e960048036038101906100e491906118ab565b610b81565b6040516100fe99989796959493929190611b2a565b60405180910390f35b61010f6110a0565b60405161011c9190611be1565b60405180910390f35b61013f600480360381019061013a91906118ab565b6110a6565b604051610153989796959493929190611bfc565b60405180910390f35b60008054906101000a900473ffffffffffffffffffffffffffffffffffffffff1673ffffffffffffffffffffffffffffffffffffffff166372a0b694336040518263ffffffff1660e01b81526004016101b59190611c96565b602060405180830381865afa1580156101d2573d6000803e3d6000fd5b505050506040513d601f19601f820116820180604052508101906101f69190611cc6565b610235576040517f08c379a000000000000000000000000000000000000000000000000000000000815260040161022c90611d3f565b60405180910390fd5b6000600260008481526020019081526020016000209050600060028111156102605761025f611998565b5b8160060160009054906101000a900460ff16600281111561028457610283611998565b5b146102c4576040517f08c379a00000000000000000000000000000000000000000000000000000000081526004016102bb90611dab565b60405180910390fd5b81156103335760018160060160006101000a81548160ff021916908360028111156102f2576102f1611998565b5b02179055507fd2d0ed0cccc8615643ade1eff3929a29ed8df75ebca85a3996e311c9b69e2289836040516103269190611be1565b60405180910390a1610398565b60028160060160006101000a81548160ff0219169083600281111561035b5761035a611998565b5b02179055507f2aa44a1bb19392ef6a2fd220d2b1649a6dc1bebbfa2a6f2c496e2d39a3339d0e8360405161038f9190611be1565b60405180910390a15b505050565b6004818051602081018201805184825260208301602085012081835280955050505050506000915054906101000a900460ff1681565b60008054906101000a900473ffffffffffffffffffffffffffffffffffffffff1673ffffffffffffffffffffffffffffffffffffffff16635ed721f7336040518263ffffffff1660e01b815260040161042c9190611c96565b602060405180830381865afa158015610449573d6000803e3d6000fd5b505050506040513d601f19601f8201168201806040525081019061046d9190611cc6565b6104ac576040517f08c379a00000000000000000000000000000000000000000000000000000000081526004016104a390611e17565b60405180910390fd5b60008651116104f0576040517f08c379a00000000000000000000000000000000000000000000000000000000081526004016104e790611e83565b60405180910390fd5b6000855111610534576040517f08c379a000000000000000000000000000000000000000000000000000000000815260040161052b90611eef565b60405180910390fd5b6000825111610578576040517f08c379a000000000000000000000000000000000000000000000000000000000815260040161056f90611f5b565b60405180910390fd5b60008151116105bc576040517f08c379a00000000000000000000000000000000000000000000000000000000081526004016105b390611fc7565b60405180910390fd5b60005b81518110156108245760048282815181106105dd576105dc611fe7565b5b60200260200101516040516105f29190612052565b908152602001604051809103902060009054906101000a900460ff1615610811576003600081548092919061062690612098565b919050555060405180610140016040528060035481526020013373ffffffffffffffffffffffffffffffffffffffff16815260200188815260200187815260200186815260200185815260200160028081111561068657610685611998565b5b8152602001848152602001838152602001428152506002600060035481526020019081526020016000206000820151816000015560208201518160010160006101000a81548173ffffffffffffffffffffffffffffffffffffffff021916908373ffffffffffffffffffffffffffffffffffffffff160217905550604082015181600201908161071691906122ec565b50606082015181600301908161072c91906122ec565b50608082015181600401908161074291906122ec565b5060a082015181600501908161075891906122ec565b5060c08201518160060160006101000a81548160ff0219169083600281111561078457610783611998565b5b021790555060e08201518160070190805190602001906107a592919061133b565b506101008201518160080190805190602001906107c392919061133b565b5061012082015181600901559050507f2aa44a1bb19392ef6a2fd220d2b1649a6dc1bebbfa2a6f2c496e2d39a3339d0e6003546040516108039190611be1565b60405180910390a150610b79565b808061081c90612098565b9150506105bf565b506003600081548092919061083890612098565b91905055506000805b835181101561090a576040516020016108599061240a565b6040516020818303038152906040528051906020012084828151811061088257610881611fe7565b5b602002602001015160405160200161089a9190612052565b60405160208183030381529060405280519060200120036108f757600191507fd2d0ed0cccc8615643ade1eff3929a29ed8df75ebca85a3996e311c9b69e22896003546040516108ea9190611be1565b60405180910390a161090a565b808061090290612098565b915050610841565b5060405180610140016040528060035481526020013373ffffffffffffffffffffffffffffffffffffffff16815260200188815260200187815260200186815260200185815260200182600281111561096657610965611998565b5b8152602001848152602001838152602001428152506002600060035481526020019081526020016000206000820151816000015560208201518160010160006101000a81548173ffffffffffffffffffffffffffffffffffffffff021916908373ffffffffffffffffffffffffffffffffffffffff16021790555060408201518160020190816109f691906122ec565b506060820151816003019081610a0c91906122ec565b506080820151816004019081610a2291906122ec565b5060a0820151816005019081610a3891906122ec565b5060c08201518160060160006101000a81548160ff02191690836002811115610a6457610a63611998565b5b021790555060e0820151816007019080519060200190610a8592919061133b565b50610100820151816008019080519060200190610aa392919061133b565b50610120820151816009015590505060005b8251811015610b225760016004848381518110610ad557610ad4611fe7565b5b6020026020010151604051610aea9190612052565b908152602001604051809103902060006101000a81548160ff0219169083151502179055508080610b1a90612098565b915050610ab5565b503373ffffffffffffffffffffffffffffffffffffffff167f94b7db94c344c8d6ab916144332c1b921c5e2f06b533a11deb549a3637687ba76003548989604051610b6f9392919061241f565b60405180910390a2505b505050505050565b60006060806060806000606080600080600260008c815260200190815260200160002060405180610140016040529081600082015481526020016001820160009054906101000a900473ffffffffffffffffffffffffffffffffffffffff1673ffffffffffffffffffffffffffffffffffffffff1673ffffffffffffffffffffffffffffffffffffffff168152602001600282018054610c209061210f565b80601f0160208091040260200160405190810160405280929190818152602001828054610c4c9061210f565b8015610c995780601f10610c6e57610100808354040283529160200191610c99565b820191906000526020600020905b815481529060010190602001808311610c7c57829003601f168201915b50505050508152602001600382018054610cb29061210f565b80601f0160208091040260200160405190810160405280929190818152602001828054610cde9061210f565b8015610d2b5780601f10610d0057610100808354040283529160200191610d2b565b820191906000526020600020905b815481529060010190602001808311610d0e57829003601f168201915b50505050508152602001600482018054610d449061210f565b80601f0160208091040260200160405190810160405280929190818152602001828054610d709061210f565b8015610dbd5780601f10610d9257610100808354040283529160200191610dbd565b820191906000526020600020905b815481529060010190602001808311610da057829003601f168201915b50505050508152602001600582018054610dd69061210f565b80601f0160208091040260200160405190810160405280929190818152602001828054610e029061210f565b8015610e4f5780601f10610e2457610100808354040283529160200191610e4f565b820191906000526020600020905b815481529060010190602001808311610e3257829003601f168201915b505050505081526020016006820160009054906101000a900460ff166002811115610e7d57610e7c611998565b5b6002811115610e8f57610e8e611998565b5b815260200160078201805480602002602001604051908101604052809291908181526020016000905b82821015610f64578382906000526020600020018054610ed79061210f565b80601f0160208091040260200160405190810160405280929190818152602001828054610f039061210f565b8015610f505780601f10610f2557610100808354040283529160200191610f50565b820191906000526020600020905b815481529060010190602001808311610f3357829003601f168201915b505050505081526020019060010190610eb8565b50505050815260200160088201805480602002602001604051908101604052809291908181526020016000905b8282101561103d578382906000526020600020018054610fb09061210f565b80601f0160208091040260200160405190810160405280929190818152602001828054610fdc9061210f565b80156110295780601f10610ffe57610100808354040283529160200191611029565b820191906000526020600020905b81548152906001019060200180831161100c57829003601f168201915b505050505081526020019060010190610f91565b505050508152602001600982015481525050905080602001518160400151826060015183608001518460a001518560c001518660e00151876101000151886101200151995099509950995099509950995099509950509193959799909294969850565b60035481565b60026020528060005260406000206000915090508060000154908060010160009054906101000a900473ffffffffffffffffffffffffffffffffffffffff16908060020180546110f59061210f565b80601f01602080910402602001604051908101604052809291908181526020018280546111219061210f565b801561116e5780601f106111435761010080835404028352916020019161116e565b820191906000526020600020905b81548152906001019060200180831161115157829003601f168201915b5050505050908060030180546111839061210f565b80601f01602080910402602001604051908101604052809291908181526020018280546111af9061210f565b80156111fc5780601f106111d1576101008083540402835291602001916111fc565b820191906000526020600020905b8154815290600101906020018083116111df57829003601f168201915b5050505050908060040180546112119061210f565b80601f016020809104026020016040519081016040528092919081815260200182805461123d9061210f565b801561128a5780601f1061125f5761010080835404028352916020019161128a565b820191906000526020600020905b81548152906001019060200180831161126d57829003601f168201915b50505050509080600501805461129f9061210f565b80601f01602080910402602001604051908101604052809291908181526020018280546112cb9061210f565b80156113185780601f106112ed57610100808354040283529160200191611318565b820191906000526020600020905b8154815290600101906020018083116112fb57829003601f168201915b5050505050908060060160009054906101000a900460ff16908060090154905088565b828054828255906000526020600020908101928215611383579160200282015b8281111561138257825182908161137291906122ec565b509160200191906001019061135b565b5b5090506113909190611394565b5090565b5b808211156113b457600081816113ab91906113b8565b50600101611395565b5090565b5080546113c49061210f565b6000825580601f106113d657506113f5565b601f0160209004906000526020600020908101906113f491906113f8565b5b50565b5b808211156114115760008160009055506001016113f9565b5090565b6000604051905090565b600080fd5b600080fd5b6000819050919050565b61143c81611429565b811461144757600080fd5b50565b60008135905061145981611433565b92915050565b60008115159050919050565b6114748161145f565b811461147f57600080fd5b50565b6000813590506114918161146b565b92915050565b600080604083850312156114ae576114ad61141f565b5b60006114bc8582860161144a565b92505060206114cd85828601611482565b9150509250929050565b600080fd5b600080fd5b6000601f19601f8301169050919050565b7f4e487b7100000000000000000000000000000000000000000000000000000000600052604160045260246000fd5b61152a826114e1565b810181811067ffffffffffffffff82111715611549576115486114f2565b5b80604052505050565b600061155c611415565b90506115688282611521565b919050565b600067ffffffffffffffff821115611588576115876114f2565b5b611591826114e1565b9050602081019050919050565b82818337600083830152505050565b60006115c06115bb8461156d565b611552565b9050828152602081018484840111156115dc576115db6114dc565b5b6115e784828561159e565b509392505050565b600082601f830112611604576116036114d7565b5b81356116148482602086016115ad565b91505092915050565b6000602082840312156116335761163261141f565b5b600082013567ffffffffffffffff81111561165157611650611424565b5b61165d848285016115ef565b91505092915050565b61166f8161145f565b82525050565b600060208201905061168a6000830184611666565b92915050565b600067ffffffffffffffff8211156116ab576116aa6114f2565b5b602082029050602081019050919050565b600080fd5b60006116d46116cf84611690565b611552565b905080838252602082019050602084028301858111156116f7576116f66116bc565b5b835b8181101561173e57803567ffffffffffffffff81111561171c5761171b6114d7565b5b80860161172989826115ef565b855260208501945050506020810190506116f9565b5050509392505050565b600082601f83011261175d5761175c6114d7565b5b813561176d8482602086016116c1565b91505092915050565b60008060008060008060c087890312156117935761179261141f565b5b600087013567ffffffffffffffff8111156117b1576117b0611424565b5b6117bd89828a016115ef565b965050602087013567ffffffffffffffff8111156117de576117dd611424565b5b6117ea89828a016115ef565b955050604087013567ffffffffffffffff81111561180b5761180a611424565b5b61181789828a016115ef565b945050606087013567ffffffffffffffff81111561183857611837611424565b5b61184489828a016115ef565b935050608087013567ffffffffffffffff81111561186557611864611424565b5b61187189828a01611748565b92505060a087013567ffffffffffffffff81111561189257611891611424565b5b61189e89828a01611748565b9150509295509295509295565b6000602082840312156118c1576118c061141f565b5b60006118cf8482850161144a565b91505092915050565b600073ffffffffffffffffffffffffffffffffffffffff82169050919050565b6000611903826118d8565b9050919050565b611913816118f8565b82525050565b600081519050919050565b600082825260208201905092915050565b60005b83811015611953578082015181840152602081019050611938565b60008484015250505050565b600061196a82611919565b6119748185611924565b9350611984818560208601611935565b61198d816114e1565b840191505092915050565b7f4e487b7100000000000000000000000000000000000000000000000000000000600052602160045260246000fd5b600381106119d8576119d7611998565b5b50565b60008190506119e9826119c7565b919050565b60006119f9826119db565b9050919050565b611a09816119ee565b82525050565b600081519050919050565b600082825260208201905092915050565b6000819050602082019050919050565b600082825260208201905092915050565b6000611a5782611919565b611a618185611a3b565b9350611a71818560208601611935565b611a7a816114e1565b840191505092915050565b6000611a918383611a4c565b905092915050565b6000602082019050919050565b6000611ab182611a0f565b611abb8185611a1a565b935083602082028501611acd85611a2b565b8060005b85811015611b095784840389528151611aea8582611a85565b9450611af583611a99565b925060208a01995050600181019050611ad1565b50829750879550505050505092915050565b611b2481611429565b82525050565b600061012082019050611b40600083018c61190a565b8181036020830152611b52818b61195f565b90508181036040830152611b66818a61195f565b90508181036060830152611b7a818961195f565b90508181036080830152611b8e818861195f565b9050611b9d60a0830187611a00565b81810360c0830152611baf8186611aa6565b905081810360e0830152611bc38185611aa6565b9050611bd3610100830184611b1b565b9a9950505050505050505050565b6000602082019050611bf66000830184611b1b565b92915050565b600061010082019050611c12600083018b611b1b565b611c1f602083018a61190a565b8181036040830152611c31818961195f565b90508181036060830152611c45818861195f565b90508181036080830152611c59818761195f565b905081810360a0830152611c6d818661195f565b9050611c7c60c0830185611a00565b611c8960e0830184611b1b565b9998505050505050505050565b6000602082019050611cab600083018461190a565b92915050565b600081519050611cc08161146b565b92915050565b600060208284031215611cdc57611cdb61141f565b5b6000611cea84828501611cb1565b91505092915050565b7f4163636573732064656e6965643a20596f7520617265206e6f742041646d696e600082015250565b6000611d29602083611924565b9150611d3482611cf3565b602082019050919050565b60006020820190508181036000830152611d5881611d1c565b9050919050565b7f436c61696d206973206e6f7420696e2070656e64696e67207374617465000000600082015250565b6000611d95601d83611924565b9150611da082611d5f565b602082019050919050565b60006020820190508181036000830152611dc481611d88565b9050919050565b7f4163636573732064656e6965643a20596f7520617265206e6f74205573657273600082015250565b6000611e01602083611924565b9150611e0c82611dcb565b602082019050919050565b60006020820190508181036000830152611e3081611df4565b9050919050565b7f4e616d652063616e6e6f7420626520656d707479000000000000000000000000600082015250565b6000611e6d601483611924565b9150611e7882611e37565b602082019050919050565b60006020820190508181036000830152611e9c81611e60565b9050919050565b7f506f6c6963792063616e6e6f7420626520656d70747900000000000000000000600082015250565b6000611ed9601683611924565b9150611ee482611ea3565b602082019050919050565b60006020820190508181036000830152611f0881611ecc565b9050919050565b7f436f7665722063616e6e6f7420626520656d7074790000000000000000000000600082015250565b6000611f45601583611924565b9150611f5082611f0f565b602082019050919050565b60006020820190508181036000830152611f7481611f38565b9050919050565b7f4e6f2049504653206861736865732070726f7669646564000000000000000000600082015250565b6000611fb1601783611924565b9150611fbc82611f7b565b602082019050919050565b60006020820190508181036000830152611fe081611fa4565b9050919050565b7f4e487b7100000000000000000000000000000000000000000000000000000000600052603260045260246000fd5b600081905092915050565b600061202c82611919565b6120368185612016565b9350612046818560208601611935565b80840191505092915050565b600061205e8284612021565b915081905092915050565b7f4e487b7100000000000000000000000000000000000000000000000000000000600052601160045260246000fd5b60006120a382611429565b91507fffffffffffffffffffffffffffffffffffffffffffffffffffffffffffffffff82036120d5576120d4612069565b5b600182019050919050565b7f4e487b7100000000000000000000000000000000000000000000000000000000600052602260045260246000fd5b6000600282049050600182168061212757607f821691505b60208210810361213a576121396120e0565b5b50919050565b60008190508160005260206000209050919050565b60006020601f8301049050919050565b600082821b905092915050565b6000600883026121a27fffffffffffffffffffffffffffffffffffffffffffffffffffffffffffffffff82612165565b6121ac8683612165565b95508019841693508086168417925050509392505050565b6000819050919050565b60006121e96121e46121df84611429565b6121c4565b611429565b9050919050565b6000819050919050565b612203836121ce565b61221761220f826121f0565b848454612172565b825550505050565b600090565b61222c61221f565b6122378184846121fa565b505050565b5b8181101561225b57612250600082612224565b60018101905061223d565b5050565b601f8211156122a05761227181612140565b61227a84612155565b81016020851015612289578190505b61229d61229585612155565b83018261223c565b50505b505050565b600082821c905092915050565b60006122c3600019846008026122a5565b1980831691505092915050565b60006122dc83836122b2565b9150826002028217905092915050565b6122f582611919565b67ffffffffffffffff81111561230e5761230d6114f2565b5b612318825461210f565b61232382828561225f565b600060209050601f8311600181146123565760008415612344578287015190505b61234e85826122d0565b8655506123b6565b601f19841661236486612140565b60005b8281101561238c57848901518255600182019150602085019450602081019050612367565b868310156123a957848901516123a5601f8916826122b2565b8355505b6001600288020188555050505b505050505050565b7f4f776e2044616d61676500000000000000000000000000000000000000000000600082015250565b60006123f4600a83612016565b91506123ff826123be565b600a82019050919050565b6000612415826123e7565b9150819050919050565b60006060820190506124346000830186611b1b565b8181036020830152612446818561195f565b9050818103604083015261245a818461195f565b905094935050505056fea2646970667358221220a6c9f9a4675e32d3fc6f619c6f0f1672bf46ac856ef5ab0d379d0174a6c4603b64736f6c63430008130033",
  "immutableReferences": {},
  "source": "// SPDX-License-Identifier: MIT\npragma solidity ^0.8.19;\n\nimport \"./RoleManagement.sol\";\nimport \"./PolicyManagement.sol\";\n\ncontract CarInsuranceClaimSystem {\n\n    RoleManagement roleManagement;\n    PolicyManagement policyManagement;\n\n    enum ClaimStatus { Pending, Approved, Rejected } // \n\n    struct Claim {\n        uint id; // \n        address claimant; // \n        string name; // \n        string policy; // \n        string incidentDate; // \n        string details; // \n        ClaimStatus status; // Pending, Approved, Rejected\n        string[] cover; //  ( \"Own Damage\", \"Theft\", etc.)\n        string[] ipfsHashes; // Array  IPFS Hash \n        uint timestamp; // \n    }\n\n    mapping(uint => Claim) public claims; // \n    uint public claimCount; // \n    mapping(string => bool) public uploadedHashes; //  Hash \n\n    event ClaimSubmitted(uint claimId, address indexed claimant, string name, string policy);\n    event ClaimRejected(uint claimId); // Event \n    event ClaimApproved(uint claimId); // Event \n\n\n    constructor(address _roleManagementAddress, address _policyManagementAddress) {\n        roleManagement = RoleManagement(_roleManagementAddress);\n        policyManagement = PolicyManagement(_policyManagementAddress);\n    }\n\n    /// @notice  IPFS Hash\n    function submitClaim(\n        string memory _name,\n        string memory _policy,\n        string memory _incidentDate,\n        string memory _details,\n        string[] memory _cover,\n        string[] memory _ipfsHashes\n    ) public {\n        require(\n            roleManagement._isInUsers(msg.sender),\n            \"Access denied: You are not Users\"\n        );\n        require(bytes(_name).length > 0, \"Name cannot be empty\");\n        require(bytes(_policy).length > 0, \"Policy cannot be empty\");\n        require(_cover.length > 0, \"Cover cannot be empty\");\n        require(_ipfsHashes.length > 0, \"No IPFS hashes provided\");\n\n        //  Hash \n        for (uint i = 0; i < _ipfsHashes.length; i++) {\n            if (uploadedHashes[_ipfsHashes[i]]) {\n                claimCount++;\n                claims[claimCount] = Claim({\n                    id: claimCount,\n                    claimant: msg.sender,\n                    name: _name,\n                    policy: _policy,\n                    incidentDate: _incidentDate,\n                    details: _details,\n                    status: ClaimStatus.Rejected, // \n                    cover: _cover,\n                    ipfsHashes: _ipfsHashes,\n                    timestamp: block.timestamp\n                });\n\n                emit ClaimRejected(claimCount);\n                return;\n            }\n        }\n\n        //  claimCount \n        claimCount++;\n        ClaimStatus initialStatus = ClaimStatus.Pending; // \n\n        //  \"Own Damage\"  Cover \n        for (uint i = 0; i < _cover.length; i++) {\n            if (keccak256(abi.encodePacked(_cover[i])) == keccak256(abi.encodePacked(\"Own Damage\"))) {\n                initialStatus = ClaimStatus.Approved; //  Approved\n                emit ClaimApproved(claimCount); //  Event \n                break;\n            }\n        }\n\n        // \n        claims[claimCount] = Claim({\n            id: claimCount,\n            claimant: msg.sender,\n            name: _name,\n            policy: _policy,\n            incidentDate: _incidentDate,\n            details: _details,\n            status: initialStatus, //  initialStatus\n            cover: _cover,\n            ipfsHashes: _ipfsHashes,\n            timestamp: block.timestamp\n        });\n\n        //  Hash \n        for (uint i = 0; i < _ipfsHashes.length; i++) {\n            uploadedHashes[_ipfsHashes[i]] = true;\n        }\n\n        emit ClaimSubmitted(claimCount, msg.sender, _name, _policy);\n    }\n\n    /// @notice \n    function reviewClaim(\n        uint _claimId,\n        bool _approvedStatus\n    ) public  {\n        require(\n            roleManagement._isInAdmins(msg.sender),\n            \"Access denied: You are not Admin\"\n        );\n        Claim storage claim = claims[_claimId];\n        require(claim.status == ClaimStatus.Pending, \"Claim is not in pending state\");\n\n        if (_approvedStatus) {\n            claim.status = ClaimStatus.Approved;\n            emit ClaimApproved(_claimId);\n        } else {\n            claim.status = ClaimStatus.Rejected;\n            emit ClaimRejected(_claimId);\n        }\n    }\n\n    /// @notice View claim status\n    function viewClaimStatus(uint _claimId)\n        public\n        view\n        returns (\n            address claimant,\n            string memory name,\n            string memory policy,\n            string memory incidentDate,\n            string memory details,\n            ClaimStatus status,\n            string[] memory cover,\n            string[] memory ipfsHashes,\n            uint timestamp\n        )\n    {\n        Claim memory claim = claims[_claimId];\n        return (\n            claim.claimant,\n            claim.name,\n            claim.policy,\n            claim.incidentDate,\n            claim.details,\n            claim.status,\n            claim.cover,\n            claim.ipfsHashes,\n            claim.timestamp\n        );\n    }\n}",
  "sourcePath": "/Users/doodee/CarInsuranceProject/contracts/claims.sol",
  "compiler": {
    "name": "solc",
    "version": "0.8.19+commit.7dd6d404.Emscripten.clang"
  },
  "schemaVersion": "3.4.16",
  "updatedAt": "2024-12-12T07:15:32.140Z",
  "networkType": "ethereum",
  "devdoc": {
    "kind": "dev",
    "methods": {},
    "version": 1
  },
  "userdoc": {
    "kind": "user",
    "methods": {
      "reviewClaim(uint256,bool)": {
        "notice": ""
      },
      "submitClaim(string,string,string,string,string[],string[])": {
        "notice": " IPFS Hash"
      },
      "viewClaimStatus(uint256)": {
        "notice": "View claim status"
      }
    },
    "version": 1
  }
}