{
  "contractName": "CarInsuranceClaimProcessing",
  "abi": [
    {
      "inputs": [],
      "stateMutability": "nonpayable",
      "type": "constructor"
    },
    {
      "anonymous": false,
      "inputs": [
        {
          "indexed": false,
          "internalType": "uint256",
          "name": "claimId",
          "type": "uint256"
        },
        {
          "indexed": false,
          "internalType": "bool",
          "name": "approved",
          "type": "bool"
        },
        {
          "indexed": false,
          "internalType": "string",
          "name": "rejectionReason",
          "type": "string"
        }
      ],
      "name": "ClaimEvaluated",
      "type": "event"
    },
    {
      "anonymous": false,
      "inputs": [
        {
          "indexed": false,
          "internalType": "uint256",
          "name": "claimId",
          "type": "uint256"
        },
        {
          "indexed": true,
          "internalType": "address",
          "name": "policyholder",
          "type": "address"
        }
      ],
      "name": "ClaimSubmitted",
      "type": "event"
    },
    {
      "inputs": [],
      "name": "claimCount",
      "outputs": [
        {
          "internalType": "uint256",
          "name": "",
          "type": "uint256"
        }
      ],
      "stateMutability": "view",
      "type": "function",
      "constant": true
    },
    {
      "inputs": [
        {
          "internalType": "uint256",
          "name": "",
          "type": "uint256"
        }
      ],
      "name": "claims",
      "outputs": [
        {
          "internalType": "uint256",
          "name": "id",
          "type": "uint256"
        },
        {
          "internalType": "address",
          "name": "policyholder",
          "type": "address"
        },
        {
          "internalType": "string",
          "name": "accidentDetails",
          "type": "string"
        },
        {
          "internalType": "bool",
          "name": "processed",
          "type": "bool"
        },
        {
          "internalType": "bool",
          "name": "approved",
          "type": "bool"
        },
        {
          "internalType": "string",
          "name": "rejectionReason",
          "type": "string"
        },
        {
          "internalType": "uint256",
          "name": "damageAmount",
          "type": "uint256"
        }
      ],
      "stateMutability": "view",
      "type": "function",
      "constant": true
    },
    {
      "inputs": [
        {
          "internalType": "string",
          "name": "_accidentDetails",
          "type": "string"
        },
        {
          "internalType": "uint256",
          "name": "_damageAmount",
          "type": "uint256"
        }
      ],
      "name": "submitClaim",
      "outputs": [],
      "stateMutability": "nonpayable",
      "type": "function"
    },
    {
      "inputs": [
        {
          "internalType": "uint256",
          "name": "_claimId",
          "type": "uint256"
        }
      ],
      "name": "evaluateClaim",
      "outputs": [],
      "stateMutability": "nonpayable",
      "type": "function"
    },
    {
      "inputs": [
        {
          "internalType": "uint256",
          "name": "_claimId",
          "type": "uint256"
        }
      ],
      "name": "approveClaim",
      "outputs": [],
      "stateMutability": "nonpayable",
      "type": "function"
    },
    {
      "inputs": [
        {
          "internalType": "uint256",
          "name": "_claimId",
          "type": "uint256"
        },
        {
          "internalType": "string",
          "name": "_reason",
          "type": "string"
        }
      ],
      "name": "rejectClaim",
      "outputs": [],
      "stateMutability": "nonpayable",
      "type": "function"
    },
    {
      "inputs": [
        {
          "internalType": "uint256",
          "name": "_claimId",
          "type": "uint256"
        }
      ],
      "name": "isClaimProcessed",
      "outputs": [
        {
          "internalType": "bool",
          "name": "",
          "type": "bool"
        }
      ],
      "stateMutability": "view",
      "type": "function",
      "constant": true
    },
    {
      "inputs": [
        {
          "internalType": "uint256",
          "name": "_claimId",
          "type": "uint256"
        }
      ],
      "name": "isClaimApproved",
      "outputs": [
        {
          "internalType": "bool",
          "name": "",
          "type": "bool"
        }
      ],
      "stateMutability": "view",
      "type": "function",
      "constant": true
    },
    {
      "inputs": [
        {
          "internalType": "uint256",
          "name": "_claimId",
          "type": "uint256"
        }
      ],
      "name": "getClaimRejectionReason",
      "outputs": [
        {
          "internalType": "string",
          "name": "",
          "type": "string"
        }
      ],
      "stateMutability": "view",
      "type": "function",
      "constant": true
    },
    {
      "inputs": [
        {
          "internalType": "uint256",
          "name": "_claimId",
          "type": "uint256"
        }
      ],
      "name": "getClaimDamageAmount",
      "outputs": [
        {
          "internalType": "uint256",
          "name": "",
          "type": "uint256"
        }
      ],
      "stateMutability": "view",
      "type": "function",
      "constant": true
    },
    {
      "inputs": [
        {
          "internalType": "uint256",
          "name": "_claimId",
          "type": "uint256"
        }
      ],
      "name": "viewClaimStatus",
      "outputs": [
        {
          "internalType": "bool",
          "name": "processed",
          "type": "bool"
        },
        {
          "internalType": "bool",
          "name": "approved",
          "type": "bool"
        },
        {
          "internalType": "string",
          "name": "reason",
          "type": "string"
        },
        {
          "internalType": "uint256",
          "name": "damageAmount",
          "type": "uint256"
        }
      ],
      "stateMutability": "view",
      "type": "function",
      "constant": true
    }
  ],
  "bytecode": "0x608060405234801561001057600080fd5b50600060018190555061125e806100286000396000f3fe608060405234801561001057600080fd5b50600436106100a95760003560e01c80637ef955f8116100715780637ef955f8146101515780638da4d3c914610181578063a49b3a411461019f578063a888c2cd146101cf578063bdd084d014610205578063c526ee9714610235576100a9565b80633577a5ad146100ae5780633b23ed20146100ca57806346e30135146100e657806365517832146101025780637448bbe914610135575b600080fd5b6100c860048036038101906100c39190610ce3565b610265565b005b6100e460048036038101906100df9190610c66565b610323565b005b61010060048036038101906100fb9190610cba565b6104db565b005b61011c60048036038101906101179190610cba565b61056e565b60405161012c9493929190610e78565b60405180910390f35b61014f600480360381019061014a9190610cba565b61077d565b005b61016b60048036038101906101669190610cba565b610896565b6040516101789190610f06565b60405180910390f35b6101896108b5565b6040516101969190610f06565b60405180910390f35b6101b960048036038101906101b49190610cba565b6108bb565b6040516101c69190610ec4565b60405180910390f35b6101e960048036038101906101e49190610cba565b610962565b6040516101fc9796959493929190610f21565b60405180910390f35b61021f600480360381019061021a9190610cba565b610aee565b60405161022c9190610e5d565b60405180910390f35b61024f600480360381019061024a9190610cba565b610b1a565b60405161025c9190610e5d565b60405180910390f35b60008083815260200190815260200160002060030160009054906101000a900460ff166102c7576040517f08c379a00000000000000000000000000000000000000000000000000000000081526004016102be90610ee6565b60405180910390fd5b600080600084815260200190815260200160002060030160016101000a81548160ff02191690831515021790555080600080848152602001908152602001600020600401908051906020019061031e929190610b46565b505050565b600160008154809291906103369061112a565b91905055506040518060e0016040528060015481526020013373ffffffffffffffffffffffffffffffffffffffff1681526020018381526020016000151581526020016000151581526020016040518060200160405280600081525081526020018281525060008060015481526020019081526020016000206000820151816000015560208201518160010160006101000a81548173ffffffffffffffffffffffffffffffffffffffff021916908373ffffffffffffffffffffffffffffffffffffffff160217905550604082015181600201908051906020019061041c929190610b46565b5060608201518160030160006101000a81548160ff02191690831515021790555060808201518160030160016101000a81548160ff02191690831515021790555060a0820151816004019080519060200190610479929190610b46565b5060c082015181600501559050503373ffffffffffffffffffffffffffffffffffffffff167f4dfa1d399fc3d748dfe023239c274bdaa380853d97eec367121715b4659d7fdb6001546040516104cf9190610f06565b60405180910390a25050565b60008082815260200190815260200160002060030160009054906101000a900460ff1661053d576040517f08c379a000000000000000000000000000000000000000000000000000000000815260040161053490610ee6565b60405180910390fd5b600160008083815260200190815260200160002060030160016101000a81548160ff02191690831515021790555050565b60008060606000806000808781526020019081526020016000206040518060e0016040529081600082015481526020016001820160009054906101000a900473ffffffffffffffffffffffffffffffffffffffff1673ffffffffffffffffffffffffffffffffffffffff1673ffffffffffffffffffffffffffffffffffffffff168152602001600282018054610603906110f8565b80601f016020809104026020016040519081016040528092919081815260200182805461062f906110f8565b801561067c5780601f106106515761010080835404028352916020019161067c565b820191906000526020600020905b81548152906001019060200180831161065f57829003601f168201915b505050505081526020016003820160009054906101000a900460ff161515151581526020016003820160019054906101000a900460ff161515151581526020016004820180546106cb906110f8565b80601f01602080910402602001604051908101604052809291908181526020018280546106f7906110f8565b80156107445780601f1061071957610100808354040283529160200191610744565b820191906000526020600020905b81548152906001019060200180831161072757829003601f168201915b505050505081526020016005820154815250509050806060015181608001518260a001518360c001519450945094509450509193509193565b600060019050600160008084815260200190815260200160002060030160006101000a81548160ff0219169083151502179055508060008084815260200190815260200160002060030160016101000a81548160ff02191690831515021790555080610843576040518060400160405280601581526020017f496e73756666696369656e742065766964656e636500000000000000000000008152506000808481526020019081526020016000206004019080519060200190610841929190610b46565b505b7f551e3468421e0c32a73d54c6e099497d84478d8c6446f402380841eae4ec630e828260008086815260200190815260200160002060040160405161088a93929190610f9e565b60405180910390a15050565b6000806000838152602001908152602001600020600501549050919050565b60015481565b606060008083815260200190815260200160002060040180546108dd906110f8565b80601f0160208091040260200160405190810160405280929190818152602001828054610909906110f8565b80156109565780601f1061092b57610100808354040283529160200191610956565b820191906000526020600020905b81548152906001019060200180831161093957829003601f168201915b50505050509050919050565b60006020528060005260406000206000915090508060000154908060010160009054906101000a900473ffffffffffffffffffffffffffffffffffffffff16908060020180546109b1906110f8565b80601f01602080910402602001604051908101604052809291908181526020018280546109dd906110f8565b8015610a2a5780601f106109ff57610100808354040283529160200191610a2a565b820191906000526020600020905b815481529060010190602001808311610a0d57829003601f168201915b5050505050908060030160009054906101000a900460ff16908060030160019054906101000a900460ff1690806004018054610a65906110f8565b80601f0160208091040260200160405190810160405280929190818152602001828054610a91906110f8565b8015610ade5780601f10610ab357610100808354040283529160200191610ade565b820191906000526020600020905b815481529060010190602001808311610ac157829003601f168201915b5050505050908060050154905087565b600080600083815260200190815260200160002060030160009054906101000a900460ff169050919050565b600080600083815260200190815260200160002060030160019054906101000a900460ff169050919050565b828054610b52906110f8565b90600052602060002090601f016020900481019282610b745760008555610bbb565b82601f10610b8d57805160ff1916838001178555610bbb565b82800160010185558215610bbb579182015b82811115610bba578251825591602001919060010190610b9f565b5b509050610bc89190610bcc565b5090565b5b80821115610be5576000816000905550600101610bcd565b5090565b6000610bfc610bf78461100d565b610fdc565b905082815260208101848484011115610c1457600080fd5b610c1f8482856110b6565b509392505050565b600082601f830112610c3857600080fd5b8135610c48848260208601610be9565b91505092915050565b600081359050610c6081611211565b92915050565b60008060408385031215610c7957600080fd5b600083013567ffffffffffffffff811115610c9357600080fd5b610c9f85828601610c27565b9250506020610cb085828601610c51565b9150509250929050565b600060208284031215610ccc57600080fd5b6000610cda84828501610c51565b91505092915050565b60008060408385031215610cf657600080fd5b6000610d0485828601610c51565b925050602083013567ffffffffffffffff811115610d2157600080fd5b610d2d85828601610c27565b9150509250929050565b610d408161106e565b82525050565b610d4f81611080565b82525050565b6000610d6082611052565b610d6a818561105d565b9350610d7a8185602086016110c5565b610d8381611200565b840191505092915050565b60008154610d9b816110f8565b610da5818661105d565b94506001821660008114610dc05760018114610dd257610e05565b60ff1983168652602086019350610e05565b610ddb8561103d565b60005b83811015610dfd57815481890152600182019150602081019050610dde565b808801955050505b50505092915050565b6000610e1b60138361105d565b91507f436c61696d206e6f742070726f636573736564000000000000000000000000006000830152602082019050919050565b610e57816110ac565b82525050565b6000602082019050610e726000830184610d46565b92915050565b6000608082019050610e8d6000830187610d46565b610e9a6020830186610d46565b8181036040830152610eac8185610d55565b9050610ebb6060830184610e4e565b95945050505050565b60006020820190508181036000830152610ede8184610d55565b905092915050565b60006020820190508181036000830152610eff81610e0e565b9050919050565b6000602082019050610f1b6000830184610e4e565b92915050565b600060e082019050610f36600083018a610e4e565b610f436020830189610d37565b8181036040830152610f558188610d55565b9050610f646060830187610d46565b610f716080830186610d46565b81810360a0830152610f838185610d55565b9050610f9260c0830184610e4e565b98975050505050505050565b6000606082019050610fb36000830186610e4e565b610fc06020830185610d46565b8181036040830152610fd28184610d8e565b9050949350505050565b6000604051905081810181811067ffffffffffffffff82111715611003576110026111d1565b5b8060405250919050565b600067ffffffffffffffff821115611028576110276111d1565b5b601f19601f8301169050602081019050919050565b60008190508160005260206000209050919050565b600081519050919050565b600082825260208201905092915050565b60006110798261108c565b9050919050565b60008115159050919050565b600073ffffffffffffffffffffffffffffffffffffffff82169050919050565b6000819050919050565b82818337600083830152505050565b60005b838110156110e35780820151818401526020810190506110c8565b838111156110f2576000848401525b50505050565b6000600282049050600182168061111057607f821691505b60208210811415611124576111236111a2565b5b50919050565b6000611135826110ac565b91507fffffffffffffffffffffffffffffffffffffffffffffffffffffffffffffffff82141561116857611167611173565b5b600182019050919050565b7f4e487b7100000000000000000000000000000000000000000000000000000000600052601160045260246000fd5b7f4e487b7100000000000000000000000000000000000000000000000000000000600052602260045260246000fd5b7f4e487b7100000000000000000000000000000000000000000000000000000000600052604160045260246000fd5b6000601f19601f8301169050919050565b61121a816110ac565b811461122557600080fd5b5056fea264697066735822122012cdb7029f8e2f3fac89aa17800b14aecff94241b31f7039bc25dff75b37fb0164736f6c63430008000033",
  "immutableReferences": {},
  "source": "// SPDX-License-Identifier: MIT\npragma solidity ^0.8.0;\n\ncontract CarInsuranceClaimProcessing {\n    struct Claim {\n        uint id;\n        address policyholder;\n        string accidentDetails; // \n        bool processed; // True if claim is evaluated\n        bool approved;  // True if claim is approved\n        string rejectionReason; // Reason for rejection, if any\n        uint damageAmount; // \n    }\n    \n    mapping(uint => Claim) public claims;\n    uint public claimCount;\n\n    event ClaimSubmitted(uint claimId, address indexed policyholder);\n    event ClaimEvaluated(uint claimId, bool approved, string rejectionReason);\n    \n    // Constructor to initialize claimCount\n    constructor() {\n        claimCount = 0; //  claimCount  0\n    }\n\n    function submitClaim(string memory _accidentDetails, uint _damageAmount) public {\n        claimCount++;\n        claims[claimCount] = Claim(claimCount, msg.sender, _accidentDetails, false, false, \"\", _damageAmount);\n        emit ClaimSubmitted(claimCount, msg.sender);\n    }\n\n    function evaluateClaim(uint _claimId) public {\n        bool approved = true; // Assume it is approved for the example\n        claims[_claimId].processed = true;\n        claims[_claimId].approved = approved;\n        if (!approved) {\n            claims[_claimId].rejectionReason = \"Insufficient evidence\"; // Example reason\n        }\n        emit ClaimEvaluated(_claimId, approved, claims[_claimId].rejectionReason);\n    }\n\n    function approveClaim(uint _claimId) public {\n        require(claims[_claimId].processed, \"Claim not processed\");\n        claims[_claimId].approved = true;\n    }\n\n    function rejectClaim(uint _claimId, string memory _reason) public {\n        require(claims[_claimId].processed, \"Claim not processed\");\n        claims[_claimId].approved = false;\n        claims[_claimId].rejectionReason = _reason;\n    }\n\n    // New getter functions for specific fields\n    function isClaimProcessed(uint _claimId) public view returns (bool) {\n        return claims[_claimId].processed;\n    }\n\n    function isClaimApproved(uint _claimId) public view returns (bool) {\n        return claims[_claimId].approved;\n    }\n\n    function getClaimRejectionReason(uint _claimId) public view returns (string memory) {\n        return claims[_claimId].rejectionReason;\n    }\n\n    function getClaimDamageAmount(uint _claimId) public view returns (uint) {\n        return claims[_claimId].damageAmount;\n    }\n\n    function viewClaimStatus(uint _claimId) public view returns (bool processed, bool approved, string memory reason, uint damageAmount) {\n        Claim memory claim = claims[_claimId];\n        return (claim.processed, claim.approved, claim.rejectionReason, claim.damageAmount);\n    }\n}\n",
  "sourcePath": "/Users/doodee/CarInsuranceProject/contracts/claims.sol",
  "compiler": {
    "name": "solc",
    "version": "0.8.0+commit.c7dfd78e.Emscripten.clang"
  },
  "schemaVersion": "3.4.16",
  "updatedAt": "2024-11-09T19:04:19.203Z",
  "networkType": "ethereum",
  "devdoc": {
    "kind": "dev",
    "methods": {},
    "version": 1
  },
  "userdoc": {
    "kind": "user",
    "methods": {},
    "version": 1
  }
}