{
  "contractName": "PolicyManagement",
  "abi": [
    {
      "inputs": [
        {
          "internalType": "address",
          "name": "_roleManagementAddress",
          "type": "address"
        }
      ],
      "stateMutability": "nonpayable",
      "type": "constructor"
    },
    {
      "anonymous": false,
      "inputs": [
        {
          "indexed": false,
          "internalType": "uint256",
          "name": "policyID",
          "type": "uint256"
        },
        {
          "indexed": true,
          "internalType": "address",
          "name": "user",
          "type": "address"
        },
        {
          "indexed": false,
          "internalType": "string",
          "name": "insurancePlan",
          "type": "string"
        },
        {
          "indexed": false,
          "internalType": "string",
          "name": "basePremiumRate",
          "type": "string"
        },
        {
          "indexed": false,
          "internalType": "uint256",
          "name": "deductible",
          "type": "uint256"
        },
        {
          "indexed": false,
          "internalType": "uint256",
          "name": "insuranceCoverage",
          "type": "uint256"
        },
        {
          "indexed": false,
          "internalType": "uint256",
          "name": "thirdPartyLiability",
          "type": "uint256"
        },
        {
          "indexed": false,
          "internalType": "string[]",
          "name": "cover",
          "type": "string[]"
        }
      ],
      "name": "PolicyCreated",
      "type": "event"
    },
    {
      "anonymous": false,
      "inputs": [
        {
          "indexed": true,
          "internalType": "address",
          "name": "user",
          "type": "address"
        },
        {
          "indexed": false,
          "internalType": "uint256",
          "name": "policyID",
          "type": "uint256"
        }
      ],
      "name": "PolicySelected",
      "type": "event"
    },
    {
      "inputs": [
        {
          "internalType": "uint256",
          "name": "",
          "type": "uint256"
        }
      ],
      "name": "policies",
      "outputs": [
        {
          "internalType": "uint256",
          "name": "policyID",
          "type": "uint256"
        },
        {
          "internalType": "string",
          "name": "insurancePlan",
          "type": "string"
        },
        {
          "internalType": "string",
          "name": "basePremiumRate",
          "type": "string"
        },
        {
          "internalType": "uint256",
          "name": "deductible",
          "type": "uint256"
        },
        {
          "internalType": "uint256",
          "name": "insuranceCoverage",
          "type": "uint256"
        },
        {
          "internalType": "uint256",
          "name": "thirdPartyLiability",
          "type": "uint256"
        }
      ],
      "stateMutability": "view",
      "type": "function"
    },
    {
      "inputs": [],
      "name": "policyCount",
      "outputs": [
        {
          "internalType": "uint256",
          "name": "",
          "type": "uint256"
        }
      ],
      "stateMutability": "view",
      "type": "function"
    },
    {
      "inputs": [
        {
          "internalType": "string",
          "name": "_insurancePlan",
          "type": "string"
        },
        {
          "internalType": "string",
          "name": "_basePremiumRate",
          "type": "string"
        },
        {
          "internalType": "uint256",
          "name": "_deductible",
          "type": "uint256"
        },
        {
          "internalType": "uint256",
          "name": "_insuranceCoverage",
          "type": "uint256"
        },
        {
          "internalType": "uint256",
          "name": "_thirdPartyLiability",
          "type": "uint256"
        },
        {
          "internalType": "string[]",
          "name": "_cover",
          "type": "string[]"
        }
      ],
      "name": "createPolicy",
      "outputs": [
        {
          "internalType": "uint256",
          "name": "",
          "type": "uint256"
        }
      ],
      "stateMutability": "nonpayable",
      "type": "function"
    },
    {
      "inputs": [
        {
          "internalType": "uint256",
          "name": "_policyID",
          "type": "uint256"
        }
      ],
      "name": "viewPolicy",
      "outputs": [
        {
          "internalType": "uint256",
          "name": "policyID",
          "type": "uint256"
        },
        {
          "internalType": "string",
          "name": "insurancePlan",
          "type": "string"
        },
        {
          "internalType": "string",
          "name": "basePremiumRate",
          "type": "string"
        },
        {
          "internalType": "uint256",
          "name": "deductible",
          "type": "uint256"
        },
        {
          "internalType": "uint256",
          "name": "insuranceCoverage",
          "type": "uint256"
        },
        {
          "internalType": "uint256",
          "name": "thirdPartyLiability",
          "type": "uint256"
        },
        {
          "internalType": "string[]",
          "name": "cover",
          "type": "string[]"
        }
      ],
      "stateMutability": "view",
      "type": "function"
    },
    {
      "inputs": [
        {
          "internalType": "uint256",
          "name": "policyID",
          "type": "uint256"
        }
      ],
      "name": "isPolicyActive",
      "outputs": [
        {
          "internalType": "uint256",
          "name": "_policyID",
          "type": "uint256"
        },
        {
          "internalType": "string",
          "name": "",
          "type": "string"
        }
      ],
      "stateMutability": "view",
      "type": "function"
    },
    {
      "inputs": [
        {
          "internalType": "uint256",
          "name": "_policyID",
          "type": "uint256"
        }
      ],
      "name": "selectPolicy",
      "outputs": [],
      "stateMutability": "nonpayable",
      "type": "function"
    },
    {
      "inputs": [
        {
          "internalType": "address",
          "name": "user",
          "type": "address"
        },
        {
          "internalType": "uint256",
          "name": "index",
          "type": "uint256"
        }
      ],
      "name": "viewSelectedPolicy",
      "outputs": [
        {
          "internalType": "uint256",
          "name": "policyID",
          "type": "uint256"
        },
        {
          "internalType": "string",
          "name": "insurancePlan",
          "type": "string"
        },
        {
          "internalType": "string",
          "name": "basePremiumRate",
          "type": "string"
        },
        {
          "internalType": "uint256",
          "name": "deductible",
          "type": "uint256"
        },
        {
          "internalType": "uint256",
          "name": "insuranceCoverage",
          "type": "uint256"
        },
        {
          "internalType": "uint256",
          "name": "thirdPartyLiability",
          "type": "uint256"
        },
        {
          "internalType": "string[]",
          "name": "cover",
          "type": "string[]"
        }
      ],
      "stateMutability": "view",
      "type": "function"
    },
    {
      "inputs": [
        {
          "internalType": "address",
          "name": "user",
          "type": "address"
        }
      ],
      "name": "getUserPolicies",
      "outputs": [
        {
          "internalType": "uint256[]",
          "name": "",
          "type": "uint256[]"
        }
      ],
      "stateMutability": "view",
      "type": "function"
    }
  ],
  "bytecode": "0x60806040523480156200001157600080fd5b5060405162002324380380620023248339818101604052810190620000379190620000f0565b806000806101000a81548173ffffffffffffffffffffffffffffffffffffffff021916908373ffffffffffffffffffffffffffffffffffffffff16021790555060006003819055505062000122565b600080fd5b600073ffffffffffffffffffffffffffffffffffffffff82169050919050565b6000620000b8826200008b565b9050919050565b620000ca81620000ab565b8114620000d657600080fd5b50565b600081519050620000ea81620000bf565b92915050565b60006020828403121562000109576200010862000086565b5b60006200011984828501620000d9565b91505092915050565b6121f280620001326000396000f3fe608060405234801561001057600080fd5b50600436106100885760003560e01c806397e689111161005b57806397e689111461013f578063bd8afa4614610175578063d3e89483146101a6578063de54d429146101db57610088565b80630403bee71461008d57806319ac4614146100bd57806345f63c17146100ed5780634a87ac8114610109575b600080fd5b6100a760048036038101906100a29190611544565b6101f9565b6040516100b49190611634565b60405180910390f35b6100d760048036038101906100d291906116ad565b610416565b6040516100e49190611798565b60405180910390f35b610107600480360381019061010291906117ba565b6104ad565b005b610123600480360381019061011e91906117e7565b61068e565b60405161013697969594939291906119b2565b60405180910390f35b610159600480360381019061015491906117ba565b610bbb565b60405161016c97969594939291906119b2565b60405180910390f35b61018f600480360381019061018a91906117ba565b610f2d565b60405161019d929190611a36565b60405180910390f35b6101c060048036038101906101bb91906117ba565b6110a2565b6040516101d296959493929190611a66565b60405180910390f35b6101e36111ee565b6040516101f09190611634565b60405180910390f35b60008060009054906101000a900473ffffffffffffffffffffffffffffffffffffffff1673ffffffffffffffffffffffffffffffffffffffff166372a0b694336040518263ffffffff1660e01b81526004016102559190611ae4565b602060405180830381865afa158015610272573d6000803e3d6000fd5b505050506040513d601f19601f820116820180604052508101906102969190611b37565b6102d5576040517f08c379a00000000000000000000000000000000000000000000000000000000081526004016102cc90611bb0565b60405180910390fd5b600360008154809291906102e890611bff565b91905055506040518060e001604052806003548152602001888152602001878152602001868152602001858152602001848152602001838152506001600060035481526020019081526020016000206000820151816000015560208201518160010190816103569190611e53565b50604082015181600201908161036c9190611e53565b50606082015181600301556080820151816004015560a0820151816005015560c08201518160060190805190602001906103a79291906111f4565b509050503373ffffffffffffffffffffffffffffffffffffffff167f85bb9410424bd05b4f4fc44e597715781ac6958b4ebd13548b18e63bb796d9d96003548989898989896040516103ff97969594939291906119b2565b60405180910390a260035490509695505050505050565b6060600260008373ffffffffffffffffffffffffffffffffffffffff1673ffffffffffffffffffffffffffffffffffffffff1681526020019081526020016000208054806020026020016040519081016040528092919081815260200182805480156104a157602002820191906000526020600020905b81548152602001906001019080831161048d575b50505050509050919050565b60008054906101000a900473ffffffffffffffffffffffffffffffffffffffff1673ffffffffffffffffffffffffffffffffffffffff16635ed721f7336040518263ffffffff1660e01b81526004016105069190611ae4565b602060405180830381865afa158015610523573d6000803e3d6000fd5b505050506040513d601f19601f820116820180604052508101906105479190611b37565b610586576040517f08c379a000000000000000000000000000000000000000000000000000000000815260040161057d90611f97565b60405180910390fd5b60008111801561059857506003548111155b6105d7576040517f08c379a00000000000000000000000000000000000000000000000000000000081526004016105ce90612003565b60405180910390fd5b600260003373ffffffffffffffffffffffffffffffffffffffff1673ffffffffffffffffffffffffffffffffffffffff1681526020019081526020016000208190806001815401808255809150506001900390600052602060002001600090919091909150553373ffffffffffffffffffffffffffffffffffffffff167f9616495c60e21ac708b99581defab545991148f4c8b6e2e08720cb559c95a098826040516106839190611634565b60405180910390a250565b60006060806000806000606060008054906101000a900473ffffffffffffffffffffffffffffffffffffffff1673ffffffffffffffffffffffffffffffffffffffff16635ed721f7336040518263ffffffff1660e01b81526004016106f39190611ae4565b602060405180830381865afa158015610710573d6000803e3d6000fd5b505050506040513d601f19601f820116820180604052508101906107349190611b37565b806107d5575060008054906101000a900473ffffffffffffffffffffffffffffffffffffffff1673ffffffffffffffffffffffffffffffffffffffff166372a0b694336040518263ffffffff1660e01b81526004016107939190611ae4565b602060405180830381865afa1580156107b0573d6000803e3d6000fd5b505050506040513d601f19601f820116820180604052508101906107d49190611b37565b5b610814576040517f08c379a000000000000000000000000000000000000000000000000000000000815260040161080b90612095565b60405180910390fd5b6000600260008b73ffffffffffffffffffffffffffffffffffffffff1673ffffffffffffffffffffffffffffffffffffffff1681526020019081526020016000208054905011610899576040517f08c379a000000000000000000000000000000000000000000000000000000000815260040161089090612101565b60405180910390fd5b600260008a73ffffffffffffffffffffffffffffffffffffffff1673ffffffffffffffffffffffffffffffffffffffff16815260200190815260200160002080549050881061091d576040517f08c379a00000000000000000000000000000000000000000000000000000000081526004016109149061216d565b60405180910390fd5b6000600260008b73ffffffffffffffffffffffffffffffffffffffff1673ffffffffffffffffffffffffffffffffffffffff16815260200190815260200160002089815481106109705761096f61218d565b5b90600052602060002001549050600060016000838152602001908152602001600020905080600001548160010182600201836003015484600401548560050154866006018580546109c090611c76565b80601f01602080910402602001604051908101604052809291908181526020018280546109ec90611c76565b8015610a395780601f10610a0e57610100808354040283529160200191610a39565b820191906000526020600020905b815481529060010190602001808311610a1c57829003601f168201915b50505050509550848054610a4c90611c76565b80601f0160208091040260200160405190810160405280929190818152602001828054610a7890611c76565b8015610ac55780601f10610a9a57610100808354040283529160200191610ac5565b820191906000526020600020905b815481529060010190602001808311610aa857829003601f168201915b5050505050945080805480602002602001604051908101604052809291908181526020016000905b82821015610b99578382906000526020600020018054610b0c90611c76565b80601f0160208091040260200160405190810160405280929190818152602001828054610b3890611c76565b8015610b855780601f10610b5a57610100808354040283529160200191610b85565b820191906000526020600020905b815481529060010190602001808311610b6857829003601f168201915b505050505081526020019060010190610aed565b5050505090509850985098509850985098509850505092959891949750929550565b60006060806000806000606060008054906101000a900473ffffffffffffffffffffffffffffffffffffffff1673ffffffffffffffffffffffffffffffffffffffff166372a0b694336040518263ffffffff1660e01b8152600401610c209190611ae4565b602060405180830381865afa158015610c3d573d6000803e3d6000fd5b505050506040513d601f19601f82011682018060405250810190610c619190611b37565b610ca0576040517f08c379a0000000000000000000000000000000000000000000000000000000008152600401610c9790611bb0565b60405180910390fd5b6003548811158015610cb25750600088115b610cf1576040517f08c379a0000000000000000000000000000000000000000000000000000000008152600401610ce890612003565b60405180910390fd5b6000600160008a815260200190815260200160002090508060000154816001018260020183600301548460040154856005015486600601858054610d3490611c76565b80601f0160208091040260200160405190810160405280929190818152602001828054610d6090611c76565b8015610dad5780601f10610d8257610100808354040283529160200191610dad565b820191906000526020600020905b815481529060010190602001808311610d9057829003601f168201915b50505050509550848054610dc090611c76565b80601f0160208091040260200160405190810160405280929190818152602001828054610dec90611c76565b8015610e395780601f10610e0e57610100808354040283529160200191610e39565b820191906000526020600020905b815481529060010190602001808311610e1c57829003601f168201915b5050505050945080805480602002602001604051908101604052809291908181526020016000905b82821015610f0d578382906000526020600020018054610e8090611c76565b80601f0160208091040260200160405190810160405280929190818152602001828054610eac90611c76565b8015610ef95780601f10610ece57610100808354040283529160200191610ef9565b820191906000526020600020905b815481529060010190602001808311610edc57829003601f168201915b505050505081526020019060010190610e61565b505050509050975097509750975097509750975050919395979092949650565b6000606060008054906101000a900473ffffffffffffffffffffffffffffffffffffffff1673ffffffffffffffffffffffffffffffffffffffff166372a0b694336040518263ffffffff1660e01b8152600401610f8a9190611ae4565b602060405180830381865afa158015610fa7573d6000803e3d6000fd5b505050506040513d601f19601f82011682018060405250810190610fcb9190611b37565b61100a576040517f08c379a000000000000000000000000000000000000000000000000000000000815260040161100190611bb0565b60405180910390fd5b60008311801561101c57506003548311155b1561106157816040518060400160405280600681526020017f41637469766500000000000000000000000000000000000000000000000000008152509150915061109d565b816040518060400160405280600a81526020017f4e6f742041637469766500000000000000000000000000000000000000000000815250915091505b915091565b60016020528060005260406000206000915090508060000154908060010180546110cb90611c76565b80601f01602080910402602001604051908101604052809291908181526020018280546110f790611c76565b80156111445780601f1061111957610100808354040283529160200191611144565b820191906000526020600020905b81548152906001019060200180831161112757829003601f168201915b50505050509080600201805461115990611c76565b80601f016020809104026020016040519081016040528092919081815260200182805461118590611c76565b80156111d25780601f106111a7576101008083540402835291602001916111d2565b820191906000526020600020905b8154815290600101906020018083116111b557829003601f168201915b5050505050908060030154908060040154908060050154905086565b60035481565b82805482825590600052602060002090810192821561123c579160200282015b8281111561123b57825182908161122b9190611e53565b5091602001919060010190611214565b5b509050611249919061124d565b5090565b5b8082111561126d57600081816112649190611271565b5060010161124e565b5090565b50805461127d90611c76565b6000825580601f1061128f57506112ae565b601f0160209004906000526020600020908101906112ad91906112b1565b5b50565b5b808211156112ca5760008160009055506001016112b2565b5090565b6000604051905090565b600080fd5b600080fd5b600080fd5b600080fd5b6000601f19601f8301169050919050565b7f4e487b7100000000000000000000000000000000000000000000000000000000600052604160045260246000fd5b611335826112ec565b810181811067ffffffffffffffff82111715611354576113536112fd565b5b80604052505050565b60006113676112ce565b9050611373828261132c565b919050565b600067ffffffffffffffff821115611393576113926112fd565b5b61139c826112ec565b9050602081019050919050565b82818337600083830152505050565b60006113cb6113c684611378565b61135d565b9050828152602081018484840111156113e7576113e66112e7565b5b6113f28482856113a9565b509392505050565b600082601f83011261140f5761140e6112e2565b5b813561141f8482602086016113b8565b91505092915050565b6000819050919050565b61143b81611428565b811461144657600080fd5b50565b60008135905061145881611432565b92915050565b600067ffffffffffffffff821115611479576114786112fd565b5b602082029050602081019050919050565b600080fd5b60006114a261149d8461145e565b61135d565b905080838252602082019050602084028301858111156114c5576114c461148a565b5b835b8181101561150c57803567ffffffffffffffff8111156114ea576114e96112e2565b5b8086016114f789826113fa565b855260208501945050506020810190506114c7565b5050509392505050565b600082601f83011261152b5761152a6112e2565b5b813561153b84826020860161148f565b91505092915050565b60008060008060008060c08789031215611561576115606112d8565b5b600087013567ffffffffffffffff81111561157f5761157e6112dd565b5b61158b89828a016113fa565b965050602087013567ffffffffffffffff8111156115ac576115ab6112dd565b5b6115b889828a016113fa565b95505060406115c989828a01611449565b94505060606115da89828a01611449565b93505060806115eb89828a01611449565b92505060a087013567ffffffffffffffff81111561160c5761160b6112dd565b5b61161889828a01611516565b9150509295509295509295565b61162e81611428565b82525050565b60006020820190506116496000830184611625565b92915050565b600073ffffffffffffffffffffffffffffffffffffffff82169050919050565b600061167a8261164f565b9050919050565b61168a8161166f565b811461169557600080fd5b50565b6000813590506116a781611681565b92915050565b6000602082840312156116c3576116c26112d8565b5b60006116d184828501611698565b91505092915050565b600081519050919050565b600082825260208201905092915050565b6000819050602082019050919050565b61170f81611428565b82525050565b60006117218383611706565b60208301905092915050565b6000602082019050919050565b6000611745826116da565b61174f81856116e5565b935061175a836116f6565b8060005b8381101561178b5781516117728882611715565b975061177d8361172d565b92505060018101905061175e565b5085935050505092915050565b600060208201905081810360008301526117b2818461173a565b905092915050565b6000602082840312156117d0576117cf6112d8565b5b60006117de84828501611449565b91505092915050565b600080604083850312156117fe576117fd6112d8565b5b600061180c85828601611698565b925050602061181d85828601611449565b9150509250929050565b600081519050919050565b600082825260208201905092915050565b60005b83811015611861578082015181840152602081019050611846565b60008484015250505050565b600061187882611827565b6118828185611832565b9350611892818560208601611843565b61189b816112ec565b840191505092915050565b600081519050919050565b600082825260208201905092915050565b6000819050602082019050919050565b600082825260208201905092915050565b60006118ee82611827565b6118f881856118d2565b9350611908818560208601611843565b611911816112ec565b840191505092915050565b600061192883836118e3565b905092915050565b6000602082019050919050565b6000611948826118a6565b61195281856118b1565b935083602082028501611964856118c2565b8060005b858110156119a05784840389528151611981858261191c565b945061198c83611930565b925060208a01995050600181019050611968565b50829750879550505050505092915050565b600060e0820190506119c7600083018a611625565b81810360208301526119d9818961186d565b905081810360408301526119ed818861186d565b90506119fc6060830187611625565b611a096080830186611625565b611a1660a0830185611625565b81810360c0830152611a28818461193d565b905098975050505050505050565b6000604082019050611a4b6000830185611625565b8181036020830152611a5d818461186d565b90509392505050565b600060c082019050611a7b6000830189611625565b8181036020830152611a8d818861186d565b90508181036040830152611aa1818761186d565b9050611ab06060830186611625565b611abd6080830185611625565b611aca60a0830184611625565b979650505050505050565b611ade8161166f565b82525050565b6000602082019050611af96000830184611ad5565b92915050565b60008115159050919050565b611b1481611aff565b8114611b1f57600080fd5b50565b600081519050611b3181611b0b565b92915050565b600060208284031215611b4d57611b4c6112d8565b5b6000611b5b84828501611b22565b91505092915050565b7f4163636573732064656e6965643a20596f7520617265206e6f742041646d696e600082015250565b6000611b9a602083611832565b9150611ba582611b64565b602082019050919050565b60006020820190508181036000830152611bc981611b8d565b9050919050565b7f4e487b7100000000000000000000000000000000000000000000000000000000600052601160045260246000fd5b6000611c0a82611428565b91507fffffffffffffffffffffffffffffffffffffffffffffffffffffffffffffffff8203611c3c57611c3b611bd0565b5b600182019050919050565b7f4e487b7100000000000000000000000000000000000000000000000000000000600052602260045260246000fd5b60006002820490506001821680611c8e57607f821691505b602082108103611ca157611ca0611c47565b5b50919050565b60008190508160005260206000209050919050565b60006020601f8301049050919050565b600082821b905092915050565b600060088302611d097fffffffffffffffffffffffffffffffffffffffffffffffffffffffffffffffff82611ccc565b611d138683611ccc565b95508019841693508086168417925050509392505050565b6000819050919050565b6000611d50611d4b611d4684611428565b611d2b565b611428565b9050919050565b6000819050919050565b611d6a83611d35565b611d7e611d7682611d57565b848454611cd9565b825550505050565b600090565b611d93611d86565b611d9e818484611d61565b505050565b5b81811015611dc257611db7600082611d8b565b600181019050611da4565b5050565b601f821115611e0757611dd881611ca7565b611de184611cbc565b81016020851015611df0578190505b611e04611dfc85611cbc565b830182611da3565b50505b505050565b600082821c905092915050565b6000611e2a60001984600802611e0c565b1980831691505092915050565b6000611e438383611e19565b9150826002028217905092915050565b611e5c82611827565b67ffffffffffffffff811115611e7557611e746112fd565b5b611e7f8254611c76565b611e8a828285611dc6565b600060209050601f831160018114611ebd5760008415611eab578287015190505b611eb58582611e37565b865550611f1d565b601f198416611ecb86611ca7565b60005b82811015611ef357848901518255600182019150602085019450602081019050611ece565b86831015611f105784890151611f0c601f891682611e19565b8355505b6001600288020188555050505b505050505050565b7f4163636573732064656e6965643a20596f7520617265206e6f7420612055736560008201527f7200000000000000000000000000000000000000000000000000000000000000602082015250565b6000611f81602183611832565b9150611f8c82611f25565b604082019050919050565b60006020820190508181036000830152611fb081611f74565b9050919050565b7f506f6c69637920646f6573206e6f742065786973740000000000000000000000600082015250565b6000611fed601583611832565b9150611ff882611fb7565b602082019050919050565b6000602082019050818103600083015261201c81611fe0565b9050919050565b7f4163636573732064656e6965643a20596f7520617265206e6f7420612055736560008201527f72206f722041646d696e00000000000000000000000000000000000000000000602082015250565b600061207f602a83611832565b915061208a82612023565b604082019050919050565b600060208201905081810360008301526120ae81612072565b9050919050565b7f5573657220686173206e6f742073656c656374656420616e7920706f6c696379600082015250565b60006120eb602083611832565b91506120f6826120b5565b602082019050919050565b6000602082019050818103600083015261211a816120de565b9050919050565b7f496e76616c696420706f6c69637920696e646578000000000000000000000000600082015250565b6000612157601483611832565b915061216282612121565b602082019050919050565b600060208201905081810360008301526121868161214a565b9050919050565b7f4e487b7100000000000000000000000000000000000000000000000000000000600052603260045260246000fdfea2646970667358221220f5fe6bb2ea1afec17f4f9bf5b42bfba625376556537532e7d8c11c1e4e31ff6f64736f6c63430008130033",
  "immutableReferences": {},
  "source": "// SPDX-License-Identifier: MIT\npragma solidity ^0.8.0;\n\nimport \"./RoleManagement.sol\";\n\ncontract PolicyManagement {\n\n    RoleManagement private roleManagement;\n\n    struct Policy {\n        uint256 policyID;          \n        string insurancePlan;            \n        string basePremiumRate;\n        uint256 deductible;\n        uint256 insuranceCoverage;\n        uint256 thirdPartyLiability;\n        string[] cover;         \n    }\n\n    mapping(uint256 => Policy) public policies;\n    mapping(address => uint256[]) internal userPolicies;\n\n    uint256 public policyCount;               \n\n    event PolicyCreated(\n        uint256 policyID,\n        address indexed user,\n        string insurancePlan,\n        string basePremiumRate,\n        uint256 deductible,\n        uint256 insuranceCoverage,\n        uint256 thirdPartyLiability,\n        string[] cover\n    );\n\n    event PolicySelected(address indexed user, uint256 policyID);\n\n    constructor(address _roleManagementAddress) {\n        roleManagement = RoleManagement(_roleManagementAddress);\n        policyCount = 0;\n    }\n\n    function createPolicy(\n        string memory _insurancePlan,\n        string memory _basePremiumRate,\n        uint256 _deductible,\n        uint256 _insuranceCoverage,\n        uint256 _thirdPartyLiability,\n        string[] memory _cover\n    ) public returns (uint256) {\n        require(\n            roleManagement._isInAdmins(msg.sender),\n            \"Access denied: You are not Admin\"\n        );\n        policyCount++;\n        policies[policyCount] = Policy(policyCount, _insurancePlan, _basePremiumRate, _deductible, _insuranceCoverage, _thirdPartyLiability, _cover);\n\n        emit PolicyCreated(policyCount, msg.sender, _insurancePlan, _basePremiumRate, _deductible, _insuranceCoverage, _thirdPartyLiability, _cover);\n        return policyCount;\n    }\n\n    function viewPolicy(uint256 _policyID) public view returns (\n        uint256 policyID,\n        string memory insurancePlan,\n        string memory basePremiumRate,\n        uint256 deductible,\n        uint256 insuranceCoverage,\n        uint256 thirdPartyLiability,\n        string[] memory cover\n    ) {\n        require(\n            roleManagement._isInAdmins(msg.sender),\n            \"Access denied: You are not Admin\"\n        );\n        require(_policyID <= policyCount && _policyID > 0, \"Policy does not exist\");\n\n        Policy storage policy = policies[_policyID];\n\n        return (\n            policy.policyID,\n            policy.insurancePlan,\n            policy.basePremiumRate,\n            policy.deductible,\n            policy.insuranceCoverage,\n            policy.thirdPartyLiability,\n            policy.cover\n        );\n    }\n\n    function isPolicyActive(uint256 policyID) public view returns (uint256 _policyID, string memory) {\n        require(\n            roleManagement._isInAdmins(msg.sender),\n            \"Access denied: You are not Admin\"\n        );\n\n        if (policyID > 0 && policyID <= policyCount) {\n            return (_policyID, \"Active\");\n        } else {\n            return (_policyID, \"Not Active\");\n        }\n    }\n\n    function selectPolicy(uint256 _policyID) public {\n    require(\n        roleManagement._isInUsers(msg.sender),\n        \"Access denied: You are not a User\"\n    );\n    require(\n        _policyID > 0 && _policyID <= policyCount,\n        \"Policy does not exist\"\n    );\n\n    userPolicies[msg.sender].push(_policyID);\n\n    emit PolicySelected(msg.sender, _policyID);\n}\n\n    function viewSelectedPolicy(address user, uint256 index) public view returns (\n    uint256 policyID,\n    string memory insurancePlan,\n    string memory basePremiumRate,\n    uint256 deductible,\n    uint256 insuranceCoverage,\n    uint256 thirdPartyLiability,\n    string[] memory cover\n) {\n    require(\n        roleManagement._isInUsers(msg.sender) || roleManagement._isInAdmins(msg.sender),\n        \"Access denied: You are not a User or Admin\"\n    );\n\n    // Check user has a Policy or not\n    require(userPolicies[user].length > 0, \"User has not selected any policy\");\n\n    require(index < userPolicies[user].length, \"Invalid policy index\");\n\n    uint256 selectedPolicyID = userPolicies[user][index];\n    Policy storage policy = policies[selectedPolicyID];\n\n    return (\n        policy.policyID,\n        policy.insurancePlan,\n        policy.basePremiumRate,\n        policy.deductible,\n        policy.insuranceCoverage,\n        policy.thirdPartyLiability,\n        policy.cover\n    );\n}\n\nfunction getUserPolicies(address user) public view returns (uint256[] memory) {\n    return userPolicies[user];\n}\n}",
  "sourcePath": "/Users/doodee/CarInsuranceProject/contracts/PolicyManagement.sol",
  "compiler": {
    "name": "solc",
    "version": "0.8.19+commit.7dd6d404.Emscripten.clang"
  },
  "schemaVersion": "3.4.16",
  "updatedAt": "2024-12-07T14:17:43.531Z",
  "devdoc": {
    "kind": "dev",
    "methods": {},
    "version": 1
  },
  "userdoc": {
    "kind": "user",
    "methods": {},
    "version": 1
  }
}