{
  "contractName": "PremiumCollection",
  "abi": [
    {
      "inputs": [
        {
          "internalType": "address",
          "name": "_roleManagementAddress",
          "type": "address"
        },
        {
          "internalType": "address",
          "name": "_policyManagementAddress",
          "type": "address"
        }
      ],
      "stateMutability": "nonpayable",
      "type": "constructor"
    },
    {
      "anonymous": false,
      "inputs": [
        {
          "indexed": true,
          "internalType": "address",
          "name": "user",
          "type": "address"
        },
        {
          "indexed": false,
          "internalType": "uint256",
          "name": "policyID",
          "type": "uint256"
        }
      ],
      "name": "AmountPaidReset",
      "type": "event"
    },
    {
      "anonymous": false,
      "inputs": [
        {
          "indexed": false,
          "internalType": "uint256",
          "name": "newBalance",
          "type": "uint256"
        }
      ],
      "name": "PoolBalanceUpdated",
      "type": "event"
    },
    {
      "anonymous": false,
      "inputs": [
        {
          "indexed": true,
          "internalType": "address",
          "name": "user",
          "type": "address"
        },
        {
          "indexed": false,
          "internalType": "uint256",
          "name": "policyId",
          "type": "uint256"
        },
        {
          "indexed": false,
          "internalType": "uint256",
          "name": "amount",
          "type": "uint256"
        }
      ],
      "name": "PremiumPaid",
      "type": "event"
    },
    {
      "anonymous": false,
      "inputs": [
        {
          "indexed": true,
          "internalType": "address",
          "name": "user",
          "type": "address"
        },
        {
          "indexed": false,
          "internalType": "uint256",
          "name": "policyID",
          "type": "uint256"
        },
        {
          "indexed": false,
          "internalType": "uint256",
          "name": "premium",
          "type": "uint256"
        }
      ],
      "name": "UserPremiumSet",
      "type": "event"
    },
    {
      "inputs": [
        {
          "internalType": "address",
          "name": "user",
          "type": "address"
        },
        {
          "internalType": "uint256",
          "name": "policyID",
          "type": "uint256"
        },
        {
          "internalType": "uint256",
          "name": "policyPremium",
          "type": "uint256"
        }
      ],
      "name": "setUserPremium",
      "outputs": [],
      "stateMutability": "nonpayable",
      "type": "function"
    },
    {
      "inputs": [
        {
          "internalType": "address",
          "name": "user",
          "type": "address"
        },
        {
          "internalType": "uint256",
          "name": "policyID",
          "type": "uint256"
        }
      ],
      "name": "paidPremium",
      "outputs": [
        {
          "internalType": "bool",
          "name": "",
          "type": "bool"
        }
      ],
      "stateMutability": "view",
      "type": "function",
      "constant": true
    },
    {
      "inputs": [
        {
          "internalType": "uint256",
          "name": "policyID",
          "type": "uint256"
        }
      ],
      "name": "payPremium",
      "outputs": [],
      "stateMutability": "payable",
      "type": "function",
      "payable": true
    },
    {
      "inputs": [],
      "name": "getPoolBalance",
      "outputs": [
        {
          "internalType": "uint256",
          "name": "",
          "type": "uint256"
        }
      ],
      "stateMutability": "view",
      "type": "function",
      "constant": true
    },
    {
      "inputs": [
        {
          "internalType": "address",
          "name": "user",
          "type": "address"
        },
        {
          "internalType": "uint256",
          "name": "policyID",
          "type": "uint256"
        }
      ],
      "name": "resetAmountPaid",
      "outputs": [],
      "stateMutability": "nonpayable",
      "type": "function"
    }
  ],
  "bytecode": "0x60806040523480156200001157600080fd5b5060405162001d7f38038062001d7f83398181016040528101906200003791906200012a565b816000806101000a81548173ffffffffffffffffffffffffffffffffffffffff021916908373ffffffffffffffffffffffffffffffffffffffff16021790555080600160006101000a81548173ffffffffffffffffffffffffffffffffffffffff021916908373ffffffffffffffffffffffffffffffffffffffff160217905550505062000171565b600080fd5b600073ffffffffffffffffffffffffffffffffffffffff82169050919050565b6000620000f282620000c5565b9050919050565b6200010481620000e5565b81146200011057600080fd5b50565b6000815190506200012481620000f9565b92915050565b60008060408385031215620001445762000143620000c0565b5b6000620001548582860162000113565b9250506020620001678582860162000113565b9150509250929050565b611bfe80620001816000396000f3fe60806040526004361061004a5760003560e01c806328dbba641461004f5780634364b26e14610078578063951f824714610094578063abd70aa2146100bd578063d55236eb146100e8575b600080fd5b34801561005b57600080fd5b50610076600480360381019061007191906110fa565b610125565b005b610092600480360381019061008d919061114d565b6105d4565b005b3480156100a057600080fd5b506100bb60048036038101906100b6919061117a565b610abc565b005b3480156100c957600080fd5b506100d2610cee565b6040516100df91906111c9565b60405180910390f35b3480156100f457600080fd5b5061010f600480360381019061010a919061117a565b610dd2565b60405161011c91906111ff565b60405180910390f35b60008054906101000a900473ffffffffffffffffffffffffffffffffffffffff1673ffffffffffffffffffffffffffffffffffffffff166372a0b694336040518263ffffffff1660e01b815260040161017e9190611229565b602060405180830381865afa15801561019b573d6000803e3d6000fd5b505050506040513d601f19601f820116820180604052508101906101bf9190611270565b6101fe576040517f08c379a00000000000000000000000000000000000000000000000000000000081526004016101f5906112fa565b60405180910390fd5b60008054906101000a900473ffffffffffffffffffffffffffffffffffffffff1673ffffffffffffffffffffffffffffffffffffffff16635ed721f7846040518263ffffffff1660e01b81526004016102579190611229565b602060405180830381865afa158015610274573d6000803e3d6000fd5b505050506040513d601f19601f820116820180604052508101906102989190611270565b6102d7576040517f08c379a00000000000000000000000000000000000000000000000000000000081526004016102ce90611366565b60405180910390fd5b6000811161031a576040517f08c379a0000000000000000000000000000000000000000000000000000000008152600401610311906113f8565b60405180910390fd5b6000600160009054906101000a900473ffffffffffffffffffffffffffffffffffffffff1673ffffffffffffffffffffffffffffffffffffffff166319ac4614856040518263ffffffff1660e01b81526004016103779190611229565b600060405180830381865afa158015610394573d6000803e3d6000fd5b505050506040513d6000823e3d601f19601f820116820180604052508101906103bd9190611586565b90506000805b825181101561040957848382815181106103e0576103df6115cf565b5b6020026020010151036103f65760019150610409565b80806104019061162d565b9150506103c3565b508061044a576040517f08c379a0000000000000000000000000000000000000000000000000000000008152600401610441906116c1565b60405180910390fd5b6000600260008773ffffffffffffffffffffffffffffffffffffffff1673ffffffffffffffffffffffffffffffffffffffff168152602001908152602001600020905060005b818054905081101561051557858282815481106104b0576104af6115cf565b5b90600052602060002090600302016000015403610502576040517f08c379a00000000000000000000000000000000000000000000000000000000081526004016104f990611753565b60405180910390fd5b808061050d9061162d565b915050610490565b508060405180606001604052808781526020018681526020016000815250908060018154018082558091505060019003906000526020600020906003020160009091909190915060008201518160000155602082015181600101556040820151816002015550508573ffffffffffffffffffffffffffffffffffffffff167f686f97e28970a23372256f2f347a17d4848ea4fabfb9987d7b517724ad9581e586866040516105c4929190611773565b60405180910390a2505050505050565b60008054906101000a900473ffffffffffffffffffffffffffffffffffffffff1673ffffffffffffffffffffffffffffffffffffffff16635ed721f7336040518263ffffffff1660e01b815260040161062d9190611229565b602060405180830381865afa15801561064a573d6000803e3d6000fd5b505050506040513d601f19601f8201168201806040525081019061066e9190611270565b6106ad576040517f08c379a00000000000000000000000000000000000000000000000000000000081526004016106a4906117e8565b60405180910390fd5b6000600160009054906101000a900473ffffffffffffffffffffffffffffffffffffffff1673ffffffffffffffffffffffffffffffffffffffff166319ac4614336040518263ffffffff1660e01b815260040161070a9190611229565b600060405180830381865afa158015610727573d6000803e3d6000fd5b505050506040513d6000823e3d601f19601f820116820180604052508101906107509190611586565b90506000805b825181101561079c5783838281518110610773576107726115cf565b5b602002602001015103610789576001915061079c565b80806107949061162d565b915050610756565b50806107dd576040517f08c379a00000000000000000000000000000000000000000000000000000000081526004016107d490611854565b60405180910390fd5b6000600260003373ffffffffffffffffffffffffffffffffffffffff1673ffffffffffffffffffffffffffffffffffffffff16815260200190815260200160002090506000805b8280549050811015610a745785838281548110610844576108436115cf565b5b90600052602060002090600302016000015403610a615782818154811061086e5761086d6115cf565b5b906000526020600020906003020160010154838281548110610893576108926115cf565b5b906000526020600020906003020160020154106108e5576040517f08c379a00000000000000000000000000000000000000000000000000000000081526004016108dc906118c0565b60405180910390fd5b8281815481106108f8576108f76115cf565b5b90600052602060002090600302016001015483828154811061091d5761091c6115cf565b5b9060005260206000209060030201600201543461093a91906118e0565b111561097b576040517f08c379a000000000000000000000000000000000000000000000000000000000815260040161097290611960565b60405180910390fd5b3483828154811061098f5761098e6115cf565b5b906000526020600020906003020160020160008282546109af91906118e0565b9250508190555034600360008282546109c891906118e0565b925050819055503373ffffffffffffffffffffffffffffffffffffffff167f395bd21029ce552d1941c174d800a5599c4b1b28887cc9b9eea83c5409da93ef8734604051610a17929190611773565b60405180910390a27f812a312bfbc57c3813f93d3e1a8515055ed46fc860bd4e2ad39b02198d2a3b73600354604051610a5091906111c9565b60405180910390a160019150610a74565b8080610a6c9061162d565b915050610824565b5080610ab5576040517f08c379a0000000000000000000000000000000000000000000000000000000008152600401610aac906119f2565b60405180910390fd5b5050505050565b60008054906101000a900473ffffffffffffffffffffffffffffffffffffffff1673ffffffffffffffffffffffffffffffffffffffff166372a0b694336040518263ffffffff1660e01b8152600401610b159190611229565b602060405180830381865afa158015610b32573d6000803e3d6000fd5b505050506040513d601f19601f82011682018060405250810190610b569190611270565b610b95576040517f08c379a0000000000000000000000000000000000000000000000000000000008152600401610b8c906112fa565b60405180910390fd5b6000600260008473ffffffffffffffffffffffffffffffffffffffff1673ffffffffffffffffffffffffffffffffffffffff16815260200190815260200160002090506000805b8280549050811015610ca75783838281548110610bfc57610bfb6115cf565b5b90600052602060002090600302016000015403610c94576000838281548110610c2857610c276115cf565b5b906000526020600020906003020160020181905550600191508473ffffffffffffffffffffffffffffffffffffffff167f8e335af2d380690f99ff5482c0c983c4075cde70dfb31d4a659b31bd5127361f85604051610c8791906111c9565b60405180910390a2610ca7565b8080610c9f9061162d565b915050610bdc565b5080610ce8576040517f08c379a0000000000000000000000000000000000000000000000000000000008152600401610cdf90611a84565b60405180910390fd5b50505050565b60008060009054906101000a900473ffffffffffffffffffffffffffffffffffffffff1673ffffffffffffffffffffffffffffffffffffffff166372a0b694336040518263ffffffff1660e01b8152600401610d4a9190611229565b602060405180830381865afa158015610d67573d6000803e3d6000fd5b505050506040513d601f19601f82011682018060405250810190610d8b9190611270565b610dca576040517f08c379a0000000000000000000000000000000000000000000000000000000008152600401610dc1906112fa565b60405180910390fd5b600354905090565b60008060009054906101000a900473ffffffffffffffffffffffffffffffffffffffff1673ffffffffffffffffffffffffffffffffffffffff16635ed721f7336040518263ffffffff1660e01b8152600401610e2e9190611229565b602060405180830381865afa158015610e4b573d6000803e3d6000fd5b505050506040513d601f19601f82011682018060405250810190610e6f9190611270565b80610f10575060008054906101000a900473ffffffffffffffffffffffffffffffffffffffff1673ffffffffffffffffffffffffffffffffffffffff166372a0b694336040518263ffffffff1660e01b8152600401610ece9190611229565b602060405180830381865afa158015610eeb573d6000803e3d6000fd5b505050506040513d601f19601f82011682018060405250810190610f0f9190611270565b5b610f4f576040517f08c379a0000000000000000000000000000000000000000000000000000000008152600401610f4690611b16565b60405180910390fd5b6000600260008573ffffffffffffffffffffffffffffffffffffffff1673ffffffffffffffffffffffffffffffffffffffff168152602001908152602001600020905060005b81805490508110156110105783828281548110610fb557610fb46115cf565b5b90600052602060002090600302016000015403610ffd576000828281548110610fe157610fe06115cf565b5b906000526020600020906003020160020154119250505061104c565b80806110089061162d565b915050610f95565b506040517f08c379a000000000000000000000000000000000000000000000000000000000815260040161104390611ba8565b60405180910390fd5b92915050565b6000604051905090565b600080fd5b600080fd5b600073ffffffffffffffffffffffffffffffffffffffff82169050919050565b600061109182611066565b9050919050565b6110a181611086565b81146110ac57600080fd5b50565b6000813590506110be81611098565b92915050565b6000819050919050565b6110d7816110c4565b81146110e257600080fd5b50565b6000813590506110f4816110ce565b92915050565b6000806000606084860312156111135761111261105c565b5b6000611121868287016110af565b9350506020611132868287016110e5565b9250506040611143868287016110e5565b9150509250925092565b6000602082840312156111635761116261105c565b5b6000611171848285016110e5565b91505092915050565b600080604083850312156111915761119061105c565b5b600061119f858286016110af565b92505060206111b0858286016110e5565b9150509250929050565b6111c3816110c4565b82525050565b60006020820190506111de60008301846111ba565b92915050565b60008115159050919050565b6111f9816111e4565b82525050565b600060208201905061121460008301846111f0565b92915050565b61122381611086565b82525050565b600060208201905061123e600083018461121a565b92915050565b61124d816111e4565b811461125857600080fd5b50565b60008151905061126a81611244565b92915050565b6000602082840312156112865761128561105c565b5b60006112948482850161125b565b91505092915050565b600082825260208201905092915050565b7f4163636573732064656e6965643a20596f7520617265206e6f742041646d696e600082015250565b60006112e460208361129d565b91506112ef826112ae565b602082019050919050565b60006020820190508181036000830152611313816112d7565b9050919050565b7f496e76616c696420757365722061646472657373000000000000000000000000600082015250565b600061135060148361129d565b915061135b8261131a565b602082019050919050565b6000602082019050818103600083015261137f81611343565b9050919050565b7f5072656d69756d206d7573742062652067726561746572207468616e207a657260008201527f6f00000000000000000000000000000000000000000000000000000000000000602082015250565b60006113e260218361129d565b91506113ed82611386565b604082019050919050565b60006020820190508181036000830152611411816113d5565b9050919050565b600080fd5b6000601f19601f8301169050919050565b7f4e487b7100000000000000000000000000000000000000000000000000000000600052604160045260246000fd5b6114668261141d565b810181811067ffffffffffffffff821117156114855761148461142e565b5b80604052505050565b6000611498611052565b90506114a4828261145d565b919050565b600067ffffffffffffffff8211156114c4576114c361142e565b5b602082029050602081019050919050565b600080fd5b6000815190506114e9816110ce565b92915050565b60006115026114fd846114a9565b61148e565b90508083825260208201905060208402830185811115611525576115246114d5565b5b835b8181101561154e578061153a88826114da565b845260208401935050602081019050611527565b5050509392505050565b600082601f83011261156d5761156c611418565b5b815161157d8482602086016114ef565b91505092915050565b60006020828403121561159c5761159b61105c565b5b600082015167ffffffffffffffff8111156115ba576115b9611061565b5b6115c684828501611558565b91505092915050565b7f4e487b7100000000000000000000000000000000000000000000000000000000600052603260045260246000fd5b7f4e487b7100000000000000000000000000000000000000000000000000000000600052601160045260246000fd5b6000611638826110c4565b91507fffffffffffffffffffffffffffffffffffffffffffffffffffffffffffffffff820361166a576116696115fe565b5b600182019050919050565b7f5573657220646f6573206e6f742068617665207468697320706f6c6963790000600082015250565b60006116ab601e8361129d565b91506116b682611675565b602082019050919050565b600060208201905081810360008301526116da8161169e565b9050919050565b7f5072656d69756d20616c72656164792073657420666f72207468697320706f6c60008201527f6963790000000000000000000000000000000000000000000000000000000000602082015250565b600061173d60238361129d565b9150611748826116e1565b604082019050919050565b6000602082019050818103600083015261176c81611730565b9050919050565b600060408201905061178860008301856111ba565b61179560208301846111ba565b9392505050565b7f4163636573732064656e6965643a20596f7520617265206e6f74205573657200600082015250565b60006117d2601f8361129d565b91506117dd8261179c565b602082019050919050565b60006020820190508181036000830152611801816117c5565b9050919050565b7f596f7520646f206e6f74206f776e207468697320706f6c696379000000000000600082015250565b600061183e601a8361129d565b915061184982611808565b602082019050919050565b6000602082019050818103600083015261186d81611831565b9050919050565b7f5072656d69756d20616c72656164792066756c6c792070616964000000000000600082015250565b60006118aa601a8361129d565b91506118b582611874565b602082019050919050565b600060208201905081810360008301526118d98161189d565b9050919050565b60006118eb826110c4565b91506118f6836110c4565b925082820190508082111561190e5761190d6115fe565b5b92915050565b7f45786365656473207072656d69756d20616d6f756e7400000000000000000000600082015250565b600061194a60168361129d565b915061195582611914565b602082019050919050565b600060208201905081810360008301526119798161193d565b9050919050565b7f5061796d656e74206661696c6564206f72207072656d69756d206e6f7420736560008201527f7400000000000000000000000000000000000000000000000000000000000000602082015250565b60006119dc60218361129d565b91506119e782611980565b604082019050919050565b60006020820190508181036000830152611a0b816119cf565b9050919050565b7f506f6c696379206e6f7420666f756e64206f72207072656d69756d206e6f742060008201527f7365740000000000000000000000000000000000000000000000000000000000602082015250565b6000611a6e60238361129d565b9150611a7982611a12565b604082019050919050565b60006020820190508181036000830152611a9d81611a61565b9050919050565b7f4163636573732064656e6965643a20596f7520617265206e6f7420612055736560008201527f72206f722041646d696e00000000000000000000000000000000000000000000602082015250565b6000611b00602a8361129d565b9150611b0b82611aa4565b604082019050919050565b60006020820190508181036000830152611b2f81611af3565b9050919050565b7f5072656d69756d206e6f7420666f756e6420666f72207468697320706f6c696360008201527f7920494400000000000000000000000000000000000000000000000000000000602082015250565b6000611b9260248361129d565b9150611b9d82611b36565b604082019050919050565b60006020820190508181036000830152611bc181611b85565b905091905056fea26469706673582212205201f85674d5af60b812a0bcd262f96d1de8802d561ba7cfdb6332ed015a904664736f6c63430008130033",
  "immutableReferences": {},
  "source": "// SPDX-License-Identifier: MIT\npragma solidity ^0.8.19;\n\nimport \"./PolicyManagement.sol\";\nimport \"./RoleManagement.sol\";\n\ncontract PremiumCollection {\n    RoleManagement private roleManagement;\n    PolicyManagement private policyManagement;\n\n    struct Premium {\n        uint256 policyID; \n        uint256 policyPremium;\n        uint256 amountPaid;\n    }\n\n    mapping(address => Premium[]) private userPremiums;\n    uint256 private poolBalance;\n\n    event PremiumPaid(address indexed user, uint256 policyId, uint256 amount);\n    event PoolBalanceUpdated(uint256 newBalance);\n    event UserPremiumSet(address indexed user, uint256 policyID, uint256 premium);\n    event AmountPaidReset(address indexed user, uint256 policyID);\n\n    constructor(address _roleManagementAddress, address _policyManagementAddress) {\n        roleManagement = RoleManagement(_roleManagementAddress);\n        policyManagement = PolicyManagement(_policyManagementAddress);\n    }\n\n    function setUserPremium(address user, uint256 policyID, uint256 policyPremium) public {\n        require(\n            roleManagement._isInAdmins(msg.sender),\n            \"Access denied: You are not Admin\"\n        );\n        require(roleManagement._isInUsers(user), \"Invalid user address\");\n        require(policyPremium > 0, \"Premium must be greater than zero\");\n\n        uint256[] memory userPolicies = policyManagement.getUserPolicies(user);\n        bool hasPolicy = false;\n        for (uint256 i = 0; i < userPolicies.length; i++) {\n            if (userPolicies[i] == policyID) {\n                hasPolicy = true;\n                break;\n            }\n        }\n        require(hasPolicy, \"User does not have this policy\");\n\n        Premium[] storage premiums = userPremiums[user];\n        for (uint256 i = 0; i < premiums.length; i++) {\n            require(\n                premiums[i].policyID != policyID,\n                \"Premium already set for this policy\"\n            );\n        }\n\n        premiums.push(Premium({\n            policyID: policyID,\n            policyPremium: policyPremium,\n            amountPaid: 0\n        }));\n\n        emit UserPremiumSet(user, policyID, policyPremium);\n    }\n\n    function paidPremium(address user, uint256 policyID) public view returns (bool) {\n    require(\n        roleManagement._isInUsers(msg.sender) || roleManagement._isInAdmins(msg.sender),\n        \"Access denied: You are not a User or Admin\"\n    );\n\n    Premium[] storage premiums = userPremiums[user];\n    for (uint256 i = 0; i < premiums.length; i++) {\n        if (premiums[i].policyID == policyID) {\n            return premiums[i].amountPaid > 0;\n        }\n    }\n\n    revert(\"Premium not found for this policy ID\");\n}\n\n    function payPremium(uint256 policyID) public payable {\n        require(\n            roleManagement._isInUsers(msg.sender), \n            \"Access denied: You are not User\"\n        );\n\n        uint256[] memory userPolicies = policyManagement.getUserPolicies(msg.sender);\n        bool hasPolicy = false;\n        for (uint256 i = 0; i < userPolicies.length; i++) {\n            if (userPolicies[i] == policyID) {\n                hasPolicy = true;\n                break;\n            }\n        }\n        require(hasPolicy, \"You do not own this policy\");\n\n        Premium[] storage premiums = userPremiums[msg.sender];\n        bool paymentMade = false;\n        \n        for (uint256 i = 0; i < premiums.length; i++) {\n            if (premiums[i].policyID == policyID) {\n                require(premiums[i].amountPaid < premiums[i].policyPremium, \"Premium already fully paid\");\n                require(msg.value + premiums[i].amountPaid <= premiums[i].policyPremium, \"Exceeds premium amount\");\n\n                premiums[i].amountPaid += msg.value;\n\n                poolBalance += msg.value;\n\n                emit PremiumPaid(msg.sender, policyID, msg.value);\n                emit PoolBalanceUpdated(poolBalance);\n                paymentMade = true;\n                break;\n            }\n        }\n\n        require(paymentMade, \"Payment failed or premium not set\");\n    }\n\n    function getPoolBalance() public view returns (uint256) {\n        require(\n            roleManagement._isInAdmins(msg.sender),\n            \"Access denied: You are not Admin\"\n        );\n        return poolBalance;\n    }\n\n    function resetAmountPaid(address user, uint256 policyID) public {\n        require(\n            roleManagement._isInAdmins(msg.sender), \n            \"Access denied: You are not Admin\"\n        );\n\n        Premium[] storage premiums = userPremiums[user];\n        bool resetDone = false;\n\n        for (uint256 i = 0; i < premiums.length; i++) {\n            if (premiums[i].policyID == policyID) {\n                premiums[i].amountPaid = 0;\n                resetDone = true;\n\n                emit AmountPaidReset(user, policyID);\n                break;\n            }\n        }\n\n        require(resetDone, \"Policy not found or premium not set\");\n    }\n}",
  "sourcePath": "/Users/doodee/CarInsuranceProject/contracts/PremiumCollection.sol",
  "compiler": {
    "name": "solc",
    "version": "0.8.19+commit.7dd6d404.Emscripten.clang"
  },
  "schemaVersion": "3.4.16",
  "updatedAt": "2024-12-12T07:15:32.136Z",
  "networkType": "ethereum",
  "devdoc": {
    "kind": "dev",
    "methods": {},
    "version": 1
  },
  "userdoc": {
    "kind": "user",
    "methods": {},
    "version": 1
  }
}