{
  "contractName": "PremiumCollection",
  "abi": [
    {
      "inputs": [
        {
          "internalType": "address",
          "name": "_roleManagementAddress",
          "type": "address"
        },
        {
          "internalType": "address",
          "name": "_policyManagementAddress",
          "type": "address"
        }
      ],
      "stateMutability": "nonpayable",
      "type": "constructor"
    },
    {
      "anonymous": false,
      "inputs": [
        {
          "indexed": true,
          "internalType": "address",
          "name": "user",
          "type": "address"
        },
        {
          "indexed": false,
          "internalType": "uint256",
          "name": "policyID",
          "type": "uint256"
        }
      ],
      "name": "AmountPaidReset",
      "type": "event"
    },
    {
      "anonymous": false,
      "inputs": [
        {
          "indexed": false,
          "internalType": "uint256",
          "name": "newBalance",
          "type": "uint256"
        }
      ],
      "name": "PoolBalanceUpdated",
      "type": "event"
    },
    {
      "anonymous": false,
      "inputs": [
        {
          "indexed": true,
          "internalType": "address",
          "name": "user",
          "type": "address"
        },
        {
          "indexed": false,
          "internalType": "uint256",
          "name": "policyId",
          "type": "uint256"
        },
        {
          "indexed": false,
          "internalType": "uint256",
          "name": "amount",
          "type": "uint256"
        }
      ],
      "name": "PremiumPaid",
      "type": "event"
    },
    {
      "anonymous": false,
      "inputs": [
        {
          "indexed": true,
          "internalType": "address",
          "name": "user",
          "type": "address"
        },
        {
          "indexed": false,
          "internalType": "uint256",
          "name": "policyID",
          "type": "uint256"
        },
        {
          "indexed": false,
          "internalType": "uint256",
          "name": "premium",
          "type": "uint256"
        }
      ],
      "name": "UserPremiumSet",
      "type": "event"
    },
    {
      "inputs": [
        {
          "internalType": "address",
          "name": "user",
          "type": "address"
        },
        {
          "internalType": "uint256",
          "name": "policyID",
          "type": "uint256"
        },
        {
          "internalType": "uint256",
          "name": "policyPremium",
          "type": "uint256"
        }
      ],
      "name": "setUserPremium",
      "outputs": [],
      "stateMutability": "nonpayable",
      "type": "function"
    },
    {
      "inputs": [
        {
          "internalType": "address",
          "name": "user",
          "type": "address"
        },
        {
          "internalType": "uint256",
          "name": "policyID",
          "type": "uint256"
        }
      ],
      "name": "paidPremium",
      "outputs": [
        {
          "internalType": "bool",
          "name": "",
          "type": "bool"
        }
      ],
      "stateMutability": "view",
      "type": "function",
      "constant": true
    },
    {
      "inputs": [
        {
          "internalType": "uint256",
          "name": "policyID",
          "type": "uint256"
        }
      ],
      "name": "payPremium",
      "outputs": [],
      "stateMutability": "payable",
      "type": "function",
      "payable": true
    },
    {
      "inputs": [],
      "name": "getPoolBalance",
      "outputs": [
        {
          "internalType": "uint256",
          "name": "",
          "type": "uint256"
        }
      ],
      "stateMutability": "view",
      "type": "function",
      "constant": true
    },
    {
      "inputs": [
        {
          "internalType": "address",
          "name": "user",
          "type": "address"
        },
        {
          "internalType": "uint256",
          "name": "policyID",
          "type": "uint256"
        }
      ],
      "name": "resetAmountPaid",
      "outputs": [],
      "stateMutability": "nonpayable",
      "type": "function"
    },
    {
      "inputs": [
        {
          "internalType": "uint256",
          "name": "amount",
          "type": "uint256"
        }
      ],
      "name": "decreasePoolBalance",
      "outputs": [],
      "stateMutability": "nonpayable",
      "type": "function"
    },
    {
      "inputs": [
        {
          "internalType": "address",
          "name": "user",
          "type": "address"
        }
      ],
      "name": "getUserCoverageLimit",
      "outputs": [
        {
          "internalType": "uint256",
          "name": "",
          "type": "uint256"
        }
      ],
      "stateMutability": "view",
      "type": "function",
      "constant": true
    }
  ],
  "bytecode": "0x60806040523480156200001157600080fd5b50604051620021373803806200213783398181016040528101906200003791906200012a565b816000806101000a81548173ffffffffffffffffffffffffffffffffffffffff021916908373ffffffffffffffffffffffffffffffffffffffff16021790555080600160006101000a81548173ffffffffffffffffffffffffffffffffffffffff021916908373ffffffffffffffffffffffffffffffffffffffff160217905550505062000171565b600080fd5b600073ffffffffffffffffffffffffffffffffffffffff82169050919050565b6000620000f282620000c5565b9050919050565b6200010481620000e5565b81146200011057600080fd5b50565b6000815190506200012481620000f9565b92915050565b60008060408385031215620001445762000143620000c0565b5b6000620001548582860162000113565b9250506020620001678582860162000113565b9150509250929050565b611fb680620001816000396000f3fe6080604052600436106100705760003560e01c8063951f82471161004e578063951f8247146100f7578063abd70aa214610120578063c2a449491461014b578063d55236eb1461017457610070565b80631f9327a71461007557806328dbba64146100b25780634364b26e146100db575b600080fd5b34801561008157600080fd5b5061009c600480360381019061009791906113af565b6101b1565b6040516100a991906113f5565b60405180910390f35b3480156100be57600080fd5b506100d960048036038101906100d4919061143c565b61029d565b005b6100f560048036038101906100f0919061148f565b61074c565b005b34801561010357600080fd5b5061011e600480360381019061011991906114bc565b610c34565b005b34801561012c57600080fd5b50610135610e66565b60405161014291906113f5565b60405180910390f35b34801561015757600080fd5b50610172600480360381019061016d919061148f565b610f4a565b005b34801561018057600080fd5b5061019b600480360381019061019691906114bc565b6110bd565b6040516101a89190611517565b60405180910390f35b60008060009054906101000a900473ffffffffffffffffffffffffffffffffffffffff1673ffffffffffffffffffffffffffffffffffffffff166372a0b694336040518263ffffffff1660e01b815260040161020d9190611541565b602060405180830381865afa15801561022a573d6000803e3d6000fd5b505050506040513d601f19601f8201168201806040525081019061024e9190611588565b61028d576040517f08c379a000000000000000000000000000000000000000000000000000000000815260040161028490611612565b60405180910390fd5b610296826101b1565b9050919050565b60008054906101000a900473ffffffffffffffffffffffffffffffffffffffff1673ffffffffffffffffffffffffffffffffffffffff166372a0b694336040518263ffffffff1660e01b81526004016102f69190611541565b602060405180830381865afa158015610313573d6000803e3d6000fd5b505050506040513d601f19601f820116820180604052508101906103379190611588565b610376576040517f08c379a000000000000000000000000000000000000000000000000000000000815260040161036d90611612565b60405180910390fd5b60008054906101000a900473ffffffffffffffffffffffffffffffffffffffff1673ffffffffffffffffffffffffffffffffffffffff16635ed721f7846040518263ffffffff1660e01b81526004016103cf9190611541565b602060405180830381865afa1580156103ec573d6000803e3d6000fd5b505050506040513d601f19601f820116820180604052508101906104109190611588565b61044f576040517f08c379a00000000000000000000000000000000000000000000000000000000081526004016104469061167e565b60405180910390fd5b60008111610492576040517f08c379a000000000000000000000000000000000000000000000000000000000815260040161048990611710565b60405180910390fd5b6000600160009054906101000a900473ffffffffffffffffffffffffffffffffffffffff1673ffffffffffffffffffffffffffffffffffffffff166319ac4614856040518263ffffffff1660e01b81526004016104ef9190611541565b600060405180830381865afa15801561050c573d6000803e3d6000fd5b505050506040513d6000823e3d601f19601f82011682018060405250810190610535919061189e565b90506000805b82518110156105815784838281518110610558576105576118e7565b5b60200260200101510361056e5760019150610581565b808061057990611945565b91505061053b565b50806105c2576040517f08c379a00000000000000000000000000000000000000000000000000000000081526004016105b9906119d9565b60405180910390fd5b6000600260008773ffffffffffffffffffffffffffffffffffffffff1673ffffffffffffffffffffffffffffffffffffffff168152602001908152602001600020905060005b818054905081101561068d5785828281548110610628576106276118e7565b5b9060005260206000209060030201600001540361067a576040517f08c379a000000000000000000000000000000000000000000000000000000000815260040161067190611a6b565b60405180910390fd5b808061068590611945565b915050610608565b508060405180606001604052808781526020018681526020016000815250908060018154018082558091505060019003906000526020600020906003020160009091909190915060008201518160000155602082015181600101556040820151816002015550508573ffffffffffffffffffffffffffffffffffffffff167f686f97e28970a23372256f2f347a17d4848ea4fabfb9987d7b517724ad9581e5868660405161073c929190611a8b565b60405180910390a2505050505050565b60008054906101000a900473ffffffffffffffffffffffffffffffffffffffff1673ffffffffffffffffffffffffffffffffffffffff16635ed721f7336040518263ffffffff1660e01b81526004016107a59190611541565b602060405180830381865afa1580156107c2573d6000803e3d6000fd5b505050506040513d601f19601f820116820180604052508101906107e69190611588565b610825576040517f08c379a000000000000000000000000000000000000000000000000000000000815260040161081c90611b00565b60405180910390fd5b6000600160009054906101000a900473ffffffffffffffffffffffffffffffffffffffff1673ffffffffffffffffffffffffffffffffffffffff166319ac4614336040518263ffffffff1660e01b81526004016108829190611541565b600060405180830381865afa15801561089f573d6000803e3d6000fd5b505050506040513d6000823e3d601f19601f820116820180604052508101906108c8919061189e565b90506000805b825181101561091457838382815181106108eb576108ea6118e7565b5b6020026020010151036109015760019150610914565b808061090c90611945565b9150506108ce565b5080610955576040517f08c379a000000000000000000000000000000000000000000000000000000000815260040161094c90611b6c565b60405180910390fd5b6000600260003373ffffffffffffffffffffffffffffffffffffffff1673ffffffffffffffffffffffffffffffffffffffff16815260200190815260200160002090506000805b8280549050811015610bec57858382815481106109bc576109bb6118e7565b5b90600052602060002090600302016000015403610bd9578281815481106109e6576109e56118e7565b5b906000526020600020906003020160010154838281548110610a0b57610a0a6118e7565b5b90600052602060002090600302016002015410610a5d576040517f08c379a0000000000000000000000000000000000000000000000000000000008152600401610a5490611bd8565b60405180910390fd5b828181548110610a7057610a6f6118e7565b5b906000526020600020906003020160010154838281548110610a9557610a946118e7565b5b90600052602060002090600302016002015434610ab29190611bf8565b1115610af3576040517f08c379a0000000000000000000000000000000000000000000000000000000008152600401610aea90611c78565b60405180910390fd5b34838281548110610b0757610b066118e7565b5b90600052602060002090600302016002016000828254610b279190611bf8565b925050819055503460036000828254610b409190611bf8565b925050819055503373ffffffffffffffffffffffffffffffffffffffff167f395bd21029ce552d1941c174d800a5599c4b1b28887cc9b9eea83c5409da93ef8734604051610b8f929190611a8b565b60405180910390a27f812a312bfbc57c3813f93d3e1a8515055ed46fc860bd4e2ad39b02198d2a3b73600354604051610bc891906113f5565b60405180910390a160019150610bec565b8080610be490611945565b91505061099c565b5080610c2d576040517f08c379a0000000000000000000000000000000000000000000000000000000008152600401610c2490611d0a565b60405180910390fd5b5050505050565b60008054906101000a900473ffffffffffffffffffffffffffffffffffffffff1673ffffffffffffffffffffffffffffffffffffffff166372a0b694336040518263ffffffff1660e01b8152600401610c8d9190611541565b602060405180830381865afa158015610caa573d6000803e3d6000fd5b505050506040513d601f19601f82011682018060405250810190610cce9190611588565b610d0d576040517f08c379a0000000000000000000000000000000000000000000000000000000008152600401610d0490611612565b60405180910390fd5b6000600260008473ffffffffffffffffffffffffffffffffffffffff1673ffffffffffffffffffffffffffffffffffffffff16815260200190815260200160002090506000805b8280549050811015610e1f5783838281548110610d7457610d736118e7565b5b90600052602060002090600302016000015403610e0c576000838281548110610da057610d9f6118e7565b5b906000526020600020906003020160020181905550600191508473ffffffffffffffffffffffffffffffffffffffff167f8e335af2d380690f99ff5482c0c983c4075cde70dfb31d4a659b31bd5127361f85604051610dff91906113f5565b60405180910390a2610e1f565b8080610e1790611945565b915050610d54565b5080610e60576040517f08c379a0000000000000000000000000000000000000000000000000000000008152600401610e5790611d9c565b60405180910390fd5b50505050565b60008060009054906101000a900473ffffffffffffffffffffffffffffffffffffffff1673ffffffffffffffffffffffffffffffffffffffff166372a0b694336040518263ffffffff1660e01b8152600401610ec29190611541565b602060405180830381865afa158015610edf573d6000803e3d6000fd5b505050506040513d601f19601f82011682018060405250810190610f039190611588565b610f42576040517f08c379a0000000000000000000000000000000000000000000000000000000008152600401610f3990611612565b60405180910390fd5b600354905090565b60008054906101000a900473ffffffffffffffffffffffffffffffffffffffff1673ffffffffffffffffffffffffffffffffffffffff166372a0b694336040518263ffffffff1660e01b8152600401610fa39190611541565b602060405180830381865afa158015610fc0573d6000803e3d6000fd5b505050506040513d601f19601f82011682018060405250810190610fe49190611588565b611023576040517f08c379a000000000000000000000000000000000000000000000000000000000815260040161101a90611612565b60405180910390fd5b806003541015611068576040517f08c379a000000000000000000000000000000000000000000000000000000000815260040161105f90611e08565b60405180910390fd5b806003600082825461107a9190611e28565b925050819055507f812a312bfbc57c3813f93d3e1a8515055ed46fc860bd4e2ad39b02198d2a3b736003546040516110b291906113f5565b60405180910390a150565b60008060009054906101000a900473ffffffffffffffffffffffffffffffffffffffff1673ffffffffffffffffffffffffffffffffffffffff16635ed721f7336040518263ffffffff1660e01b81526004016111199190611541565b602060405180830381865afa158015611136573d6000803e3d6000fd5b505050506040513d601f19601f8201168201806040525081019061115a9190611588565b806111fb575060008054906101000a900473ffffffffffffffffffffffffffffffffffffffff1673ffffffffffffffffffffffffffffffffffffffff166372a0b694336040518263ffffffff1660e01b81526004016111b99190611541565b602060405180830381865afa1580156111d6573d6000803e3d6000fd5b505050506040513d601f19601f820116820180604052508101906111fa9190611588565b5b61123a576040517f08c379a000000000000000000000000000000000000000000000000000000000815260040161123190611ece565b60405180910390fd5b6000600260008573ffffffffffffffffffffffffffffffffffffffff1673ffffffffffffffffffffffffffffffffffffffff168152602001908152602001600020905060005b81805490508110156112fb57838282815481106112a05761129f6118e7565b5b906000526020600020906003020160000154036112e85760008282815481106112cc576112cb6118e7565b5b9060005260206000209060030201600201541192505050611337565b80806112f390611945565b915050611280565b506040517f08c379a000000000000000000000000000000000000000000000000000000000815260040161132e90611f60565b60405180910390fd5b92915050565b6000604051905090565b600080fd5b600080fd5b600073ffffffffffffffffffffffffffffffffffffffff82169050919050565b600061137c82611351565b9050919050565b61138c81611371565b811461139757600080fd5b50565b6000813590506113a981611383565b92915050565b6000602082840312156113c5576113c4611347565b5b60006113d38482850161139a565b91505092915050565b6000819050919050565b6113ef816113dc565b82525050565b600060208201905061140a60008301846113e6565b92915050565b611419816113dc565b811461142457600080fd5b50565b60008135905061143681611410565b92915050565b60008060006060848603121561145557611454611347565b5b60006114638682870161139a565b935050602061147486828701611427565b925050604061148586828701611427565b9150509250925092565b6000602082840312156114a5576114a4611347565b5b60006114b384828501611427565b91505092915050565b600080604083850312156114d3576114d2611347565b5b60006114e18582860161139a565b92505060206114f285828601611427565b9150509250929050565b60008115159050919050565b611511816114fc565b82525050565b600060208201905061152c6000830184611508565b92915050565b61153b81611371565b82525050565b60006020820190506115566000830184611532565b92915050565b611565816114fc565b811461157057600080fd5b50565b6000815190506115828161155c565b92915050565b60006020828403121561159e5761159d611347565b5b60006115ac84828501611573565b91505092915050565b600082825260208201905092915050565b7f4163636573732064656e6965643a20596f7520617265206e6f742041646d696e600082015250565b60006115fc6020836115b5565b9150611607826115c6565b602082019050919050565b6000602082019050818103600083015261162b816115ef565b9050919050565b7f496e76616c696420757365722061646472657373000000000000000000000000600082015250565b60006116686014836115b5565b915061167382611632565b602082019050919050565b600060208201905081810360008301526116978161165b565b9050919050565b7f5072656d69756d206d7573742062652067726561746572207468616e207a657260008201527f6f00000000000000000000000000000000000000000000000000000000000000602082015250565b60006116fa6021836115b5565b91506117058261169e565b604082019050919050565b60006020820190508181036000830152611729816116ed565b9050919050565b600080fd5b6000601f19601f8301169050919050565b7f4e487b7100000000000000000000000000000000000000000000000000000000600052604160045260246000fd5b61177e82611735565b810181811067ffffffffffffffff8211171561179d5761179c611746565b5b80604052505050565b60006117b061133d565b90506117bc8282611775565b919050565b600067ffffffffffffffff8211156117dc576117db611746565b5b602082029050602081019050919050565b600080fd5b60008151905061180181611410565b92915050565b600061181a611815846117c1565b6117a6565b9050808382526020820190506020840283018581111561183d5761183c6117ed565b5b835b81811015611866578061185288826117f2565b84526020840193505060208101905061183f565b5050509392505050565b600082601f83011261188557611884611730565b5b8151611895848260208601611807565b91505092915050565b6000602082840312156118b4576118b3611347565b5b600082015167ffffffffffffffff8111156118d2576118d161134c565b5b6118de84828501611870565b91505092915050565b7f4e487b7100000000000000000000000000000000000000000000000000000000600052603260045260246000fd5b7f4e487b7100000000000000000000000000000000000000000000000000000000600052601160045260246000fd5b6000611950826113dc565b91507fffffffffffffffffffffffffffffffffffffffffffffffffffffffffffffffff820361198257611981611916565b5b600182019050919050565b7f5573657220646f6573206e6f742068617665207468697320706f6c6963790000600082015250565b60006119c3601e836115b5565b91506119ce8261198d565b602082019050919050565b600060208201905081810360008301526119f2816119b6565b9050919050565b7f5072656d69756d20616c72656164792073657420666f72207468697320706f6c60008201527f6963790000000000000000000000000000000000000000000000000000000000602082015250565b6000611a556023836115b5565b9150611a60826119f9565b604082019050919050565b60006020820190508181036000830152611a8481611a48565b9050919050565b6000604082019050611aa060008301856113e6565b611aad60208301846113e6565b9392505050565b7f4163636573732064656e6965643a20596f7520617265206e6f74205573657200600082015250565b6000611aea601f836115b5565b9150611af582611ab4565b602082019050919050565b60006020820190508181036000830152611b1981611add565b9050919050565b7f596f7520646f206e6f74206f776e207468697320706f6c696379000000000000600082015250565b6000611b56601a836115b5565b9150611b6182611b20565b602082019050919050565b60006020820190508181036000830152611b8581611b49565b9050919050565b7f5072656d69756d20616c72656164792066756c6c792070616964000000000000600082015250565b6000611bc2601a836115b5565b9150611bcd82611b8c565b602082019050919050565b60006020820190508181036000830152611bf181611bb5565b9050919050565b6000611c03826113dc565b9150611c0e836113dc565b9250828201905080821115611c2657611c25611916565b5b92915050565b7f45786365656473207072656d69756d20616d6f756e7400000000000000000000600082015250565b6000611c626016836115b5565b9150611c6d82611c2c565b602082019050919050565b60006020820190508181036000830152611c9181611c55565b9050919050565b7f5061796d656e74206661696c6564206f72207072656d69756d206e6f7420736560008201527f7400000000000000000000000000000000000000000000000000000000000000602082015250565b6000611cf46021836115b5565b9150611cff82611c98565b604082019050919050565b60006020820190508181036000830152611d2381611ce7565b9050919050565b7f506f6c696379206e6f7420666f756e64206f72207072656d69756d206e6f742060008201527f7365740000000000000000000000000000000000000000000000000000000000602082015250565b6000611d866023836115b5565b9150611d9182611d2a565b604082019050919050565b60006020820190508181036000830152611db581611d79565b9050919050565b7f496e73756666696369656e7420706f6f6c2062616c616e636500000000000000600082015250565b6000611df26019836115b5565b9150611dfd82611dbc565b602082019050919050565b60006020820190508181036000830152611e2181611de5565b9050919050565b6000611e33826113dc565b9150611e3e836113dc565b9250828203905081811115611e5657611e55611916565b5b92915050565b7f4163636573732064656e6965643a20596f7520617265206e6f7420612055736560008201527f72206f722041646d696e00000000000000000000000000000000000000000000602082015250565b6000611eb8602a836115b5565b9150611ec382611e5c565b604082019050919050565b60006020820190508181036000830152611ee781611eab565b9050919050565b7f5072656d69756d206e6f7420666f756e6420666f72207468697320706f6c696360008201527f7920494400000000000000000000000000000000000000000000000000000000602082015250565b6000611f4a6024836115b5565b9150611f5582611eee565b604082019050919050565b60006020820190508181036000830152611f7981611f3d565b905091905056fea2646970667358221220ec1d4941782c86f50e7bb3310819686d0f9dca44dd7a36229a503dd0c522d78a64736f6c63430008130033",
  "immutableReferences": {},
  "source": "// SPDX-License-Identifier: MIT\npragma solidity ^0.8.19;\n\nimport \"./PolicyManagement.sol\";\nimport \"./RoleManagement.sol\";\n\ncontract PremiumCollection {\n    RoleManagement private roleManagement;\n    PolicyManagement private policyManagement;\n\n    struct Premium {\n        uint256 policyID; \n        uint256 policyPremium;\n        uint256 amountPaid;\n    }\n\n    mapping(address => Premium[]) private userPremiums;\n    uint256 private poolBalance;\n\n    event PremiumPaid(address indexed user, uint256 policyId, uint256 amount);\n    event PoolBalanceUpdated(uint256 newBalance);\n    event UserPremiumSet(address indexed user, uint256 policyID, uint256 premium);\n    event AmountPaidReset(address indexed user, uint256 policyID);\n\n    constructor(address _roleManagementAddress, address _policyManagementAddress) {\n        roleManagement = RoleManagement(_roleManagementAddress);\n        policyManagement = PolicyManagement(_policyManagementAddress);\n    }\n\n    function setUserPremium(address user, uint256 policyID, uint256 policyPremium) public {\n        require(\n            roleManagement._isInAdmins(msg.sender),\n            \"Access denied: You are not Admin\"\n        );\n        require(roleManagement._isInUsers(user), \"Invalid user address\");\n        require(policyPremium > 0, \"Premium must be greater than zero\");\n\n        uint256[] memory userPolicies = policyManagement.getUserPolicies(user);\n        bool hasPolicy = false;\n        for (uint256 i = 0; i < userPolicies.length; i++) {\n            if (userPolicies[i] == policyID) {\n                hasPolicy = true;\n                break;\n            }\n        }\n        require(hasPolicy, \"User does not have this policy\");\n\n        Premium[] storage premiums = userPremiums[user];\n        for (uint256 i = 0; i < premiums.length; i++) {\n            require(\n                premiums[i].policyID != policyID,\n                \"Premium already set for this policy\"\n            );\n        }\n\n        premiums.push(Premium({\n            policyID: policyID,\n            policyPremium: policyPremium,\n            amountPaid: 0\n        }));\n\n        emit UserPremiumSet(user, policyID, policyPremium);\n    }\n\n    function paidPremium(address user, uint256 policyID) public view returns (bool) {\n        require(\n            roleManagement._isInUsers(msg.sender) || roleManagement._isInAdmins(msg.sender),\n            \"Access denied: You are not a User or Admin\"\n        );\n\n        Premium[] storage premiums = userPremiums[user];\n        for (uint256 i = 0; i < premiums.length; i++) {\n            if (premiums[i].policyID == policyID) {\n                return premiums[i].amountPaid > 0;\n            }\n        }\n\n        revert(\"Premium not found for this policy ID\");\n    }\n\n    function payPremium(uint256 policyID) public payable {\n        require(\n            roleManagement._isInUsers(msg.sender), \n            \"Access denied: You are not User\"\n        );\n\n        uint256[] memory userPolicies = policyManagement.getUserPolicies(msg.sender);\n        bool hasPolicy = false;\n        for (uint256 i = 0; i < userPolicies.length; i++) {\n            if (userPolicies[i] == policyID) {\n                hasPolicy = true;\n                break;\n            }\n        }\n        require(hasPolicy, \"You do not own this policy\");\n\n        Premium[] storage premiums = userPremiums[msg.sender];\n        bool paymentMade = false;\n        \n        for (uint256 i = 0; i < premiums.length; i++) {\n            if (premiums[i].policyID == policyID) {\n                require(premiums[i].amountPaid < premiums[i].policyPremium, \"Premium already fully paid\");\n                require(msg.value + premiums[i].amountPaid <= premiums[i].policyPremium, \"Exceeds premium amount\");\n\n                premiums[i].amountPaid += msg.value;\n\n                poolBalance += msg.value;\n\n                emit PremiumPaid(msg.sender, policyID, msg.value);\n                emit PoolBalanceUpdated(poolBalance);\n                paymentMade = true;\n                break;\n            }\n        }\n\n        require(paymentMade, \"Payment failed or premium not set\");\n    }\n\n    function getPoolBalance() public view returns (uint256) {\n        require(\n            roleManagement._isInAdmins(msg.sender),\n            \"Access denied: You are not Admin\"\n        );\n        return poolBalance;\n    }\n\n    function resetAmountPaid(address user, uint256 policyID) public {\n        require(\n            roleManagement._isInAdmins(msg.sender), \n            \"Access denied: You are not Admin\"\n        );\n\n        Premium[] storage premiums = userPremiums[user];\n        bool resetDone = false;\n\n        for (uint256 i = 0; i < premiums.length; i++) {\n            if (premiums[i].policyID == policyID) {\n                premiums[i].amountPaid = 0;\n                resetDone = true;\n\n                emit AmountPaidReset(user, policyID);\n                break;\n            }\n        }\n\n        require(resetDone, \"Policy not found or premium not set\");\n    }\n\n    function decreasePoolBalance(uint256 amount) public {\n        require(\n            roleManagement._isInAdmins(msg.sender),\n            \"Access denied: You are not Admin\"\n        );\n        require(poolBalance >= amount, \"Insufficient pool balance\");\n        poolBalance -= amount;\n        emit PoolBalanceUpdated(poolBalance);\n    }\n\n    function getUserCoverageLimit(address user) public view returns (uint256) {\n    require(\n        roleManagement._isInAdmins(msg.sender),\n        \"Access denied: You are not Admin\"\n    );\n    return getUserCoverageLimit(user);\n}\n\n}\n",
  "sourcePath": "/Users/doodee/CarInsuranceProject/contracts/PremiumCollection.sol",
  "compiler": {
    "name": "solc",
    "version": "0.8.19+commit.7dd6d404.Emscripten.clang"
  },
  "schemaVersion": "3.4.16",
  "updatedAt": "2024-12-12T11:17:09.158Z",
  "networkType": "ethereum",
  "devdoc": {
    "kind": "dev",
    "methods": {},
    "version": 1
  },
  "userdoc": {
    "kind": "user",
    "methods": {},
    "version": 1
  }
}