{
  "contractName": "RoleManagement",
  "abi": [
    {
      "inputs": [
        {
          "internalType": "address[]",
          "name": "initialAdmins",
          "type": "address[]"
        }
      ],
      "stateMutability": "nonpayable",
      "type": "constructor"
    },
    {
      "anonymous": false,
      "inputs": [
        {
          "indexed": true,
          "internalType": "bytes32",
          "name": "role",
          "type": "bytes32"
        },
        {
          "indexed": true,
          "internalType": "bytes32",
          "name": "previousAdminRole",
          "type": "bytes32"
        },
        {
          "indexed": true,
          "internalType": "bytes32",
          "name": "newAdminRole",
          "type": "bytes32"
        }
      ],
      "name": "RoleAdminChanged",
      "type": "event"
    },
    {
      "anonymous": false,
      "inputs": [
        {
          "indexed": true,
          "internalType": "bytes32",
          "name": "role",
          "type": "bytes32"
        },
        {
          "indexed": true,
          "internalType": "address",
          "name": "account",
          "type": "address"
        },
        {
          "indexed": true,
          "internalType": "address",
          "name": "sender",
          "type": "address"
        }
      ],
      "name": "RoleGranted",
      "type": "event"
    },
    {
      "anonymous": false,
      "inputs": [
        {
          "indexed": true,
          "internalType": "bytes32",
          "name": "role",
          "type": "bytes32"
        },
        {
          "indexed": true,
          "internalType": "address",
          "name": "account",
          "type": "address"
        },
        {
          "indexed": true,
          "internalType": "address",
          "name": "sender",
          "type": "address"
        }
      ],
      "name": "RoleRevoked",
      "type": "event"
    },
    {
      "inputs": [],
      "name": "ADMIN_ROLE",
      "outputs": [
        {
          "internalType": "bytes32",
          "name": "",
          "type": "bytes32"
        }
      ],
      "stateMutability": "view",
      "type": "function"
    },
    {
      "inputs": [],
      "name": "DEFAULT_ADMIN_ROLE",
      "outputs": [
        {
          "internalType": "bytes32",
          "name": "",
          "type": "bytes32"
        }
      ],
      "stateMutability": "view",
      "type": "function"
    },
    {
      "inputs": [],
      "name": "POLICY_HOLDER_ROLE",
      "outputs": [
        {
          "internalType": "bytes32",
          "name": "",
          "type": "bytes32"
        }
      ],
      "stateMutability": "view",
      "type": "function"
    },
    {
      "inputs": [
        {
          "internalType": "uint256",
          "name": "",
          "type": "uint256"
        }
      ],
      "name": "admins",
      "outputs": [
        {
          "internalType": "address",
          "name": "",
          "type": "address"
        }
      ],
      "stateMutability": "view",
      "type": "function"
    },
    {
      "inputs": [
        {
          "internalType": "bytes32",
          "name": "role",
          "type": "bytes32"
        }
      ],
      "name": "getRoleAdmin",
      "outputs": [
        {
          "internalType": "bytes32",
          "name": "",
          "type": "bytes32"
        }
      ],
      "stateMutability": "view",
      "type": "function"
    },
    {
      "inputs": [
        {
          "internalType": "bytes32",
          "name": "role",
          "type": "bytes32"
        },
        {
          "internalType": "address",
          "name": "account",
          "type": "address"
        }
      ],
      "name": "grantRole",
      "outputs": [],
      "stateMutability": "nonpayable",
      "type": "function"
    },
    {
      "inputs": [
        {
          "internalType": "bytes32",
          "name": "role",
          "type": "bytes32"
        },
        {
          "internalType": "address",
          "name": "account",
          "type": "address"
        }
      ],
      "name": "hasRole",
      "outputs": [
        {
          "internalType": "bool",
          "name": "",
          "type": "bool"
        }
      ],
      "stateMutability": "view",
      "type": "function"
    },
    {
      "inputs": [
        {
          "internalType": "bytes32",
          "name": "role",
          "type": "bytes32"
        },
        {
          "internalType": "address",
          "name": "account",
          "type": "address"
        }
      ],
      "name": "renounceRole",
      "outputs": [],
      "stateMutability": "nonpayable",
      "type": "function"
    },
    {
      "inputs": [
        {
          "internalType": "bytes32",
          "name": "role",
          "type": "bytes32"
        },
        {
          "internalType": "address",
          "name": "account",
          "type": "address"
        }
      ],
      "name": "revokeRole",
      "outputs": [],
      "stateMutability": "nonpayable",
      "type": "function"
    },
    {
      "inputs": [
        {
          "internalType": "bytes4",
          "name": "interfaceId",
          "type": "bytes4"
        }
      ],
      "name": "supportsInterface",
      "outputs": [
        {
          "internalType": "bool",
          "name": "",
          "type": "bool"
        }
      ],
      "stateMutability": "view",
      "type": "function"
    },
    {
      "inputs": [
        {
          "internalType": "uint256",
          "name": "",
          "type": "uint256"
        }
      ],
      "name": "users",
      "outputs": [
        {
          "internalType": "address",
          "name": "",
          "type": "address"
        }
      ],
      "stateMutability": "view",
      "type": "function"
    },
    {
      "inputs": [
        {
          "internalType": "address",
          "name": "account",
          "type": "address"
        }
      ],
      "name": "addAdmin",
      "outputs": [],
      "stateMutability": "nonpayable",
      "type": "function"
    },
    {
      "inputs": [
        {
          "internalType": "address",
          "name": "account",
          "type": "address"
        }
      ],
      "name": "addUser",
      "outputs": [],
      "stateMutability": "nonpayable",
      "type": "function"
    },
    {
      "inputs": [
        {
          "internalType": "address",
          "name": "account",
          "type": "address"
        }
      ],
      "name": "_isInAdmins",
      "outputs": [
        {
          "internalType": "bool",
          "name": "",
          "type": "bool"
        }
      ],
      "stateMutability": "view",
      "type": "function"
    },
    {
      "inputs": [
        {
          "internalType": "address",
          "name": "account",
          "type": "address"
        }
      ],
      "name": "_isInUsers",
      "outputs": [
        {
          "internalType": "bool",
          "name": "",
          "type": "bool"
        }
      ],
      "stateMutability": "view",
      "type": "function"
    },
    {
      "inputs": [
        {
          "internalType": "address",
          "name": "account",
          "type": "address"
        }
      ],
      "name": "roleOfAddress",
      "outputs": [
        {
          "internalType": "address",
          "name": "",
          "type": "address"
        },
        {
          "internalType": "string",
          "name": "",
          "type": "string"
        }
      ],
      "stateMutability": "view",
      "type": "function"
    }
  ],
  "bytecode": "0x60806040523480156200001157600080fd5b5060405162001e6838038062001e68833981810160405281019062000037919062000603565b620000697fa49807205ce4d355092ef5a8a18f56e8913cf4a201fbe287825b095693c2177533620001fc60201b60201c565b6001339080600181540180825580915050600190039060005260206000200160009091909190916101000a81548173ffffffffffffffffffffffffffffffffffffffff021916908373ffffffffffffffffffffffffffffffffffffffff16021790555060005b8151811015620001f457620001096001838381518110620000f557620000f462000654565b5b6020026020010151620002ed60201b60201c565b620001de576200015d7fa49807205ce4d355092ef5a8a18f56e8913cf4a201fbe287825b095693c2177583838151811062000149576200014862000654565b5b6020026020010151620001fc60201b60201c565b600182828151811062000175576200017462000654565b5b60200260200101519080600181540180825580915050600190039060005260206000200160009091909190916101000a81548173ffffffffffffffffffffffffffffffffffffffff021916908373ffffffffffffffffffffffffffffffffffffffff1602179055505b8080620001eb90620006bc565b915050620000cf565b505062000709565b6200020e8282620003a360201b60201c565b620002e957600160008084815260200190815260200160002060000160008373ffffffffffffffffffffffffffffffffffffffff1673ffffffffffffffffffffffffffffffffffffffff16815260200190815260200160002060006101000a81548160ff0219169083151502179055506200028e6200040d60201b60201c565b73ffffffffffffffffffffffffffffffffffffffff168173ffffffffffffffffffffffffffffffffffffffff16837f2f8788117e7eff1d82e926ec794901d17c78024a50270940304540a733656f0d60405160405180910390a45b5050565b600080600090505b838054905081101562000397578273ffffffffffffffffffffffffffffffffffffffff168482815481106200032f576200032e62000654565b5b9060005260206000200160009054906101000a900473ffffffffffffffffffffffffffffffffffffffff1673ffffffffffffffffffffffffffffffffffffffff1603620003815760019150506200039d565b80806200038e90620006bc565b915050620002f5565b50600090505b92915050565b600080600084815260200190815260200160002060000160008373ffffffffffffffffffffffffffffffffffffffff1673ffffffffffffffffffffffffffffffffffffffff16815260200190815260200160002060009054906101000a900460ff16905092915050565b600033905090565b6000604051905090565b600080fd5b600080fd5b600080fd5b6000601f19601f8301169050919050565b7f4e487b7100000000000000000000000000000000000000000000000000000000600052604160045260246000fd5b62000479826200042e565b810181811067ffffffffffffffff821117156200049b576200049a6200043f565b5b80604052505050565b6000620004b062000415565b9050620004be82826200046e565b919050565b600067ffffffffffffffff821115620004e157620004e06200043f565b5b602082029050602081019050919050565b600080fd5b600073ffffffffffffffffffffffffffffffffffffffff82169050919050565b60006200052482620004f7565b9050919050565b620005368162000517565b81146200054257600080fd5b50565b60008151905062000556816200052b565b92915050565b6000620005736200056d84620004c3565b620004a4565b90508083825260208201905060208402830185811115620005995762000598620004f2565b5b835b81811015620005c65780620005b1888262000545565b8452602084019350506020810190506200059b565b5050509392505050565b600082601f830112620005e857620005e762000429565b5b8151620005fa8482602086016200055c565b91505092915050565b6000602082840312156200061c576200061b6200041f565b5b600082015167ffffffffffffffff8111156200063d576200063c62000424565b5b6200064b84828501620005d0565b91505092915050565b7f4e487b7100000000000000000000000000000000000000000000000000000000600052603260045260246000fd5b7f4e487b7100000000000000000000000000000000000000000000000000000000600052601160045260246000fd5b6000819050919050565b6000620006c982620006b2565b91507fffffffffffffffffffffffffffffffffffffffffffffffffffffffffffffffff8203620006fe57620006fd62000683565b5b600182019050919050565b61174f80620007196000396000f3fe608060405234801561001057600080fd5b50600436106101005760003560e01c80634573e8021161009757806375b238fc1161006657806375b238fc146102e457806391d1485414610302578063a217fddf14610332578063d547741f1461035057610100565b80634573e802146102375780635ed721f714610268578063704802751461029857806372a0b694146102b457610100565b80632f2ff15d116100d35780632f2ff15d146101b357806336568abe146101cf578063365b98b2146101eb578063421b2d8b1461021b57610100565b806301ffc9a71461010557806314bfd6d0146101355780631a6da93514610165578063248a9ca314610183575b600080fd5b61011f600480360381019061011a9190610f97565b61036c565b60405161012c9190610fdf565b60405180910390f35b61014f600480360381019061014a9190611030565b6103e6565b60405161015c919061109e565b60405180910390f35b61016d610425565b60405161017a91906110d2565b60405180910390f35b61019d60048036038101906101989190611119565b610449565b6040516101aa91906110d2565b60405180910390f35b6101cd60048036038101906101c89190611172565b610468565b005b6101e960048036038101906101e49190611172565b610489565b005b61020560048036038101906102009190611030565b61050c565b604051610212919061109e565b60405180910390f35b610235600480360381019061023091906111b2565b61054b565b005b610251600480360381019061024c91906111b2565b610651565b60405161025f92919061126f565b60405180910390f35b610282600480360381019061027d91906111b2565b610774565b60405161028f9190610fdf565b60405180910390f35b6102b260048036038101906102ad91906111b2565b610788565b005b6102ce60048036038101906102c991906111b2565b61088e565b6040516102db9190610fdf565b60405180910390f35b6102ec6108a2565b6040516102f991906110d2565b60405180910390f35b61031c60048036038101906103179190611172565b6108c6565b6040516103299190610fdf565b60405180910390f35b61033a610930565b60405161034791906110d2565b60405180910390f35b61036a60048036038101906103659190611172565b610937565b005b60007f7965db0b000000000000000000000000000000000000000000000000000000007bffffffffffffffffffffffffffffffffffffffffffffffffffffffff1916827bffffffffffffffffffffffffffffffffffffffffffffffffffffffff191614806103df57506103de82610958565b5b9050919050565b600181815481106103f657600080fd5b906000526020600020016000915054906101000a900473ffffffffffffffffffffffffffffffffffffffff1681565b7f47e673b02abe8c1fd5855942b3add23e5ceb73147ee7bae86726932d562feb0781565b6000806000838152602001908152602001600020600101549050919050565b61047182610449565b61047a816109c2565b61048483836109d6565b505050565b610491610ab6565b73ffffffffffffffffffffffffffffffffffffffff168173ffffffffffffffffffffffffffffffffffffffff16146104fe576040517f08c379a00000000000000000000000000000000000000000000000000000000081526004016104f590611311565b60405180910390fd5b6105088282610abe565b5050565b6002818154811061051c57600080fd5b906000526020600020016000915054906101000a900473ffffffffffffffffffffffffffffffffffffffff1681565b7fa49807205ce4d355092ef5a8a18f56e8913cf4a201fbe287825b095693c21775610575816109c2565b610580600283610b9f565b156105c0576040517f08c379a00000000000000000000000000000000000000000000000000000000081526004016105b79061137d565b60405180910390fd5b6105ea7f47e673b02abe8c1fd5855942b3add23e5ceb73147ee7bae86726932d562feb07836109d6565b6002829080600181540180825580915050600190039060005260206000200160009091909190916101000a81548173ffffffffffffffffffffffffffffffffffffffff021916908373ffffffffffffffffffffffffffffffffffffffff1602179055505050565b6000606061067f7fa49807205ce4d355092ef5a8a18f56e8913cf4a201fbe287825b095693c21775846108c6565b156106c457826040518060400160405280600a81526020017f41444d494e5f524f4c45000000000000000000000000000000000000000000008152509150915061076f565b6106ee7f47e673b02abe8c1fd5855942b3add23e5ceb73147ee7bae86726932d562feb07846108c6565b1561073357826040518060400160405280601281526020017f504f4c4943595f484f4c4445525f524f4c4500000000000000000000000000008152509150915061076f565b826040518060400160405280600781526020017f4e4f5f524f4c4500000000000000000000000000000000000000000000000000815250915091505b915091565b6000610781600283610b9f565b9050919050565b7fa49807205ce4d355092ef5a8a18f56e8913cf4a201fbe287825b095693c217756107b2816109c2565b6107bd600183610b9f565b156107fd576040517f08c379a00000000000000000000000000000000000000000000000000000000081526004016107f4906113e9565b60405180910390fd5b6108277fa49807205ce4d355092ef5a8a18f56e8913cf4a201fbe287825b095693c21775836109d6565b6001829080600181540180825580915050600190039060005260206000200160009091909190916101000a81548173ffffffffffffffffffffffffffffffffffffffff021916908373ffffffffffffffffffffffffffffffffffffffff1602179055505050565b600061089b600183610b9f565b9050919050565b7fa49807205ce4d355092ef5a8a18f56e8913cf4a201fbe287825b095693c2177581565b600080600084815260200190815260200160002060000160008373ffffffffffffffffffffffffffffffffffffffff1673ffffffffffffffffffffffffffffffffffffffff16815260200190815260200160002060009054906101000a900460ff16905092915050565b6000801b81565b61094082610449565b610949816109c2565b6109538383610abe565b505050565b60007f01ffc9a7000000000000000000000000000000000000000000000000000000007bffffffffffffffffffffffffffffffffffffffffffffffffffffffff1916827bffffffffffffffffffffffffffffffffffffffffffffffffffffffff1916149050919050565b6109d3816109ce610ab6565b610c4c565b50565b6109e082826108c6565b610ab257600160008084815260200190815260200160002060000160008373ffffffffffffffffffffffffffffffffffffffff1673ffffffffffffffffffffffffffffffffffffffff16815260200190815260200160002060006101000a81548160ff021916908315150217905550610a57610ab6565b73ffffffffffffffffffffffffffffffffffffffff168173ffffffffffffffffffffffffffffffffffffffff16837f2f8788117e7eff1d82e926ec794901d17c78024a50270940304540a733656f0d60405160405180910390a45b5050565b600033905090565b610ac882826108c6565b15610b9b57600080600084815260200190815260200160002060000160008373ffffffffffffffffffffffffffffffffffffffff1673ffffffffffffffffffffffffffffffffffffffff16815260200190815260200160002060006101000a81548160ff021916908315150217905550610b40610ab6565b73ffffffffffffffffffffffffffffffffffffffff168173ffffffffffffffffffffffffffffffffffffffff16837ff6391f5c32d9c69d2a47ea670b442974b53935d1edc7fd64eb21e047a839171b60405160405180910390a45b5050565b600080600090505b8380549050811015610c40578273ffffffffffffffffffffffffffffffffffffffff16848281548110610bdd57610bdc611409565b5b9060005260206000200160009054906101000a900473ffffffffffffffffffffffffffffffffffffffff1673ffffffffffffffffffffffffffffffffffffffff1603610c2d576001915050610c46565b8080610c3890611467565b915050610ba7565b50600090505b92915050565b610c5682826108c6565b610ccd57610c6381610cd1565b610c718360001c6020610cfe565b604051602001610c82929190611583565b6040516020818303038152906040526040517f08c379a0000000000000000000000000000000000000000000000000000000008152600401610cc491906115bd565b60405180910390fd5b5050565b6060610cf78273ffffffffffffffffffffffffffffffffffffffff16601460ff16610cfe565b9050919050565b606060006002836002610d1191906115df565b610d1b9190611621565b67ffffffffffffffff811115610d3457610d33611655565b5b6040519080825280601f01601f191660200182016040528015610d665781602001600182028036833780820191505090505b5090507f300000000000000000000000000000000000000000000000000000000000000081600081518110610d9e57610d9d611409565b5b60200101907effffffffffffffffffffffffffffffffffffffffffffffffffffffffffffff1916908160001a9053507f780000000000000000000000000000000000000000000000000000000000000081600181518110610e0257610e01611409565b5b60200101907effffffffffffffffffffffffffffffffffffffffffffffffffffffffffffff1916908160001a90535060006001846002610e4291906115df565b610e4c9190611621565b90505b6001811115610eec577f3031323334353637383961626364656600000000000000000000000000000000600f861660108110610e8e57610e8d611409565b5b1a60f81b828281518110610ea557610ea4611409565b5b60200101907effffffffffffffffffffffffffffffffffffffffffffffffffffffffffffff1916908160001a905350600485901c945080610ee590611684565b9050610e4f565b5060008414610f30576040517f08c379a0000000000000000000000000000000000000000000000000000000008152600401610f27906116f9565b60405180910390fd5b8091505092915050565b600080fd5b60007fffffffff0000000000000000000000000000000000000000000000000000000082169050919050565b610f7481610f3f565b8114610f7f57600080fd5b50565b600081359050610f9181610f6b565b92915050565b600060208284031215610fad57610fac610f3a565b5b6000610fbb84828501610f82565b91505092915050565b60008115159050919050565b610fd981610fc4565b82525050565b6000602082019050610ff46000830184610fd0565b92915050565b6000819050919050565b61100d81610ffa565b811461101857600080fd5b50565b60008135905061102a81611004565b92915050565b60006020828403121561104657611045610f3a565b5b60006110548482850161101b565b91505092915050565b600073ffffffffffffffffffffffffffffffffffffffff82169050919050565b60006110888261105d565b9050919050565b6110988161107d565b82525050565b60006020820190506110b3600083018461108f565b92915050565b6000819050919050565b6110cc816110b9565b82525050565b60006020820190506110e760008301846110c3565b92915050565b6110f6816110b9565b811461110157600080fd5b50565b600081359050611113816110ed565b92915050565b60006020828403121561112f5761112e610f3a565b5b600061113d84828501611104565b91505092915050565b61114f8161107d565b811461115a57600080fd5b50565b60008135905061116c81611146565b92915050565b6000806040838503121561118957611188610f3a565b5b600061119785828601611104565b92505060206111a88582860161115d565b9150509250929050565b6000602082840312156111c8576111c7610f3a565b5b60006111d68482850161115d565b91505092915050565b600081519050919050565b600082825260208201905092915050565b60005b838110156112195780820151818401526020810190506111fe565b60008484015250505050565b6000601f19601f8301169050919050565b6000611241826111df565b61124b81856111ea565b935061125b8185602086016111fb565b61126481611225565b840191505092915050565b6000604082019050611284600083018561108f565b81810360208301526112968184611236565b90509392505050565b7f416363657373436f6e74726f6c3a2063616e206f6e6c792072656e6f756e636560008201527f20726f6c657320666f722073656c660000000000000000000000000000000000602082015250565b60006112fb602f836111ea565b91506113068261129f565b604082019050919050565b6000602082019050818103600083015261132a816112ee565b9050919050565b7f4164647265737320697320616c72656164792061207573657200000000000000600082015250565b60006113676019836111ea565b915061137282611331565b602082019050919050565b600060208201905081810360008301526113968161135a565b9050919050565b7f4164647265737320697320616c726561647920616e2061646d696e0000000000600082015250565b60006113d3601b836111ea565b91506113de8261139d565b602082019050919050565b60006020820190508181036000830152611402816113c6565b9050919050565b7f4e487b7100000000000000000000000000000000000000000000000000000000600052603260045260246000fd5b7f4e487b7100000000000000000000000000000000000000000000000000000000600052601160045260246000fd5b600061147282610ffa565b91507fffffffffffffffffffffffffffffffffffffffffffffffffffffffffffffffff82036114a4576114a3611438565b5b600182019050919050565b600081905092915050565b7f416363657373436f6e74726f6c3a206163636f756e7420000000000000000000600082015250565b60006114f06017836114af565b91506114fb826114ba565b601782019050919050565b6000611511826111df565b61151b81856114af565b935061152b8185602086016111fb565b80840191505092915050565b7f206973206d697373696e6720726f6c6520000000000000000000000000000000600082015250565b600061156d6011836114af565b915061157882611537565b601182019050919050565b600061158e826114e3565b915061159a8285611506565b91506115a582611560565b91506115b18284611506565b91508190509392505050565b600060208201905081810360008301526115d78184611236565b905092915050565b60006115ea82610ffa565b91506115f583610ffa565b925082820261160381610ffa565b9150828204841483151761161a57611619611438565b5b5092915050565b600061162c82610ffa565b915061163783610ffa565b925082820190508082111561164f5761164e611438565b5b92915050565b7f4e487b7100000000000000000000000000000000000000000000000000000000600052604160045260246000fd5b600061168f82610ffa565b9150600082036116a2576116a1611438565b5b600182039050919050565b7f537472696e67733a20686578206c656e67746820696e73756666696369656e74600082015250565b60006116e36020836111ea565b91506116ee826116ad565b602082019050919050565b60006020820190508181036000830152611712816116d6565b905091905056fea26469706673582212207cff682cabb1eebaf2bc79bae8df7d9a216cb3391ce8928d9d9b5a99883f612864736f6c63430008130033",
  "immutableReferences": {},
  "source": "// SPDX-License-Identifier: MIT\npragma solidity ^0.8.0;\n\nimport \"@openzeppelin/contracts/access/AccessControl.sol\";\n\ncontract RoleManagement is AccessControl {\n    // Define roles\n    bytes32 public constant ADMIN_ROLE = keccak256(\"ADMIN_ROLE\");\n    bytes32 public constant POLICY_HOLDER_ROLE = keccak256(\"POLICY_HOLDER_ROLE\");\n\n    // Address lists\n    address[] public admins;\n    address[] public users;\n\n    constructor(address[] memory initialAdmins) {\n        _grantRole(ADMIN_ROLE, msg.sender);\n        admins.push(msg.sender);\n\n        // Assign ADMIN_ROLE to all initialAdmins\n        for (uint256 i = 0; i < initialAdmins.length; i++) {\n            if (!_isInList(admins, initialAdmins[i])) {\n                _grantRole(ADMIN_ROLE, initialAdmins[i]);\n                admins.push(initialAdmins[i]);\n            }\n        }\n    }\n\n    // Add an address to the admins list (only Admins can call this function)\n    function addAdmin(address account) public onlyRole(ADMIN_ROLE) {\n        require(!_isInList(admins, account), \"Address is already an admin\");\n        _grantRole(ADMIN_ROLE, account);\n        admins.push(account);\n    }\n\n    // Add an address to the users list\n    function addUser(address account) public onlyRole(ADMIN_ROLE) {\n        require(!_isInList(users, account), \"Address is already a user\");\n        _grantRole(POLICY_HOLDER_ROLE, account);\n        users.push(account);\n    }\n\n    // Utility function to remove an address from a list\n    function _removeFromList(address[] storage list, address account) internal {\n        for (uint256 i = 0; i < list.length; i++) {\n            if (list[i] == account) {\n                list[i] = list[list.length - 1]; // Replace with last element\n                list.pop(); // Remove last element\n                break;\n            }\n        }\n    }\n\n    // Check if an address is in the list\n    function _isInList(address[] storage list, address account) internal view returns (bool) {\n        for (uint256 i = 0; i < list.length; i++) {\n            if (list[i] == account) {\n                return true;\n            }\n        }\n        return false;\n    }\n\n    // Check if an address is in the admins list\n    function _isInAdmins(address account) external view returns (bool) {\n        return _isInList(admins, account);\n    }\n\n    // Check if an address is in the users list\n    function _isInUsers(address account) external view returns (bool) {\n        return _isInList(users, account);\n    }\n\n    // Get the role of a specific address\n    function roleOfAddress(address account) public view returns (address, string memory) {\n        if (hasRole(ADMIN_ROLE, account)) {\n            return (account, \"ADMIN_ROLE\");\n        } else if (hasRole(POLICY_HOLDER_ROLE, account)) {\n            return (account, \"POLICY_HOLDER_ROLE\");\n        } else {\n            return (account, \"NO_ROLE\");\n        }\n    }\n}",
  "sourcePath": "/Users/doodee/CarInsuranceProject/contracts/RoleManagement.sol",
  "compiler": {
    "name": "solc",
    "version": "0.8.19+commit.7dd6d404.Emscripten.clang"
  },
  "schemaVersion": "3.4.16",
  "updatedAt": "2024-12-07T14:17:43.535Z",
  "devdoc": {
    "events": {
      "RoleAdminChanged(bytes32,bytes32,bytes32)": {
        "details": "Emitted when `newAdminRole` is set as ``role``'s admin role, replacing `previousAdminRole` `DEFAULT_ADMIN_ROLE` is the starting admin for all roles, despite {RoleAdminChanged} not being emitted signaling this. _Available since v3.1._"
      },
      "RoleGranted(bytes32,address,address)": {
        "details": "Emitted when `account` is granted `role`. `sender` is the account that originated the contract call, an admin role bearer except when using {AccessControl-_setupRole}."
      },
      "RoleRevoked(bytes32,address,address)": {
        "details": "Emitted when `account` is revoked `role`. `sender` is the account that originated the contract call:   - if using `revokeRole`, it is the admin role bearer   - if using `renounceRole`, it is the role bearer (i.e. `account`)"
      }
    },
    "kind": "dev",
    "methods": {
      "getRoleAdmin(bytes32)": {
        "details": "Returns the admin role that controls `role`. See {grantRole} and {revokeRole}. To change a role's admin, use {_setRoleAdmin}."
      },
      "grantRole(bytes32,address)": {
        "details": "Grants `role` to `account`. If `account` had not been already granted `role`, emits a {RoleGranted} event. Requirements: - the caller must have ``role``'s admin role. May emit a {RoleGranted} event."
      },
      "hasRole(bytes32,address)": {
        "details": "Returns `true` if `account` has been granted `role`."
      },
      "renounceRole(bytes32,address)": {
        "details": "Revokes `role` from the calling account. Roles are often managed via {grantRole} and {revokeRole}: this function's purpose is to provide a mechanism for accounts to lose their privileges if they are compromised (such as when a trusted device is misplaced). If the calling account had been revoked `role`, emits a {RoleRevoked} event. Requirements: - the caller must be `account`. May emit a {RoleRevoked} event."
      },
      "revokeRole(bytes32,address)": {
        "details": "Revokes `role` from `account`. If `account` had been granted `role`, emits a {RoleRevoked} event. Requirements: - the caller must have ``role``'s admin role. May emit a {RoleRevoked} event."
      },
      "supportsInterface(bytes4)": {
        "details": "See {IERC165-supportsInterface}."
      }
    },
    "version": 1
  },
  "userdoc": {
    "kind": "user",
    "methods": {},
    "version": 1
  }
}