{
  "contractName": "RoleManagement",
  "abi": [
    {
      "inputs": [
        {
          "internalType": "address[]",
          "name": "initialAdmins",
          "type": "address[]"
        }
      ],
      "stateMutability": "nonpayable",
      "type": "constructor"
    },
    {
      "anonymous": false,
      "inputs": [
        {
          "indexed": true,
          "internalType": "address",
          "name": "account",
          "type": "address"
        }
      ],
      "name": "AdminAdded",
      "type": "event"
    },
    {
      "anonymous": false,
      "inputs": [
        {
          "indexed": true,
          "internalType": "bytes32",
          "name": "role",
          "type": "bytes32"
        },
        {
          "indexed": true,
          "internalType": "bytes32",
          "name": "previousAdminRole",
          "type": "bytes32"
        },
        {
          "indexed": true,
          "internalType": "bytes32",
          "name": "newAdminRole",
          "type": "bytes32"
        }
      ],
      "name": "RoleAdminChanged",
      "type": "event"
    },
    {
      "anonymous": false,
      "inputs": [
        {
          "indexed": true,
          "internalType": "bytes32",
          "name": "role",
          "type": "bytes32"
        },
        {
          "indexed": true,
          "internalType": "address",
          "name": "account",
          "type": "address"
        },
        {
          "indexed": true,
          "internalType": "address",
          "name": "sender",
          "type": "address"
        }
      ],
      "name": "RoleGranted",
      "type": "event"
    },
    {
      "anonymous": false,
      "inputs": [
        {
          "indexed": true,
          "internalType": "bytes32",
          "name": "role",
          "type": "bytes32"
        },
        {
          "indexed": true,
          "internalType": "address",
          "name": "account",
          "type": "address"
        },
        {
          "indexed": true,
          "internalType": "address",
          "name": "sender",
          "type": "address"
        }
      ],
      "name": "RoleRevoked",
      "type": "event"
    },
    {
      "anonymous": false,
      "inputs": [
        {
          "indexed": true,
          "internalType": "address",
          "name": "account",
          "type": "address"
        }
      ],
      "name": "UserAdded",
      "type": "event"
    },
    {
      "inputs": [],
      "name": "ADMIN_ROLE",
      "outputs": [
        {
          "internalType": "bytes32",
          "name": "",
          "type": "bytes32"
        }
      ],
      "stateMutability": "view",
      "type": "function",
      "constant": true
    },
    {
      "inputs": [],
      "name": "DEFAULT_ADMIN_ROLE",
      "outputs": [
        {
          "internalType": "bytes32",
          "name": "",
          "type": "bytes32"
        }
      ],
      "stateMutability": "view",
      "type": "function",
      "constant": true
    },
    {
      "inputs": [],
      "name": "POLICY_HOLDER_ROLE",
      "outputs": [
        {
          "internalType": "bytes32",
          "name": "",
          "type": "bytes32"
        }
      ],
      "stateMutability": "view",
      "type": "function",
      "constant": true
    },
    {
      "inputs": [
        {
          "internalType": "uint256",
          "name": "",
          "type": "uint256"
        }
      ],
      "name": "admins",
      "outputs": [
        {
          "internalType": "address",
          "name": "",
          "type": "address"
        }
      ],
      "stateMutability": "view",
      "type": "function",
      "constant": true
    },
    {
      "inputs": [
        {
          "internalType": "bytes32",
          "name": "role",
          "type": "bytes32"
        }
      ],
      "name": "getRoleAdmin",
      "outputs": [
        {
          "internalType": "bytes32",
          "name": "",
          "type": "bytes32"
        }
      ],
      "stateMutability": "view",
      "type": "function",
      "constant": true
    },
    {
      "inputs": [
        {
          "internalType": "bytes32",
          "name": "role",
          "type": "bytes32"
        },
        {
          "internalType": "address",
          "name": "account",
          "type": "address"
        }
      ],
      "name": "grantRole",
      "outputs": [],
      "stateMutability": "nonpayable",
      "type": "function"
    },
    {
      "inputs": [
        {
          "internalType": "bytes32",
          "name": "role",
          "type": "bytes32"
        },
        {
          "internalType": "address",
          "name": "account",
          "type": "address"
        }
      ],
      "name": "hasRole",
      "outputs": [
        {
          "internalType": "bool",
          "name": "",
          "type": "bool"
        }
      ],
      "stateMutability": "view",
      "type": "function",
      "constant": true
    },
    {
      "inputs": [
        {
          "internalType": "bytes32",
          "name": "role",
          "type": "bytes32"
        },
        {
          "internalType": "address",
          "name": "account",
          "type": "address"
        }
      ],
      "name": "renounceRole",
      "outputs": [],
      "stateMutability": "nonpayable",
      "type": "function"
    },
    {
      "inputs": [
        {
          "internalType": "bytes32",
          "name": "role",
          "type": "bytes32"
        },
        {
          "internalType": "address",
          "name": "account",
          "type": "address"
        }
      ],
      "name": "revokeRole",
      "outputs": [],
      "stateMutability": "nonpayable",
      "type": "function"
    },
    {
      "inputs": [
        {
          "internalType": "bytes4",
          "name": "interfaceId",
          "type": "bytes4"
        }
      ],
      "name": "supportsInterface",
      "outputs": [
        {
          "internalType": "bool",
          "name": "",
          "type": "bool"
        }
      ],
      "stateMutability": "view",
      "type": "function",
      "constant": true
    },
    {
      "inputs": [
        {
          "internalType": "uint256",
          "name": "",
          "type": "uint256"
        }
      ],
      "name": "users",
      "outputs": [
        {
          "internalType": "address",
          "name": "",
          "type": "address"
        }
      ],
      "stateMutability": "view",
      "type": "function",
      "constant": true
    },
    {
      "inputs": [
        {
          "internalType": "address",
          "name": "account",
          "type": "address"
        }
      ],
      "name": "addAdmin",
      "outputs": [],
      "stateMutability": "nonpayable",
      "type": "function"
    },
    {
      "inputs": [
        {
          "internalType": "address",
          "name": "account",
          "type": "address"
        }
      ],
      "name": "addUser",
      "outputs": [],
      "stateMutability": "nonpayable",
      "type": "function"
    },
    {
      "inputs": [
        {
          "internalType": "address",
          "name": "account",
          "type": "address"
        }
      ],
      "name": "_isInAdmins",
      "outputs": [
        {
          "internalType": "bool",
          "name": "",
          "type": "bool"
        }
      ],
      "stateMutability": "view",
      "type": "function",
      "constant": true
    },
    {
      "inputs": [
        {
          "internalType": "address",
          "name": "account",
          "type": "address"
        }
      ],
      "name": "_isInUsers",
      "outputs": [
        {
          "internalType": "bool",
          "name": "",
          "type": "bool"
        }
      ],
      "stateMutability": "view",
      "type": "function",
      "constant": true
    },
    {
      "inputs": [
        {
          "internalType": "address",
          "name": "account",
          "type": "address"
        }
      ],
      "name": "roleOfAddress",
      "outputs": [
        {
          "internalType": "address",
          "name": "",
          "type": "address"
        },
        {
          "internalType": "string",
          "name": "",
          "type": "string"
        }
      ],
      "stateMutability": "view",
      "type": "function",
      "constant": true
    }
  ],
  "bytecode": "0x60806040523480156200001157600080fd5b50604051620022313803806200223183398181016040528101906200003791906200077c565b60008151116200007e576040517f08c379a000000000000000000000000000000000000000000000000000000000815260040162000075906200082e565b60405180910390fd5b620000b07fa49807205ce4d355092ef5a8a18f56e8913cf4a201fbe287825b095693c21775336200037560201b60201c565b6001339080600181540180825580915050600190039060005260206000200160009091909190916101000a81548173ffffffffffffffffffffffffffffffffffffffff021916908373ffffffffffffffffffffffffffffffffffffffff1602179055503373ffffffffffffffffffffffffffffffffffffffff167f44d6d25963f097ad14f29f06854a01f575648a1ef82f30e562ccd3889717e33960405160405180910390a260005b81518110156200036d57600073ffffffffffffffffffffffffffffffffffffffff1682828151811062000191576200019062000850565b5b602002602001015173ffffffffffffffffffffffffffffffffffffffff1603620001f2576040517f08c379a0000000000000000000000000000000000000000000000000000000008152600401620001e990620008cf565b60405180910390fd5b6200022260018383815181106200020e576200020d62000850565b5b60200260200101516200046660201b60201c565b6200035757620002767fa49807205ce4d355092ef5a8a18f56e8913cf4a201fbe287825b095693c2177583838151811062000262576200026162000850565b5b60200260200101516200037560201b60201c565b60018282815181106200028e576200028d62000850565b5b60200260200101519080600181540180825580915050600190039060005260206000200160009091909190916101000a81548173ffffffffffffffffffffffffffffffffffffffff021916908373ffffffffffffffffffffffffffffffffffffffff1602179055508181815181106200030c576200030b62000850565b5b602002602001015173ffffffffffffffffffffffffffffffffffffffff167f44d6d25963f097ad14f29f06854a01f575648a1ef82f30e562ccd3889717e33960405160405180910390a25b808062000364906200092a565b91505062000159565b505062000977565b6200038782826200051c60201b60201c565b6200046257600160008084815260200190815260200160002060000160008373ffffffffffffffffffffffffffffffffffffffff1673ffffffffffffffffffffffffffffffffffffffff16815260200190815260200160002060006101000a81548160ff021916908315150217905550620004076200058660201b60201c565b73ffffffffffffffffffffffffffffffffffffffff168173ffffffffffffffffffffffffffffffffffffffff16837f2f8788117e7eff1d82e926ec794901d17c78024a50270940304540a733656f0d60405160405180910390a45b5050565b600080600090505b838054905081101562000510578273ffffffffffffffffffffffffffffffffffffffff16848281548110620004a857620004a762000850565b5b9060005260206000200160009054906101000a900473ffffffffffffffffffffffffffffffffffffffff1673ffffffffffffffffffffffffffffffffffffffff1603620004fa57600191505062000516565b808062000507906200092a565b9150506200046e565b50600090505b92915050565b600080600084815260200190815260200160002060000160008373ffffffffffffffffffffffffffffffffffffffff1673ffffffffffffffffffffffffffffffffffffffff16815260200190815260200160002060009054906101000a900460ff16905092915050565b600033905090565b6000604051905090565b600080fd5b600080fd5b600080fd5b6000601f19601f8301169050919050565b7f4e487b7100000000000000000000000000000000000000000000000000000000600052604160045260246000fd5b620005f282620005a7565b810181811067ffffffffffffffff82111715620006145762000613620005b8565b5b80604052505050565b6000620006296200058e565b9050620006378282620005e7565b919050565b600067ffffffffffffffff8211156200065a5762000659620005b8565b5b602082029050602081019050919050565b600080fd5b600073ffffffffffffffffffffffffffffffffffffffff82169050919050565b60006200069d8262000670565b9050919050565b620006af8162000690565b8114620006bb57600080fd5b50565b600081519050620006cf81620006a4565b92915050565b6000620006ec620006e6846200063c565b6200061d565b905080838252602082019050602084028301858111156200071257620007116200066b565b5b835b818110156200073f57806200072a8882620006be565b84526020840193505060208101905062000714565b5050509392505050565b600082601f830112620007615762000760620005a2565b5b815162000773848260208601620006d5565b91505092915050565b60006020828403121562000795576200079462000598565b5b600082015167ffffffffffffffff811115620007b657620007b56200059d565b5b620007c48482850162000749565b91505092915050565b600082825260208201905092915050565b7f496e697469616c2061646d696e7320617272617920697320656d707479000000600082015250565b600062000816601d83620007cd565b91506200082382620007de565b602082019050919050565b60006020820190508181036000830152620008498162000807565b9050919050565b7f4e487b7100000000000000000000000000000000000000000000000000000000600052603260045260246000fd5b7f496e76616c69642061646d696e20616464726573730000000000000000000000600082015250565b6000620008b7601583620007cd565b9150620008c4826200087f565b602082019050919050565b60006020820190508181036000830152620008ea81620008a8565b9050919050565b7f4e487b7100000000000000000000000000000000000000000000000000000000600052601160045260246000fd5b6000819050919050565b6000620009378262000920565b91507fffffffffffffffffffffffffffffffffffffffffffffffffffffffffffffffff82036200096c576200096b620008f1565b5b600182019050919050565b6118aa80620009876000396000f3fe608060405234801561001057600080fd5b50600436106101005760003560e01c80634573e8021161009757806375b238fc1161006657806375b238fc146102e457806391d1485414610302578063a217fddf14610332578063d547741f1461035057610100565b80634573e802146102375780635ed721f714610268578063704802751461029857806372a0b694146102b457610100565b80632f2ff15d116100d35780632f2ff15d146101b357806336568abe146101cf578063365b98b2146101eb578063421b2d8b1461021b57610100565b806301ffc9a71461010557806314bfd6d0146101355780631a6da93514610165578063248a9ca314610183575b600080fd5b61011f600480360381019061011a9190611060565b61036c565b60405161012c91906110a8565b60405180910390f35b61014f600480360381019061014a91906110f9565b6103e6565b60405161015c9190611167565b60405180910390f35b61016d610425565b60405161017a919061119b565b60405180910390f35b61019d600480360381019061019891906111e2565b610449565b6040516101aa919061119b565b60405180910390f35b6101cd60048036038101906101c8919061123b565b610468565b005b6101e960048036038101906101e4919061123b565b610489565b005b610205600480360381019061020091906110f9565b61050c565b6040516102129190611167565b60405180910390f35b6102356004803603810190610230919061127b565b61054b565b005b610251600480360381019061024c919061127b565b6106d7565b60405161025f929190611338565b60405180910390f35b610282600480360381019061027d919061127b565b6107fa565b60405161028f91906110a8565b60405180910390f35b6102b260048036038101906102ad919061127b565b61080e565b005b6102ce60048036038101906102c9919061127b565b610957565b6040516102db91906110a8565b60405180910390f35b6102ec61096b565b6040516102f9919061119b565b60405180910390f35b61031c6004803603810190610317919061123b565b61098f565b60405161032991906110a8565b60405180910390f35b61033a6109f9565b604051610347919061119b565b60405180910390f35b61036a6004803603810190610365919061123b565b610a00565b005b60007f7965db0b000000000000000000000000000000000000000000000000000000007bffffffffffffffffffffffffffffffffffffffffffffffffffffffff1916827bffffffffffffffffffffffffffffffffffffffffffffffffffffffff191614806103df57506103de82610a21565b5b9050919050565b600181815481106103f657600080fd5b906000526020600020016000915054906101000a900473ffffffffffffffffffffffffffffffffffffffff1681565b7f47e673b02abe8c1fd5855942b3add23e5ceb73147ee7bae86726932d562feb0781565b6000806000838152602001908152602001600020600101549050919050565b61047182610449565b61047a81610a8b565b6104848383610a9f565b505050565b610491610b7f565b73ffffffffffffffffffffffffffffffffffffffff168173ffffffffffffffffffffffffffffffffffffffff16146104fe576040517f08c379a00000000000000000000000000000000000000000000000000000000081526004016104f5906113da565b60405180910390fd5b6105088282610b87565b5050565b6002818154811061051c57600080fd5b906000526020600020016000915054906101000a900473ffffffffffffffffffffffffffffffffffffffff1681565b610556600282610c68565b15610596576040517f08c379a000000000000000000000000000000000000000000000000000000000815260040161058d90611446565b60405180910390fd5b3373ffffffffffffffffffffffffffffffffffffffff168173ffffffffffffffffffffffffffffffffffffffff1614610604576040517f08c379a00000000000000000000000000000000000000000000000000000000081526004016105fb906114d8565b60405180910390fd5b61062e7f47e673b02abe8c1fd5855942b3add23e5ceb73147ee7bae86726932d562feb0782610a9f565b6002819080600181540180825580915050600190039060005260206000200160009091909190916101000a81548173ffffffffffffffffffffffffffffffffffffffff021916908373ffffffffffffffffffffffffffffffffffffffff1602179055508073ffffffffffffffffffffffffffffffffffffffff167f19ef9a4877199f89440a26acb26895ec02ed86f2df1aeaa90dc18041b892f71f60405160405180910390a250565b600060606107057fa49807205ce4d355092ef5a8a18f56e8913cf4a201fbe287825b095693c217758461098f565b1561074a57826040518060400160405280600a81526020017f41444d494e5f524f4c4500000000000000000000000000000000000000000000815250915091506107f5565b6107747f47e673b02abe8c1fd5855942b3add23e5ceb73147ee7bae86726932d562feb078461098f565b156107b957826040518060400160405280601281526020017f504f4c4943595f484f4c4445525f524f4c450000000000000000000000000000815250915091506107f5565b826040518060400160405280600781526020017f4e4f5f524f4c4500000000000000000000000000000000000000000000000000815250915091505b915091565b6000610807600283610c68565b9050919050565b7fa49807205ce4d355092ef5a8a18f56e8913cf4a201fbe287825b095693c2177561083881610a8b565b610843600183610c68565b15610883576040517f08c379a000000000000000000000000000000000000000000000000000000000815260040161087a90611544565b60405180910390fd5b6108ad7fa49807205ce4d355092ef5a8a18f56e8913cf4a201fbe287825b095693c2177583610a9f565b6001829080600181540180825580915050600190039060005260206000200160009091909190916101000a81548173ffffffffffffffffffffffffffffffffffffffff021916908373ffffffffffffffffffffffffffffffffffffffff1602179055508173ffffffffffffffffffffffffffffffffffffffff167f44d6d25963f097ad14f29f06854a01f575648a1ef82f30e562ccd3889717e33960405160405180910390a25050565b6000610964600183610c68565b9050919050565b7fa49807205ce4d355092ef5a8a18f56e8913cf4a201fbe287825b095693c2177581565b600080600084815260200190815260200160002060000160008373ffffffffffffffffffffffffffffffffffffffff1673ffffffffffffffffffffffffffffffffffffffff16815260200190815260200160002060009054906101000a900460ff16905092915050565b6000801b81565b610a0982610449565b610a1281610a8b565b610a1c8383610b87565b505050565b60007f01ffc9a7000000000000000000000000000000000000000000000000000000007bffffffffffffffffffffffffffffffffffffffffffffffffffffffff1916827bffffffffffffffffffffffffffffffffffffffffffffffffffffffff1916149050919050565b610a9c81610a97610b7f565b610d15565b50565b610aa9828261098f565b610b7b57600160008084815260200190815260200160002060000160008373ffffffffffffffffffffffffffffffffffffffff1673ffffffffffffffffffffffffffffffffffffffff16815260200190815260200160002060006101000a81548160ff021916908315150217905550610b20610b7f565b73ffffffffffffffffffffffffffffffffffffffff168173ffffffffffffffffffffffffffffffffffffffff16837f2f8788117e7eff1d82e926ec794901d17c78024a50270940304540a733656f0d60405160405180910390a45b5050565b600033905090565b610b91828261098f565b15610c6457600080600084815260200190815260200160002060000160008373ffffffffffffffffffffffffffffffffffffffff1673ffffffffffffffffffffffffffffffffffffffff16815260200190815260200160002060006101000a81548160ff021916908315150217905550610c09610b7f565b73ffffffffffffffffffffffffffffffffffffffff168173ffffffffffffffffffffffffffffffffffffffff16837ff6391f5c32d9c69d2a47ea670b442974b53935d1edc7fd64eb21e047a839171b60405160405180910390a45b5050565b600080600090505b8380549050811015610d09578273ffffffffffffffffffffffffffffffffffffffff16848281548110610ca657610ca5611564565b5b9060005260206000200160009054906101000a900473ffffffffffffffffffffffffffffffffffffffff1673ffffffffffffffffffffffffffffffffffffffff1603610cf6576001915050610d0f565b8080610d01906115c2565b915050610c70565b50600090505b92915050565b610d1f828261098f565b610d9657610d2c81610d9a565b610d3a8360001c6020610dc7565b604051602001610d4b9291906116de565b6040516020818303038152906040526040517f08c379a0000000000000000000000000000000000000000000000000000000008152600401610d8d9190611718565b60405180910390fd5b5050565b6060610dc08273ffffffffffffffffffffffffffffffffffffffff16601460ff16610dc7565b9050919050565b606060006002836002610dda919061173a565b610de4919061177c565b67ffffffffffffffff811115610dfd57610dfc6117b0565b5b6040519080825280601f01601f191660200182016040528015610e2f5781602001600182028036833780820191505090505b5090507f300000000000000000000000000000000000000000000000000000000000000081600081518110610e6757610e66611564565b5b60200101907effffffffffffffffffffffffffffffffffffffffffffffffffffffffffffff1916908160001a9053507f780000000000000000000000000000000000000000000000000000000000000081600181518110610ecb57610eca611564565b5b60200101907effffffffffffffffffffffffffffffffffffffffffffffffffffffffffffff1916908160001a90535060006001846002610f0b919061173a565b610f15919061177c565b90505b6001811115610fb5577f3031323334353637383961626364656600000000000000000000000000000000600f861660108110610f5757610f56611564565b5b1a60f81b828281518110610f6e57610f6d611564565b5b60200101907effffffffffffffffffffffffffffffffffffffffffffffffffffffffffffff1916908160001a905350600485901c945080610fae906117df565b9050610f18565b5060008414610ff9576040517f08c379a0000000000000000000000000000000000000000000000000000000008152600401610ff090611854565b60405180910390fd5b8091505092915050565b600080fd5b60007fffffffff0000000000000000000000000000000000000000000000000000000082169050919050565b61103d81611008565b811461104857600080fd5b50565b60008135905061105a81611034565b92915050565b60006020828403121561107657611075611003565b5b60006110848482850161104b565b91505092915050565b60008115159050919050565b6110a28161108d565b82525050565b60006020820190506110bd6000830184611099565b92915050565b6000819050919050565b6110d6816110c3565b81146110e157600080fd5b50565b6000813590506110f3816110cd565b92915050565b60006020828403121561110f5761110e611003565b5b600061111d848285016110e4565b91505092915050565b600073ffffffffffffffffffffffffffffffffffffffff82169050919050565b600061115182611126565b9050919050565b61116181611146565b82525050565b600060208201905061117c6000830184611158565b92915050565b6000819050919050565b61119581611182565b82525050565b60006020820190506111b0600083018461118c565b92915050565b6111bf81611182565b81146111ca57600080fd5b50565b6000813590506111dc816111b6565b92915050565b6000602082840312156111f8576111f7611003565b5b6000611206848285016111cd565b91505092915050565b61121881611146565b811461122357600080fd5b50565b6000813590506112358161120f565b92915050565b6000806040838503121561125257611251611003565b5b6000611260858286016111cd565b925050602061127185828601611226565b9150509250929050565b60006020828403121561129157611290611003565b5b600061129f84828501611226565b91505092915050565b600081519050919050565b600082825260208201905092915050565b60005b838110156112e25780820151818401526020810190506112c7565b60008484015250505050565b6000601f19601f8301169050919050565b600061130a826112a8565b61131481856112b3565b93506113248185602086016112c4565b61132d816112ee565b840191505092915050565b600060408201905061134d6000830185611158565b818103602083015261135f81846112ff565b90509392505050565b7f416363657373436f6e74726f6c3a2063616e206f6e6c792072656e6f756e636560008201527f20726f6c657320666f722073656c660000000000000000000000000000000000602082015250565b60006113c4602f836112b3565b91506113cf82611368565b604082019050919050565b600060208201905081810360008301526113f3816113b7565b9050919050565b7f4164647265737320697320616c72656164792061207573657200000000000000600082015250565b60006114306019836112b3565b915061143b826113fa565b602082019050919050565b6000602082019050818103600083015261145f81611423565b9050919050565b7f596f752063616e206f6e6c7920726567697374657220796f7572206f776e207760008201527f616c6c6574206164647265737300000000000000000000000000000000000000602082015250565b60006114c2602d836112b3565b91506114cd82611466565b604082019050919050565b600060208201905081810360008301526114f1816114b5565b9050919050565b7f4164647265737320697320616c726561647920616e2061646d696e0000000000600082015250565b600061152e601b836112b3565b9150611539826114f8565b602082019050919050565b6000602082019050818103600083015261155d81611521565b9050919050565b7f4e487b7100000000000000000000000000000000000000000000000000000000600052603260045260246000fd5b7f4e487b7100000000000000000000000000000000000000000000000000000000600052601160045260246000fd5b60006115cd826110c3565b91507fffffffffffffffffffffffffffffffffffffffffffffffffffffffffffffffff82036115ff576115fe611593565b5b600182019050919050565b600081905092915050565b7f416363657373436f6e74726f6c3a206163636f756e7420000000000000000000600082015250565b600061164b60178361160a565b915061165682611615565b601782019050919050565b600061166c826112a8565b611676818561160a565b93506116868185602086016112c4565b80840191505092915050565b7f206973206d697373696e6720726f6c6520000000000000000000000000000000600082015250565b60006116c860118361160a565b91506116d382611692565b601182019050919050565b60006116e98261163e565b91506116f58285611661565b9150611700826116bb565b915061170c8284611661565b91508190509392505050565b6000602082019050818103600083015261173281846112ff565b905092915050565b6000611745826110c3565b9150611750836110c3565b925082820261175e816110c3565b9150828204841483151761177557611774611593565b5b5092915050565b6000611787826110c3565b9150611792836110c3565b92508282019050808211156117aa576117a9611593565b5b92915050565b7f4e487b7100000000000000000000000000000000000000000000000000000000600052604160045260246000fd5b60006117ea826110c3565b9150600082036117fd576117fc611593565b5b600182039050919050565b7f537472696e67733a20686578206c656e67746820696e73756666696369656e74600082015250565b600061183e6020836112b3565b915061184982611808565b602082019050919050565b6000602082019050818103600083015261186d81611831565b905091905056fea26469706673582212205f33ea17cc13d7b3d8c897b49514eb061a0bfdf229a16aaa0414077f655e681764736f6c63430008130033",
  "immutableReferences": {},
  "source": "// SPDX-License-Identifier: MIT\npragma solidity ^0.8.19;\n\nimport \"@openzeppelin/contracts/access/AccessControl.sol\";\n\ncontract RoleManagement is AccessControl {\n    // Define roles\n    bytes32 public constant ADMIN_ROLE = keccak256(\"ADMIN_ROLE\");\n    bytes32 public constant POLICY_HOLDER_ROLE = keccak256(\"POLICY_HOLDER_ROLE\");\n\n    // Address lists\n    address[] public admins;\n    address[] public users;\n\n    // Events for debugging\n    event AdminAdded(address indexed account);\n    event UserAdded(address indexed account);\n\n     constructor(address[] memory initialAdmins) {\n      require(initialAdmins.length > 0, \"Initial admins array is empty\");\n        _grantRole(ADMIN_ROLE, msg.sender);\n        admins.push(msg.sender);\n        emit AdminAdded(msg.sender);\n\n        // Assign ADMIN_ROLE to all initialAdmins\n        for (uint256 i = 0; i < initialAdmins.length; i++) {\n          require(initialAdmins[i] != address(0), \"Invalid admin address\");\n            if (!_isInList(admins, initialAdmins[i])) {\n                _grantRole(ADMIN_ROLE, initialAdmins[i]);\n                admins.push(initialAdmins[i]);\n                emit AdminAdded(initialAdmins[i]);\n            }\n        }\n    }\n\n    // Add an address to the admins list (only Admins can call this function)\n    function addAdmin(address account) public onlyRole(ADMIN_ROLE) {\n        require(!_isInList(admins, account), \"Address is already an admin\");\n        _grantRole(ADMIN_ROLE, account);\n        admins.push(account);\n         emit AdminAdded(account);\n    }\n\n    // Add an address to the users list\n    function addUser(address account) public {\n        require(!_isInList(users, account), \"Address is already a user\");\n        require(account == msg.sender, \"You can only register your own wallet address\");\n        _grantRole(POLICY_HOLDER_ROLE, account);\n        users.push(account);\n        emit UserAdded(account);\n    }\n\n    // Utility function to remove an address from a list\n    function _removeFromList(address[] storage list, address account) internal {\n        for (uint256 i = 0; i < list.length; i++) {\n            if (list[i] == account) {\n                list[i] = list[list.length - 1]; // Replace with last element\n                list.pop(); // Remove last element\n                break;\n            }\n        }\n    }\n\n    // Check if an address is in the list\n    function _isInList(address[] storage list, address account) internal view returns (bool) {\n        for (uint256 i = 0; i < list.length; i++) {\n            if (list[i] == account) {\n                return true;\n            }\n        }\n        return false;\n    }\n\n    // Check if an address is in the admins list\n    function _isInAdmins(address account) external view returns (bool) {\n        return _isInList(admins, account);\n    }\n\n    // Check if an address is in the users list\n    function _isInUsers(address account) external view returns (bool) {\n        return _isInList(users, account);\n    }\n\n    // Get the role of a specific address\n    function roleOfAddress(address account) public view returns (address, string memory) {\n        if (hasRole(ADMIN_ROLE, account)) {\n            return (account, \"ADMIN_ROLE\");\n        } else if (hasRole(POLICY_HOLDER_ROLE, account)) {\n            return (account, \"POLICY_HOLDER_ROLE\");\n        } else {\n            return (account, \"NO_ROLE\");\n        }\n    }\n}",
  "sourcePath": "/Users/doodee/CarInsuranceProject/contracts/RoleManagement.sol",
  "compiler": {
    "name": "solc",
    "version": "0.8.19+commit.7dd6d404.Emscripten.clang"
  },
  "schemaVersion": "3.4.16",
  "updatedAt": "2024-12-12T11:17:09.150Z",
  "networkType": "ethereum",
  "devdoc": {
    "events": {
      "RoleAdminChanged(bytes32,bytes32,bytes32)": {
        "details": "Emitted when `newAdminRole` is set as ``role``'s admin role, replacing `previousAdminRole` `DEFAULT_ADMIN_ROLE` is the starting admin for all roles, despite {RoleAdminChanged} not being emitted signaling this. _Available since v3.1._"
      },
      "RoleGranted(bytes32,address,address)": {
        "details": "Emitted when `account` is granted `role`. `sender` is the account that originated the contract call, an admin role bearer except when using {AccessControl-_setupRole}."
      },
      "RoleRevoked(bytes32,address,address)": {
        "details": "Emitted when `account` is revoked `role`. `sender` is the account that originated the contract call:   - if using `revokeRole`, it is the admin role bearer   - if using `renounceRole`, it is the role bearer (i.e. `account`)"
      }
    },
    "kind": "dev",
    "methods": {
      "getRoleAdmin(bytes32)": {
        "details": "Returns the admin role that controls `role`. See {grantRole} and {revokeRole}. To change a role's admin, use {_setRoleAdmin}."
      },
      "grantRole(bytes32,address)": {
        "details": "Grants `role` to `account`. If `account` had not been already granted `role`, emits a {RoleGranted} event. Requirements: - the caller must have ``role``'s admin role. May emit a {RoleGranted} event."
      },
      "hasRole(bytes32,address)": {
        "details": "Returns `true` if `account` has been granted `role`."
      },
      "renounceRole(bytes32,address)": {
        "details": "Revokes `role` from the calling account. Roles are often managed via {grantRole} and {revokeRole}: this function's purpose is to provide a mechanism for accounts to lose their privileges if they are compromised (such as when a trusted device is misplaced). If the calling account had been revoked `role`, emits a {RoleRevoked} event. Requirements: - the caller must be `account`. May emit a {RoleRevoked} event."
      },
      "revokeRole(bytes32,address)": {
        "details": "Revokes `role` from `account`. If `account` had been granted `role`, emits a {RoleRevoked} event. Requirements: - the caller must have ``role``'s admin role. May emit a {RoleRevoked} event."
      },
      "supportsInterface(bytes4)": {
        "details": "See {IERC165-supportsInterface}."
      }
    },
    "version": 1
  },
  "userdoc": {
    "kind": "user",
    "methods": {},
    "version": 1
  }
}